:020000040800F2
:1000000000000220B50900088D09000891090008C8
:1000100095090008990900089D09000800000000E2
:10002000000000000000000000000000B10A00080D
:10003000A109000800000000910C0008A5090008B3
:10004000050A0008050A0008050A0008050A000854
:10005000050A0008050A0008050A0008050A000844
:10006000050A0008050A0008050A0008050A000834
:1000700079070008050A000889070008050A000832
:10008000050A0008050A0008050A0008050A000814
:10009000050A0008050A0008050A0008050A000804
:1000A000050A0008050A0008050A0008050A0008F4
:1000B000050A0008050A0008050A0008050A0008E4
:1000C000050A0008050A0008050A0008050A0008D4
:1000D000050A0008050A0008050A00089907000833
:1000E000050A0008050A0008050A0008050A0008B4
:1000F000050A0008050A0008050A0008050A0008A4
:10010000050A0008050A0008050A0008050A000893
:10011000050A0008050A0008050A0008050A000883
:10012000050A0008050A0008050A0008050A000873
:10013000050A0008050A0008050A0008050A000863
:10014000050A0008050A0008050A0008050A000853
:10015000050A0008050A0008050A0008050A000843
:10016000050A0008050A0008050A0008050A000833
:10017000050A0008050A0008050A0008000000003A
:04018000050A000864
:1001900010B5054C237833B9044B13B10448AFF3C1
:1001A00000800123237010BD140000200000000017
:1001B000484E000808B5034B1BB103490348AFF391
:1001C000008008BD0000000018000020484E000814
:1001D00053B94AB9002908BF00281CBF4FF0FF31AE
:1001E0004FF0FF3000F060B9ADF1080C6DE904CEBE
:1001F00000F006F8DDF804E0DDE9022304B0704702
:100200002DE9F04F07468C46084615463C461946F0
:10021000099E002B40F0C6808242B2FA82F746D98E
:100220004FB1C7F1200E24FA0EFE00FA07F3BD40CD
:100230004EEA030CBC404FEA1548BCFBF8F91FFA24
:1002400085FE08FB19C309FB0EFA220C42EA0343A0
:100250009A4528D9EB1809F1FF3004D29A4502D902
:10026000A9F102002B44A3EB0A03B3FBF8F208FB4D
:10027000123302FB0EFEA4B244EA0344A64514D98D
:100280002C1902F1FF3303D2A64501D9931E2C4449
:10029000A4EB0E0443EA00401EB10023FC4034608E
:1002A0007360BDE8F08F4846DDE71346F0E702B91A
:1002B000FFDE87BB0121831A4FEA154EB3FBFEFC1C
:1002C000AAB20EFB1C330CFB02F8200C40EA0343DD
:1002D000984563D9EB180CF1FF3004D2984502D948
:1002E000ACF102002B44A3EB0803B3FBFEFC0EFBB6
:1002F0001C330CFB02F2A4B244EA0344A2424FD9DD
:100300002C190CF1FF3304D2A24202D9ACF1020342
:100310002C44A41ABEE7C7F1200CBD4020FA0CF80B
:1003200000FA07F324FA0CFC4FEA154E4CEA0302DC
:10033000B8FBFEFCABB20EFB1C800CFB03F9110CEE
:1003400041EA0040814504FA07F423D928180CF14A
:10035000FF3104D2814502D9ACF102012844A0EB5F
:100360000900B0FBFEFC0EFB1C000CFB03F892B274
:1003700042EA004398450FD9EB180CF1FF3204D242
:10038000984502D9ACF102022B44A3EB080342EAE0
:10039000014191E76146E2E76246F6E76046A2E77F
:1003A0006346B6E7834205D90EB1C6E90070002165
:1003B000084676E7B3FA83F181B9834201D3BA42A2
:1003C0000AD8BC1A60EB030301209C46002E68D0BB
:1003D000C6E9004C002164E70846F7E7C1F1200CAC
:1003E0008B4022FA0CF41C4320FA0CFB4FEA144910
:1003F000BBFBF9F81FFA84FE09FB18BB08FB0EFAD9
:1004000002FA01F500FA01F327FA0CF213431A0C71
:1004100042EA0B42924507FA01F73ED9A21808F1C9
:10042000FF3004D2924502D9A8F102002244A2EB87
:100430000A02B2FBF9F809FB182208FB0EFE9BB278
:1004400043EA024296452AD9A21808F1FF3304D2A2
:10045000964502D9A8F10203224443EA0040A0FBDA
:100460000593A2EB0E029A42CE46984602D306D1DD
:100470004F4504D2B9EB050E63EB0408013886B191
:10048000B7EB0E0362EB080707FA0CFCCB404CEA13
:100490000303CF40C6E900379CE74046C7E7434621
:1004A000DBE73146FDE60000704700BF844641EAC5
:1004B000000313F0030349D1403A23D30B680360D0
:1004C0004B6843608B688360CB68C3600B690361D2
:1004D0004B6943618B698361CB69C3610B6A0362BA
:1004E0004B6A43628B6A8362CB6AC3620B6B0363A2
:1004F0004B6B43638B6B8363CB6BC3634030403187
:10050000403ADBD230320BD30B6803604B68436058
:100510008B688360CB68C36010301031103AF3D21F
:100520000C3205D351F8043B40F8043B043AF9D2AD
:10053000043208D0D2071CBF11F8013B00F8013B80
:1005400001D30B8803806046704700BF082A13D38D
:100550008B07B1D010F00303AED0C3F10403D21A5D
:10056000DB071CBF11F8013B00F8013BA4D331F8B5
:10057000023B20F8023B9FE7043AD9D3013A11F835
:10058000013B00F8013BF9D20B7803704B784370C4
:100590008B7883706046704708B502F0A5FA00F0CA
:1005A00037F800F06FF800F0C1F800F09BF800BFDA
:1005B00008BD000008B58021024803F0BCF900BF67
:1005C00008BD00BF0004024000B583B0019001984F
:1005D00004F00CFC03469BB21A460199064803F04E
:1005E00093FE0346002B0CBF01230023DBB2184609
:1005F00003B05DF804FB00BF3000002000B583B0FD
:100600000190019802F0D4FA00BF03B05DF804FB3A
:1006100000B593B006AB30220021184604F094FBDD
:1006200001AB00221A605A609A60DA601A610123F5
:1006300006930523079302230C934FF480030D9335
:1006400008230E93F0230F93022310930523119395
:1006500006AB184603F088F90F2301930223029397
:10066000002303934FF4A05304934FF48053059356
:1006700001AB0321184603F0C5FB00BF13B05DF8C2
:1006800004FB000000B583B000230193124B1B6BE9
:10069000114A43F0020313630F4B1B6B03F0020379
:1006A0000193019B0D4B80221A600C4B01225A6072
:1006B0000A4B01229A60094B0322DA600749084875
:1006C00002F086FF00228021054803F01BF900BFDD
:1006D00003B05DF804FB00BF003802403401002085
:1006E0000004024008B50F4B0F4A1A600D4B4FF43F
:1006F000E1325A600B4B00229A600A4B0022DA600A
:10070000084B00221A61074B0C225A61054B00224C
:100710009A61044B0022DA61024803F0A9FD00BF90
:1007200008BD00BF300000200048004000B583B085
:10073000002301930F4B1B6B0E4A43F4001313630A
:100740000C4B1B6B03F400130193019B002200214F
:100750000C2002F013FB0C2002F02CFB00220021E5
:100760000E2002F00BFB0E2002F024FB00BF03B0B2
:100770005DF804FB0038024008B5024802F0C8FCEE
:1007800000BF08BD7400002008B5024802F0C0FC9C
:1007900000BF08BDD400002008B5024803F024FEC5
:1007A00000BF08BD3000002082B0002301930E4B33
:1007B0005B6C0D4A43F4804353640B4B5B6C03F456
:1007C00080430193019B00230093074B1B6C064A57
:1007D00043F080531364044B1B6C03F0805300936D
:1007E000009B00BF02B070470038024000B58BB0DC
:1007F000019005AB00221A605A609A60DA601A61B3
:10080000019B1B68464A934240F086800023049374
:10081000444B1B6C434A43F480231364414B1B6CD1
:1008200003F480230493049B002303933D4B1B6B31
:100830003C4A43F0080313633A4B1B6B03F0080375
:100840000393039B4FF44073059302230693002305
:100850000793032308930723099305AB19463248EE
:1008600002F0B6FE314B324A1A60304B4FF0006254
:100870005A602E4B00229A602C4B0022DA602B4BE0
:100880004FF480621A61294B00225A61274B0022E3
:100890009A61264B0022DA61244B00221A62234B14
:1008A00000225A62214802F09FFA019B1F4A9A6374
:1008B0001E4A019B93631F4B1F4A1A601D4B4FF04A
:1008C00000625A601B4B40229A601A4B0022DA6089
:1008D000184B4FF480621A61164B00225A61154B77
:1008E00000229A61134B0022DA61124B00221A6235
:1008F000104B00225A620F4802F076FA019B0D4A13
:100900005A630C4A019B936300220021272002F0C6
:1009100035FA272002F04EFA00BF0BB05DF804FB59
:100920000048004000380240000C024074000020E3
:1009300028600240D40000205860024000B583B017
:1009400001900648FFF740FE0346002B01D0FFF759
:1009500031FE4FF47A70FFF751FEF2E7604E000867
:1009600000B583B0FFF718FE002301930323009323
:10097000002382220349044800F0EEF900F058FBFE
:10098000FEE700BF804E00083D09000800BF704729
:1009900000BF704700BF704700BF704700BF70477F
:1009A00000BF704708B500F097F902F0EDF800BFFE
:1009B00008BD0000DFF834D00D480E490E4A002370
:1009C00002E0D458C4500433C4188C42F9D30B4A03
:1009D0000B4C002301E013600432A242FBD300F071
:1009E00012F804F08DF9FFF7BBFF704700000220FA
:1009F0000000002014000020D44E00081400002045
:100A0000F02E0120FEE700BF7047000084B0039085
:100A100002910192039B043B0393039B4FF080726E
:100A20001A60039B043B0393029B23F00102039B88
:100A30001A60039B043B0393074A039B1A60039BC2
:100A4000143B0393019A039B1A60039B203B03937F
:100A5000039B184604B070475D0A000884B0002369
:100A60000193114B1B68B3F1FF3F0AD04FF05003C5
:100A700083F31188BFF36F8FBFF34F8F039300BFD2
:100A8000FEE74FF0500383F31188BFF36F8FBFF37E
:100A90004F8F029300BF00BF019B002BFCD000BF13
:100AA00000BF04B0704700BF040000200000000039
:100AB000074B19680868B0E8F00F80F30988BFF3A6
:100AC0006F8F4FF0000080F311884EF00D0E7047CD
:100AD0005001002000BF00BF06480068006880F396
:100AE000088862B661B6BFF34F8FBFF36F8F00DF28
:100AF00000BF000008ED00E000BF00BF00B585B0FA
:100B0000344B0393039B1B78DBB20193039BFF22BF
:100B10001A70039B1B78DBB28DF803309DF803300D
:100B2000DBB203F05003DAB22B4B1A702B4B0722C7
:100B30001A600BE0294B1B68013B284A13609DF8A3
:100B40000330DBB25B00DBB28DF803309DF803307D
:100B5000DBB203F08003802BECD0204B1B68C3F189
:100B60000703042B0AD04FF0500383F31188BFF31F
:100B70006F8FBFF34F8F029300BFFEE7174B1B68C9
:100B80001B02164A1360154B1B6803F4E063134AFB
:100B90001360019BDAB2039B1A70114B1B68104A59
:100BA00043F4700313600E4B1B680D4A43F070430F
:100BB000136000F0B3F80B4B00221A60FFF78CFFB4
:100BC00000F0AAFCFFF74AFF0023184605B05DF8C5
:100BD00004FB00BF00E400E0480100204C010020BD
:100BE00020ED00E00400002082B04FF0500383F3BA
:100BF0001188BFF36F8FBFF34F8F019300BF0E4B70
:100C00001B6801330C4A13600B4B1B68012B0FD17F
:100C10000A4B1B68DBB2002B0AD04FF0500383F362
:100C20001188BFF36F8FBFF34F8F009300BFFEE7B4
:100C300000BF02B0704700BF0400002004ED00E0D8
:100C400082B0104B1B68002B0AD14FF0500383F386
:100C50001188BFF36F8FBFF34F8F019300BFFEE783
:100C6000084B1B68013B074A1360064B1B68002BAF
:100C700005D100230093009B83F3118800BF00BFC0
:100C800002B07047040000200000000000000000D7
:100C9000EFF30980BFF36F8F0D4B1A6820E9F00F57
:100CA00010602DE908404FF0500080F3118800F0EB
:100CB00033FC4FF0000080F31188BDE8084019684C
:100CC0000868B0E8F00F80F30988BFF36F8F7047B2
:100CD0005001002000BF00BF00B583B04FF05003AB
:100CE00083F31188BFF36F8FBFF34F8F019300BF62
:100CF00000F0FCFA0346002B03D0074B4FF0805264
:100D00001A6000230093009B83F3118800BF00BF8B
:100D100003B05DF804FB00BF04ED00E0094B0022C6
:100D20001A60094B00221A60084B1B68084AA2FB94
:100D300003239B09074A013B1360024B07221A60F9
:100D400000BF704710E000E018E000E00000002065
:100D5000D34D621014E000E000B58DB0079006910D
:100D600004931346ADF81630BDF816309B001846B4
:100D700001F00EFA0990099B002B13D0582001F0C6
:100D800007FA0B900B9B002B08D0582200210B98E0
:100D900003F0DAFF0B9B099A1A6305E0099801F04A
:100DA000AFFA01E000230B930B9B002B14D0BDF88E
:100DB0001620002303930B9B02930F9B01930E9B22
:100DC0000093049B0699079800F00EF80B9800F02A
:100DD00099F801230A9302E04FF0FF330A930A9B2C
:100DE00018460DB05DF804FB00B589B00390029180
:100DF000019200930C9B186B019B9B001A46A52146
:100E000003F0A2FF0C9B1A6B019B03F18043013B93
:100E10009B0013440693069B23F007030693069B4F
:100E200003F00703002B0AD04FF0500383F311881F
:100E3000BFF36F8FBFF34F8F059300BFFEE7029B99
:100E4000002B1ED00023079312E0029A079B134445
:100E500019780C9A079B134434330A461A70029A85
:100E6000079B13441B78002B06D0079B0133079385
:100E7000079B092BE9D900E000BF0C9B002283F8F7
:100E80003D200A9B042B0AD94FF0500383F31188AD
:100E9000BFF36F8FBFF34F8F049300BFFEE70A9B32
:100EA000042B01D904230A930C9B0A9ADA620C9B47
:100EB0000A9A9A640C9B0433184601F008F90C9BBB
:100EC0001833184601F003F90C9B0C9A1A610A9B1F
:100ED000C3F105020C9B9A610C9B0C9A5A62009A12
:100EE00003990698FFF792FD02460C9B1A600B9B34
:100EF000002B02D00B9B0C9A1A6000BF09B05DF862
:100F000004FB000000B585B00190FFF76DFE414B7A
:100F10001B6801333F4A13603F4B1B68002B09D10C
:100F20003D4A019B13603B4B1B68012B10D100F025
:100F300019FD0DE0394B1B68002B09D1364B1B689E
:100F4000DA6A019BDB6A9A4202D8334A019B13603A
:100F5000334B1B680133324A1360314B1A68019BD3
:100F60001A64019BDB6A01229A402E4B1B681343D3
:100F70002C4A1360019BDA6A2B4913469B001344E9
:100F80009B000B4404331B680393019B039A9A60F4
:100F9000039B9A68019BDA60039B9B68019A043269
:100FA0005A60019B1A1D039B9A60019BDA6A1346E3
:100FB0009B0013449B001C4A1A44019B5A61019BED
:100FC000DA6A194913469B0013449B000B441B68C3
:100FD000591C154813469B0013449B000344196099
:100FE000FFF72EFE0D4B1B68002B0ED00A4B1B6823
:100FF000DA6A019BDB6A9A4207D20C4B4FF08052AF
:101000001A60BFF34F8FBFF36F8F00BF05B05DF85D
:1010100004FB00BF28020020500100203402002001
:1010200044020020300200205401002004ED00E0C2
:1010300000B587B01F4B0193002300930023822249
:101040001D491E48FFF788FE0590059B012B02D124
:1010500000F0B0FD0590059B012B16D14FF0500319
:1010600083F31188BFF36F8FBFF34F8F049300BFDB
:10107000134B4FF0FF321A60124B01221A60124BD1
:1010800000221A60FFF73AFD0EE0059BB3F1FF3F27
:101090000AD14FF0500383F31188BFF36F8FBFF372
:1010A0004F8F039300BFFEE7084B1B6800BF07B0DC
:1010B0005DF804FB4C0200208C4E00083919000832
:1010C00048020020340200202C02002008000020EA
:1010D000034B1B680133024A136000BF704700BF17
:1010E0005002002000B589B0002307930023069327
:1010F000704B1B68002B0AD14FF0500383F311880B
:10110000BFF36F8FBFF34F8F019300BFFEE7FFF771
:101110006BFD684B1B68013B664A1360654B1B689F
:10112000002B40F0C080644B1B68002B00F0BB809C
:101130008AE0624BDB68DB680793079B9B6A04933A
:10114000079BDB69079A126A9A60079B1B6A079ADA
:10115000D2695A60049B5A68079B18339A4203D19C
:10116000079B1A6A049B5A60079B00229A62049BA1
:101170001B685A1E049B1A60079B5B690393079BBD
:101180009B68079AD2689A60079BDB68079A926807
:101190005A60039B5A68079B04339A4203D1079B0A
:1011A000DA68039B5A60079B00225A61039B1B6805
:1011B0005A1E039B1A60079BDB6A01229A40404B30
:1011C0001B6813433E4A1360079BDA6A3D49134686
:1011D0009B0013449B000B4404331B680293079B42
:1011E000029A9A60029B9A68079BDA60029B9B684E
:1011F000079A04325A60079B1A1D029B9A60079B4C
:10120000DA6A13469B0013449B002E4A1A44079B3C
:101210005A61079BDA6A2B4913469B0013449B00D3
:101220000B441B68591C274813469B0013449B0022
:1012300003441960079BDA6A234B1B68DB6A9A42F6
:1012400002D3224B01221A601C4B1B68002B7FF437
:1012500070AF079B002B01D000F0FEFB1C4B1B68FE
:101260000593059B002B10D000F040F80346002B9F
:1012700002D0164B01221A60059B013B0593059B8A
:10128000002BF1D1124B00221A60104B1B68002B6F
:1012900009D0012306930F4B4FF080521A60BFF321
:1012A0004F8FBFF36F8FFFF7CBFC069B184609B03B
:1012B0005DF804FB5002002028020020E801002015
:1012C0003002002054010020500100203C02002088
:1012D0003802002004ED00E082B0034B1B6801934C
:1012E000019B184602B070472C02002000B58BB05D
:1012F000002309937D4B1B68002B40F0EC807C4B56
:101300001B68013308937A4A089B1360089B002BE3
:1013100020D1784B1B681B68002B0AD04FF050037C
:1013200083F31188BFF36F8FBFF34F8F019300BF1B
:10133000FEE7704B1B6807936F4B1B686D4A136089
:101340006D4A079B13606D4B1B6801336B4A13603A
:1013500000F082FB6A4B1B68089A9A42C0F0A68094
:10136000644B1B681B68002B04D1654B4FF0FF32A8
:101370001A609BE05F4B1B68DB68DB680693069B8B
:101380005B680593089A059B9A4203D25C4A059BC9
:1013900013608BE0069B5B690493069B9B68069A2F
:1013A000D2689A60069BDB68069A92685A60049B32
:1013B0005A68069B04339A4203D1069BDA68049B61
:1013C0005A60069B00225A61049B1B685A1E049BAC
:1013D0001A60069B9B6A002B1ED0069B9B6A039398
:1013E000069BDB69069A126A9A60069B1B6A069A3C
:1013F000D2695A60039B5A68069B18339A4203D1FC
:10140000069B1A6A039B5A60069B00229A62039B02
:101410001B685A1E039B1A60069BDB6A01229A40D6
:10142000384B1B681343374A1360069BDA6A364908
:1014300013469B0013449B000B4404331B68029328
:10144000069B029A9A60029B9A68069BDA60029B4E
:101450009B68069A04325A60069B1A1D029B9A608A
:10146000069BDA6A13469B0013449B00264A1A44E3
:10147000069B5A61069BDA6A234913469B00134474
:101480009B000B441B68591C1F4813469B001344C8
:101490009B0003441960069BDA6A1C4B1B68DB6ADD
:1014A0009A42FFF45DAF0123099359E7174B1B687C
:1014B000DA6A154913469B0013449B000B441B68D2
:1014C000012B01D901230993114B1B68002B07D075
:1014D0000123099304E00F4B1B6801330D4A13608D
:1014E000099B18460BB05DF804FB00BF50020020BA
:1014F0002C020020E0010020E40100204002002036
:101500004802002030020020540100205001002039
:101510003C0200203802002086B0264B1B68002BBE
:1015200003D0254B01221A6041E0234B00221A60B0
:10153000224B1B680393039BB3FA83F38DF80B30A4
:101540009DF80B30C3F11F0305931D49059A1346FF
:101550009B0013449B000B441B68002B0AD14FF0E7
:10156000500383F31188BFF36F8FBFF34F8F019345
:1015700000BFFEE7059A13469B0013449B00104AE8
:1015800013440493049B5B685A68049B5A60049B51
:101590005A68049B08339A4204D1049B5B685A68DA
:1015A000049B5A60049B5B68DB68064A136000BFBB
:1015B00006B07047500200203C020020300200209C
:1015C000540100205001002000B585B00190009129
:1015D000019B002B0AD14FF0500383F31188BFF316
:1015E0006F8FBFF34F8F039300BFFEE7074B1B685E
:1015F00018331946019800F072FD0121009800F09F
:101600005BFA00BF05B05DF804FB00BF500100208D
:1016100000B587B0039002910192039B002B0AD181
:101620004FF0500383F31188BFF36F8FBFF34F8FD9
:10163000049300BFFEE7039B5B680593154B1B6893
:10164000059ADA61134B1B68059A92681A62114B6E
:101650001A68059B9B6818325A600E4B1B6803F191
:101660001802059B9A600B4B1B68039A9A62039BB6
:101670001B685A1C039B1A60019B002B02D04FF081
:10168000FF3302930199029800F016FA00BF07B0E9
:101690005DF804FB500100208AB00190019BDB68DB
:1016A000DB680893089B002B0AD14FF0500383F3AB
:1016B0001188BFF36F8FBFF34F8F039300BFFEE717
:1016C000089B9B6A0793089BDB69089A126A9A60D9
:1016D000089B1B6A089AD2695A60079B5A68089B44
:1016E00018339A4203D1089B1A6A079B5A60089BD9
:1016F00000229A62079B1B685A1E079B1A60494B7F
:101700001B68002B5ED1089B5B690593089B9B6857
:10171000089AD2689A60089BDB68089A92685A60B7
:10172000059B5A68089B04339A4203D1089BDA68E8
:10173000059B5A60089B00225A61059B1B685A1E34
:10174000059B1A60089BDB6A01229A40364B1B6896
:101750001343354A1360089BDA6A344913469B00E9
:1017600013449B000B4404331B680493089B049AA6
:101770009A60049B9A68089BDA60049B9B68089AAD
:1017800004325A60089B1A1D049B9A60089BDA6A0F
:1017900013469B0013449B00244A1A44089B5A6139
:1017A000089BDA6A214913469B0013449B000B44B3
:1017B0001B68591C1D4813469B0013449B0003449F
:1017C00019601BE01A4B5B680693089B069ADA6166
:1017D000069B9A68089B1A62069B9B68089A1832B7
:1017E0005A60089B03F11802069B9A60089B104AF6
:1017F0009A620F4B1B6801330D4A1360089BDA6A2B
:101800000C4B1B68DB6A9A4205D9012309930A4BEA
:1018100001221A6001E000230993099B18460AB0CF
:10182000704700BF50020020300200205401002009
:10183000E8010020500100203C02002082B001900D
:10184000054B1A68019B1A60044B1A68019B5A6089
:1018500000BF02B0704700BF400200202C020020F1
:1018600000B589B001900091019B002B0AD14FF087
:10187000500383F31188BFF36F8FBFF34F8F04932F
:1018800000BFFEE7009B002B0AD14FF0500383F30B
:101890001188BFF36F8FBFF34F8F039300BFFEE735
:1018A000FFF7A2F91E4B1B680693019B5B68069A23
:1018B000D31A0593009B1B68B3F1FF3F02D10023AD
:1018C000079326E0019B1A68164B1B689A420AD0C0
:1018D000019B5B68069A9A4205D301230793009BFC
:1018E00000221A6015E0009B1B68059A9A420BD2F1
:1018F000009B1A68059BD21A009B1A600198FFF79B
:101900009DFF0023079304E0009B00221A6001233F
:101910000793FFF795F9079B184609B05DF804FB9C
:101920002C02002040020020024B01221A6000BF5E
:10193000704700BF3C02002000B583B0019000F06A
:101940004FF8064B1B68012BF9D9054B4FF080521D
:101950001A60BFF34F8FBFF36F8FF0E75401002081
:1019600004ED00E000B583B0002301930CE0019A80
:1019700013469B0013449B00114A1344184600F081
:101980008BFB019B01330193019B042BEFD90D4885
:1019900000F082FB0C4800F07FFB0C4800F07CFB61
:1019A0000B4800F079FB0B4800F076FB0A4B054A28
:1019B0001A600A4B044A1A6000BF03B05DF804FBCA
:1019C00054010020B8010020CC010020E8010020D3
:1019D000FC01002014020020E0010020E4010020AE
:1019E00000B583B019E0FFF7FFF8104BDB68DB6848
:1019F0000193019B0433184600F0A5FB0C4B1B68B8
:101A0000013B0B4A13600B4B1B68013B094A1360F7
:101A1000FFF716F9019800F00FF8064B1B68002B32
:101A2000E1D100BF00BF03B05DF804FBFC01002062
:101A3000280200201002002000B583B00190019B15
:101A40001B6B184600F05CFC019800F059FC00BFCD
:101A500003B05DF804FB0000084B1B681B68002BFB
:101A600004D1074B4FF0FF321A6005E0034B1B68AF
:101A7000DB681B68024A136000BF7047E00100206A
:101A80004802002082B00A4B1B68002B02D10123C0
:101A9000019308E0074B1B68002B02D1022301933E
:101AA00001E000230193019B184602B0704700BF7C
:101AB000340200205002002000B587B00190009150
:101AC000354B1B680593354B1B680433184600F0F3
:101AD0003AFB0346002B0BD1304B1B68DB6A01221B
:101AE00002FA03F3DA432E4B1B6813402C4A1360AF
:101AF000019BB3F1FF3F24D1009B002B21D0294B48
:101B00005B680493254B1B68049A9A60234B1B68FF
:101B1000049A9268DA60214B1A68049B9B6804322D
:101B20005A601E4B1B681A1D049B9A601B4B1B6856
:101B30001C4A5A611B4B1B6801331A4A136000BFD1
:101B400026E0059A019B13440393144B1B68039AE8
:101B50005A60039A059B9A4209D2134B1A680F4B9D
:101B60001B6804331946104600F0B9FA10E00F4B19
:101B70001A680A4B1B6804331946104600F0AFFA86
:101B80000B4B1B68039A9A4202D2094A039B1360CB
:101B900000BF07B05DF804FB2C02002050010020BC
:101BA0003002002014020020E4010020E0010020A7
:101BB0004802002000B585B00023039300F036FAF8
:101BC000114B1B68002B0BD0104B01930223009389
:101BD00000234FF482720E490E48FFF7BDF80390C0
:101BE000039B002B0AD14FF0500383F31188BFF3FE
:101BF0006F8FBFF34F8F029300BFFEE7039B184622
:101C000005B05DF804FB00BF8402002088020020BC
:101C1000944E0008B51C000800B585B003900291F1
:101C2000019208E0039B9B69029A13440293039B71
:101C30001B6A03989847039B9A69029BD118029BE1
:101C4000019A039800F0CEF80346002BEAD100BFBA
:101C500000BF05B05DF804FB00B585B001900091B0
:101C6000134B1B68DB68DB680393039B0433184644
:101C700000F069FA039B93F8283003F00403002B6B
:101C800005D0009A01990398FFF7C6FF08E0039B6F
:101C900093F8283023F00103DAB2039B83F828205D
:101CA000039B1B6A0398984700BF05B05DF804FBCF
:101CB0007C02002000B585B0019002AB184600F010
:101CC00055F80390029B1946039800F003F800F0C2
:101CD000CBF8F2E700B585B001900091FFF7F8F975
:101CE00002AB184600F060F80390029B002B30D145
:101CF000009B002B0AD1019A039B9A4206D8FFF75A
:101D0000F1F903990198FFF7A7FF24E0009B002B4E
:101D100008D0134B1B681B68002B01D1012300E086
:101D2000002300930F4B1868019A039BD31A009A63
:101D3000194600F0A5FEFFF7D5F90346002B0AD19E
:101D4000094B4FF080521A60BFF34F8FBFF36F8F74
:101D500001E0FFF7C7F900BF05B05DF804FB00BF65
:101D6000800200208402002004ED00E084B0019095
:101D70000C4B1B681B68002B01D1012200E00022E4
:101D8000019B1A60019B1B68002B05D1054B1B684A
:101D9000DB681B68039301E000230393039B184651
:101DA00004B070477C02002000B585B00190FFF7B9
:101DB00093FA03900A4B1B68039A9A4205D200F0EB
:101DC00011F9019B01221A6002E0019B00221A60B6
:101DD000034A039B1360039B184605B05DF804FBA0
:101DE0008C02002000B587B003900291019200930D
:101DF00000230593039B029A5A60039B039A1A617E
:101E0000029A019B9A4212D8019A009BD21A039B14
:101E10009B699A4202D3012305931BE0104B1A6879
:101E2000039B04331946104600F059F912E0019A59
:101E3000009B9A4206D2029A009B9A4202D3012347
:101E4000059307E0074B1A68039B043319461046B5
:101E500000F045F9059B184607B05DF804FB00BF8C
:101E6000800200207C02002000B589B0A7E0029B20
:101E7000002BC0F2A380049B0793079B5B69002B98
:101E800004D0079B0433184600F05DF901AB1846F7
:101E9000FFF78AFF0690029B013B082B00F28F8020
:101EA00001A252F823F000BFCD1E0008CD1E00088D
:101EB000351F0008491F0008931F0008CD1E0008A9
:101EC000CD1E0008351F0008491F0008079B93F826
:101ED000283043F00103DAB2079B83F82820039AE5
:101EE000079B9B69D118039B069A0798FFF77AFF17
:101EF0000346002B63D0079B93F8283003F00403BC
:101F0000002B09D0039A079B9B691344069A194634
:101F10000798FFF781FE08E0079B93F8283023F02D
:101F20000103DAB2079B83F82820079B1B6A0798F6
:101F3000984744E0079B93F8283023F00103DAB276
:101F4000079B83F828203AE0079B93F8283043F05A
:101F50000103DAB2079B83F82820039A079B9A6152
:101F6000079B9B69002B0AD14FF0500383F3118824
:101F7000BFF36F8FBFF34F8F059300BFFEE7079B43
:101F80009A69069BD118069B069A0798FFF72AFFC5
:101F900015E0079B93F8283003F00203002B03D1D0
:101FA000079800F0ADF90AE0079B93F8283023F07A
:101FB0000103DAB2079B83F8282000E000BF084B3A
:101FC0001B6802A90022184600F0A2FB0346002B62
:101FD0007FF44DAF00BF00BF09B05DF804FB00BF48
:101FE0008402002000B583B009E00E4B1B68DB685B
:101FF0001B6800934FF0FF310098FFF72DFE094B4F
:102000001B681B68002BF0D1064B1B680193064B25
:102010001B68044A1360044A019B136000BF03B0AD
:102020005DF804FB7C0200208002002008B5FEF76A
:10203000DBFD134B1B68002B1DD1124800F02CF860
:10204000114800F029F8114B0E4A1A60104B0E4A45
:102050001A6000220C210A2000F0E6FA0346084A22
:102060001360074B1B68002B05D0054B1B68094903
:10207000184600F0BBFCFEF7E3FD00BF08BD00BF43
:102080008402002054020020680200207C0200200C
:10209000800200209C4E000882B00190019B03F159
:1020A0000802019B5A60019B4FF0FF329A60019B2E
:1020B00003F10802019BDA60019B03F10802019B16
:1020C0001A61019B00221A6000BF02B0704782B003
:1020D0000190019B00221A6100BF02B0704784B0DA
:1020E00001900091009B1B680293029BB3F1FF3F9C
:1020F00003D1019B1B6903930CE0019B08330393FD
:1021000002E0039B5B680393039B5B681B68029A76
:102110009A42F6D2039B5A68009B5A60009B5B6808
:10212000009A9A60009B039A9A60039B009A5A60F7
:10213000009B019A1A61019B1B685A1C019B1A6043
:1021400000BF04B0704784B00190019B1B690393EA
:10215000019B5B68019A92689A60019B9B68019A57
:1021600052685A60039B5B68019A9A4203D1019BB3
:102170009A68039B5A60019B00221A61039B1B68AB
:102180005A1E039B1A60039B1B68184604B07047D5
:1021900000B58BB0019000230793FEF799FF534BD6
:1021A0001B68002B01D100F005F9019B002B12D018
:1021B0000822019B03F00703D31A08330693069BFA
:1021C000DB43019A9A4204D8019A069B1344019377
:1021D00001E000230193019B002B70DB019B002B8E
:1021E0006DD0434B1B68019A9A4268D8414B0893C3
:1021F000404B1B68099304E0099B0893099B1B68EB
:102200000993099B5B68019A9A4203D9099B1B6851
:10221000002BF1D1354B1B68099A9A424FD0089B8D
:102220001B68082213440793099B1A68089B1A60CD
:10223000099B5A68019BD21A08235B009A421FD956
:10224000099A019B13440593059B03F00703002B98
:102250000AD04FF0500383F31188BFF36F8FBFF3A1
:102260004F8F049300BFFEE7099B5A68019BD21A67
:10227000059B5A60099B019A5A60059800F0F2F894
:102280001B4B1A68099B5B68D31A194A1360184BD9
:102290001A68194B1B689A4203D2154B1B68164AE1
:1022A0001360099B5B6843F00042099B5A60099BDD
:1022B00000221A60114B1B680133104A1360FEF7AD
:1022C00011FF079B03F00703002B0AD04FF05003C8
:1022D00083F31188BFF36F8FBFF34F8F039300BF5A
:1022E000FEE7079B18460BB05DF804FB982E012013
:1022F0009C2E0120902E0120A02E0120A42E012032
:1023000000B587B00190019B0593019B002B49D03C
:1023100008235B42059A13440593059B0493049B91
:102320005B68002B0ADB4FF0500383F31188BFF387
:102330006F8FBFF34F8F039300BFFEE7049B1B68B3
:10234000002B0AD04FF0500383F31188BFF36F8F37
:10235000BFF34F8F029300BFFEE7049B5B68DB0F68
:1023600003F00103DBB2002B1CD0049B1B68002B85
:1023700018D1049B5B6823F00042049B5A60FEF76F
:10238000A7FE049B5A68094B1B681344074A136055
:10239000049800F067F8064B1B680133044A136089
:1023A000FEF7A0FE00BF07B05DF804FB9C2E0120E5
:1023B000A82E012084B04FF496330293244B03934C
:1023C000039B03F00703002B0CD0039B07330393FD
:1023D000039B23F007030393029A039BD31A1C4A1F
:1023E00013440293039B01931A4A019B1360194BF8
:1023F00000225A60019B029A134403930822039B14
:102400009B1A0393039B23F007030393039B124A36
:102410001360114B1B6800225A600F4B1B6800228F
:102420001A60019B0093009B039AD21A009B5A608A
:10243000094B1A68009B1A60009B5B68074A13608F
:10244000009B5B68064A136000BF04B0704700BF82
:1024500090020020902E0120982E0120A02E012015
:102460009C2E012084B00190264B039302E0039B35
:102470001B680393039B1B68019A9A42F7D8039B3E
:102480000293039B5B68029A1344019A9A4208D113
:10249000039B5A68019B5B681A44039B5A60039B29
:1024A0000193019B0293019B5B68029A1A44039B70
:1024B0001B689A4218D1039B1A68134B1B689A42F7
:1024C0000DD0019B5A68039B1B685B681A44019BF3
:1024D0005A60039B1B681A68019B1A6008E00A4B4C
:1024E0001A68019B1A6003E0039B1A68019B1A603B
:1024F000039A019B9A4202D0039B019A1A6000BF83
:1025000004B07047902E0120982E012000B587B0AE
:102510000190009101230593019B0493049B002BE0
:102520000AD14FF0500383F31188BFF36F8FBFF3CD
:102530004F8F039300BFFEE7049B002B5DD0049BED
:10254000DB6B002B59D0049B1A6C049BDB6B0021C6
:10255000A3FB0223002B00D001210B46002B4CD102
:10256000FEF742FB049B1A68049BDB6B0499096C21
:1025700001FB03F31A44049B9A60049B00229A63B4
:10258000049B1A68049B5A60049B1A68049BDB6BCB
:10259000013B0499096C01FB03F31A44049BDA60C4
:1025A000049BFF2283F84420049BFF2283F84520EC
:1025B000009B002B14D1049B1B69002B1AD0049B99
:1025C00010331846FFF768F80346002B12D0154B5E
:1025D0004FF080521A60BFF34F8FBFF36F8F09E047
:1025E000049B10331846FFF757FD049B243318460D
:1025F000FFF752FDFEF724FB01E000230593059B46
:10260000002B0AD14FF0500383F31188BFF36F8F73
:10261000BFF34F8F029300BFFEE7059B184607B03C
:102620005DF804FB04ED00E000B58BB0059004916B
:1026300013468DF80F3000230993059B002B2FD0F4
:102640000021049A059BA3FB0223002B00D001214B
:102650000B46002B24D1059B049A02FB03F313F1D4
:10266000510F1DD8059B049A02FB03F30893089BA6
:1026700050331846FFF78CFD0990099B002B1DD0A5
:10268000099B0793079B503307939DF80F20099BE5
:1026900000931346079A0499059800F014F80DE08A
:1026A000099B002B0AD14FF0500383F31188BFF32D
:1026B0006F8FBFF34F8F069300BFFEE7099B18464D
:1026C0000BB05DF804FB00B585B003900291019258
:1026D0008DF80330029B002B03D1069B069A1A60EB
:1026E00002E0069B019A1A60069B039ADA63069B36
:1026F000029A1A6401210698FFF708FF069B9DF8CD
:10270000032083F84C2000BF05B05DF804FB0000F7
:1027100000B58DB003900291019200230B93039BAF
:102720000A930A9B002B0AD14FF0500383F31188C0
:10273000BFF36F8FBFF34F8F089300BFFEE7029B7D
:10274000002B03D10A9B1B6C002B01D1012300E05D
:102750000023002B0AD14FF0500383F31188BFF3FD
:102760006F8FBFF34F8F079300BFFEE7FFF78AF924
:102770000346002B02D1019B002B01D1012300E075
:102780000023002B0AD14FF0500383F31188BFF3CD
:102790006F8FBFF34F8F069300BFFEE7FEF724FA5B
:1027A0000A9B9B6B0993099B002B1FD002990A98E7
:1027B00000F08AF8099B5A1E0A9B9A630A9B1B69C0
:1027C000002B0FD00A9B10331846FEF765FF034617
:1027D000002B07D03B4B4FF080521A60BFF34F8F56
:1027E000BFF36F8FFEF72CFA012367E0019B002BEC
:1027F00003D1FEF725FA002360E00B9B002B05D1E7
:1028000004AB1846FFF71AF801230B93FEF718FAEA
:10281000FEF75EFCFEF7E8F90A9B93F844305BB2E2
:10282000B3F1FF3F03D10A9B002283F844200A9BA7
:1028300093F845305BB2B3F1FF3F03D10A9B00220E
:1028400083F84520FEF7FCF901AA04AB11461846AF
:10285000FFF706F80346002B23D10A9800F0B0F8E2
:102860000346002B17D00A9B2433019A11461846C1
:10287000FEF7AAFE0A9800F04CF8FEF733FC034678
:10288000002B8BD10F4B4FF080521A60BFF34F8F4C
:10289000BFF36F8F82E70A9800F03BF8FEF722FC47
:1028A0007CE70A9800F035F8FEF71CFC0A9800F067
:1028B00087F80346002B3FF471AF002318460DB094
:1028C0005DF804FB04ED00E000B583B001900091D9
:1028D000019B1B6C002B18D0019BDA68019B1B6CC1
:1028E0001A44019BDA60019BDA68019B9B689A425B
:1028F00003D3019B1A68019BDA60019BD968019B95
:102900001B6C1A460098FDF7D1FD00BF03B05DF8BF
:1029100004FB00B585B00190FEF766F9019B93F8C2
:1029200045308DF80F3013E0019B5B6A002B14D00B
:10293000019B24331846FEF7AFFE0346002B01D05F
:10294000FEF7F2FF9DF80F30013BDBB28DF80F3040
:102950009DF90F30002BE7DC00E000BF019BFF2258
:1029600083F84520FEF76CF9FEF73EF9019B93F8DA
:1029700044308DF80E3013E0019B1B69002B14D0FE
:10298000019B10331846FEF787FE0346002B01D04B
:10299000FEF7CAFF9DF80E30013BDBB28DF80E301A
:1029A0009DF90E30002BE7DC00E000BF019BFF2209
:1029B00083F84420FEF744F900BF05B05DF804FB3E
:1029C00000B585B00190FEF70FF9019B9B6B002BC2
:1029D00002D10123039301E000230393FEF730F9B2
:1029E000039B184605B05DF804FB000086B001901B
:1029F000009100230493019B002B0AD14FF0500358
:102A000083F31188BFF36F8FBFF34F8F039300BF22
:102A1000FEE7009B002B24D0002305931EE0174AFD
:102A2000059BDB0013445B68019A9A4205D1059B24
:102A3000DB00124A1344049313E0049B002B0AD1D9
:102A40000E4A059B52F83330002B04D1059BDB0066
:102A50000A4A13440493059B01330593059B072BF6
:102A6000DDD9049B002B05D0049B009A1A60049BBF
:102A7000019A5A6000BF06B0704700BFAC2E01201B
:102A800000B587B0039002910192039B0593FEF776
:102A9000ABF8059B93F844305BB2B3F1FF3F03D131
:102AA000059B002283F84420059B93F845305BB2D8
:102AB000B3F1FF3F03D1059B002283F84520FEF7C9
:102AC000BFF8059B9B6B002B06D1059B2433019A15
:102AD00002991846FEF79CFD0598FFF71AFF00BF04
:102AE00007B05DF804FB000008B50E4B1B680D4AEB
:102AF00043F4007313600B4B1B680A4A43F4806372
:102B00001360084B1B68074A43F48073136003206B
:102B100000F02AF90F2000F007F8FDF745FE00232A
:102B2000184608BD003C024000B583B00190134B2D
:102B30001A68134B1B7819464FF47A73B3FBF1F301
:102B4000B2FBF3F3184600F043F90346002B01D023
:102B500001230EE0019B0F2B0AD8002201994FF0B0
:102B6000FF3000F00BF9074A019B1360002300E0DF
:102B70000123184603B05DF804FB00BF00000020ED
:102B8000100000200C000020044B1B781A46044B58
:102B90001B681344024A136000BF704710000020F6
:102BA000EC2E0120014B1B6818467047EC2E0120CB
:102BB00000B585B00190FFF7F5FF0290019B0393EC
:102BC000039BB3F1FF3F05D0094B1B781A46039BCB
:102BD0001344039300BFFFF7E5FF0246029BD31A9D
:102BE000039A9A42F7D800BF00BF05B05DF804FB16
:102BF0001000002084B00190019B03F007030393B1
:102C00000B4BDB680293029A4FF6FF0313400293CB
:102C1000039B1A02029B134343F0BF6343F4003348
:102C20000293034A029BD36000BF04B0704700BF09
:102C300000ED00E0034BDB681B0A03F007031846B6
:102C4000704700BF00ED00E082B003468DF807300A
:102C50009DF90730002B0CDB9DF8073003F01F02B5
:102C600005499DF907305B09012000FA02F241F89D
:102C7000232000BF02B0704700E100E082B00346AD
:102C800000918DF807309DF90730002B0ADB009B7F
:102C9000DAB20C499DF907301201D2B20B4483F825
:102CA00000230BE0009BDAB207499DF8073003F0E0
:102CB0000F03043B1201D2B20B441A7600BF02B0DC
:102CC000704700BF00E100E000ED00E088B0039035
:102CD00002910192039B03F007030793079BC3F143
:102CE0000703042B28BF04230693079B0433062BFA
:102CF00002D9079B033B00E0002305934FF0FF320E
:102D0000069B02FA03F3DA43029B1A40059B9A40A2
:102D10004FF0FF31059B01FA03F3D943019B0B40B0
:102D20001343184608B0704700B583B00190019B6B
:102D3000013BB3F1807F01D301230FE0094A019BDE
:102D4000013B53600F214FF0FF30FFF797FF054B1A
:102D500000229A60034B07221A600023184603B032
:102D60005DF804FB10E000E000B583B0019001982D
:102D7000FFF740FF00BF03B05DF804FB00B587B06C
:102D80000346029101928DF80F3000230593FFF75F
:102D900051FF0590019A02990598FFF797FF0246A7
:102DA0009DF90F3011461846FFF768FF00BF07B0C6
:102DB0005DF804FB00B583B003468DF807309DF93C
:102DC00007301846FFF740FF00BF03B05DF804FB73
:102DD00000B583B001900198FFF7A6FF034618469F
:102DE00003B05DF804FB000000B587B0019000233C
:102DF0000593FFF7D7FE0490019B002B01D101231F
:102E000099E0019B022283F83520019B002283F880
:102E10003420019B1B681A68019B1B6822F0010289
:102E20001A600FE0FFF7BEFE0246049BD31A052B83
:102E300008D9019B20225A65019B032283F8352083
:102E4000032378E0019B1B681B6803F00103002B40
:102E5000E8D1019B1B681B680593059A384B13400A
:102E60000593019B5A68019B9B681A43019BDB6891
:102E70001A43019B1B691A43019B5B691A43019B1F
:102E80009B691A43019BDB691A43019B1B6A13432D
:102E9000059A13430593019B5B6A042B07D1019BA1
:102EA000DA6A019B1B6B1343059A13430593019B3D
:102EB0001B68059A1A60019B1B685B690593059B5B
:102EC00023F007030593019B5B6A059A134305935F
:102ED000019B5B6A042B17D1019B9B6A059A1343E4
:102EE0000593019BDB6A002B0ED0019800F0F2FAEB
:102EF0000346002B08D0019B40225A65019B01220A
:102F000083F83520012316E0019B1B68059A5A615E
:102F1000019800F0AFFA03460393019BDB6D3F225B
:102F20009A40039B9A60019B00225A65019B0122F3
:102F300083F835200023184607B05DF804FB00BF76
:102F40003F8010F000B587B003900291019200938A
:102F500000238DF81730039B9B6D0493039B93F81C
:102F60003430012B01D1022342E0039B012283F87C
:102F70003420039B93F83530DBB2012B2FD1039B18
:102F8000022283F83520039B00225A65009B019A98
:102F90000299039800F044FA039BDB6D3F229A40AC
:102FA000049B9A60039B1B681A68039B1B6842F092
:102FB00016021A60039B1B6C002B07D0039B1B6837
:102FC0001A68039B1B6842F008021A60039B1B6887
:102FD0001A68039B1B6842F001021A6006E0039B1B
:102FE000002283F8342002238DF817309DF8173023
:102FF000184607B05DF804FB00B585B00190019B51
:103000009B6D0393FFF7CEFD0290019B93F8353043
:10301000DBB2022B08D0019B80225A65019B002263
:1030200083F83420012352E0019B1B681A68019B3E
:103030001B6822F016021A60019B1B685A69019BEB
:103040001B6822F080025A61019B1B6C002B03D18C
:10305000019B9B6C002B07D0019B1B681A68019B8E
:103060001B6822F008021A60019B1B681A68019B0A
:103070001B6822F001021A6013E0FFF793FD02467D
:10308000029BD31A052B0CD9019B20225A65019B68
:10309000032283F83520019B002283F83420032388
:1030A00015E0019B1B681B6803F00103002BE4D1B2
:1030B000019BDB6D3F229A40039B9A60019B01229A
:1030C00083F83520019B002283F834200023184622
:1030D00005B05DF804FB82B00190019B93F8353098
:1030E000DBB2022B04D0019B80225A6501230CE045
:1030F000019B052283F83520019B1B681A68019B00
:103100001B6822F001021A600023184602B07047C3
:1031100000B587B00190002302938E4B1B688E4A46
:10312000A2FB03239B0A0593019B9B6D0493049BC5
:103130001B680393019BDB6D08229A40039B13409D
:10314000002B1AD0019B1B681B6803F00403002BA3
:1031500013D0019B1B681A68019B1B6822F00402B4
:103160001A60019BDB6D08229A40049B9A60019BC8
:103170005B6D43F00102019B5A65019BDB6D0122EF
:103180009A40039B1340002B12D0019B1B685B6984
:1031900003F08003002B0BD0019BDB6D01229A40D2
:1031A000049B9A60019B5B6D43F00202019B5A6590
:1031B000019BDB6D04229A40039B1340002B12D02D
:1031C000019B1B681B6803F00203002B0BD0019BC3
:1031D000DB6D04229A40049B9A60019B5B6D43F077
:1031E0000402019B5A65019BDB6D10229A40039BF0
:1031F0001340002B43D0019B1B681B6803F008039E
:10320000002B3CD0019BDB6D10229A40049B9A60FE
:10321000019B1B681B6803F48023002B18D0019BC3
:103220001B681B6803F40023002B08D1019B1B6C57
:10323000002B24D0019B1B6C019898471FE0019B39
:103240009B6C002B1BD0019B9B6C0198984716E050
:10325000019B1B681B6803F48073002B07D1019B43
:103260001B681A68019B1B6822F008021A60019B08
:103270001B6C002B03D0019B1B6C01989847019B92
:10328000DB6D20229A40039B1340002B00F08E80C0
:10329000019B1B681B6803F01003002B00F0868065
:1032A000019BDB6D20229A40049B9A60019B93F85E
:1032B0003530DBB2052B36D1019B1B681A68019BA8
:1032C0001B6822F016021A60019B1B685A69019B59
:1032D0001B6822F080025A61019B1B6C002B03D1FA
:1032E000019B9B6C002B07D0019B1B681A68019BFC
:1032F0001B6822F008021A60019BDB6D3F229A4096
:10330000049B9A60019B012283F83520019B0022D7
:1033100083F83420019B1B6D002B7DD0019B1B6D1E
:103320000198984778E0019B1B681B6803F4802391
:10333000002B1CD0019B1B681B6803F40023002B8F
:103340000CD1019B5B6C002B30D0019B5B6C019816
:1033500098472BE000000020B5814E1B019BDB6BE2
:10336000002B23D0019BDB6B019898471EE0019B4B
:103370001B681B6803F48073002B0FD1019B1B6833
:103380001A68019B1B6822F010021A60019B01223F
:1033900083F83520019B002283F83420019BDB6BEE
:1033A000002B03D0019BDB6B01989847019B5B6D61
:1033B000002B32D0019B5B6D03F00103002B22D068
:1033C000019B052283F83520019B1B681A68019B2D
:1033D0001B6822F001021A60029B01330293059AD6
:1033E0009A4207D3019B1B681B6803F00103002B63
:1033F000F2D100E000BF019B012283F83520019B40
:10340000002283F83420019BDB6C002B05D0019B4C
:10341000DB6C0198984700E000BF07B05DF804FB43
:1034200084B00390029101920093039B1B681A6879
:10343000039B1B6822F480221A60039B1B68009A7E
:103440005A60039B9B68402B08D1039B1B68019A21
:103450009A60039B1B68029ADA6007E0039B1B6873
:10346000029A9A60039B1B68019ADA6000BF04B05D
:103470007047000084B00190019B1B68DBB2103BD9
:10348000124AA2FB03231B090393114A039B134413
:103490001B781A46019BDA65039B032B09D9019B14
:1034A0001B6823F47F7323F003031A1D019B9A65A5
:1034B00007E0019B1B6823F47F7323F00303019A49
:1034C0009365019B9B6D184604B07047ABAAAAAAEE
:1034D000BC4E000884B0019000238DF80F30019B92
:1034E0009B6A0293019B9B69002B20D1029B032BBB
:1034F0005CD801A252F823F0093500081D350008F8
:1035000009350008AD350008019BDB6A03F08073C4
:10351000002B4DD001238DF80F3049E0019BDB6A71
:10352000B3F1C07F46D101238DF80F3042E0019BFB
:103530009B69B3F5005F24D1029B032B3CD801A209
:1035400052F823F0553500085D3500085535000860
:103550007135000801238DF80F3034E0019BDB6AE0
:1035600003F08073002B29D001238DF80F3025E064
:10357000019BDB6AB3F1C07F22D101238DF80F30AC
:103580001EE0029B022B03D9029B032B04D01AE0FE
:1035900001238DF80F3016E0019BDB6A03F0807386
:1035A000002B0FD001238DF80F300BE000BF0AE095
:1035B00000BF08E000BF06E000BF04E000BF02E07B
:1035C00000BF00E000BF9DF80F30184604B0704700
:1035D00086B001900091002305936FE1009B1A686B
:1035E0000121059B01FA03F313400393039B002B76
:1035F00000F06181009B5B6803F00303012B05D0A1
:10360000009B5B6803F00303022B30D1019B9B6896
:103610000493059B5B00032202FA03F3DB43049A45
:1036200013400493009BDA68059B5B0002FA03F3E6
:10363000049A13430493019B049A9A60019B5B686C
:1036400004930122059B02FA03F3DB43049A13401F
:103650000493009B5B681B0903F00102059B02FABF
:1036600003F3049A13430493019B049A5A60009B4A
:103670005B6803F00303032B17D0019BDB68049303
:10368000059B5B00032202FA03F3DB43049A134019
:103690000493009B9A68059B5B0002FA03F3049A6B
:1036A00013430493019B049ADA60009B5B6803F068
:1036B0000303022B23D1059BDA08019B083253F840
:1036C00022300493059B03F007039B000F2202FAAC
:1036D00003F3DB43049A13400493009B1A69059B90
:1036E00003F007039B0002FA03F3049A13430493C5
:1036F000059BDA08019B0832049943F82210019BCC
:103700001B680493059B5B00032202FA03F3DB436F
:10371000049A13400493009B5B6803F00302059B2B
:103720005B0002FA03F3049A13430493019B049A87
:103730001A60009B5B6803F44033002B00F0BB80F1
:1037400000230293634B5B6C624A43F480435364EF
:10375000604B5B6C03F480430293029B5E4A059BC3
:103760009B08023352F823300493059B03F00303B4
:103770009B000F2202FA03F3DB43049A13400493E5
:10378000019B564A934231D0019B554A93422BD01C
:10379000019B544A934225D0019B534A93421FD028
:1037A000019B524A934219D0019B514A934213D034
:1037B000019B504A93420DD0019B4F4A934207D040
:1037C000019B4E4A934201D1082310E009230EE0E9
:1037D00007230CE006230AE0052308E0042306E0A3
:1037E000032304E0022302E0012300E00023059A02
:1037F00002F00302920093401A46049B1343049381
:103800003549059B9B080233049A41F823203C4B21
:103810001B680493039BDB43049A13400493009BAF
:103820005B6803F48033002B03D0049A039B13439B
:103830000493334A049B1360314B5B680493039BEE
:10384000DB43049A13400493009B5B6803F400334A
:10385000002B03D0049A039B13430493284A049B30
:103860005360274B9B680493039BDB43049A1340EC
:103870000493009B5B6803F48013002B03D0049A2D
:10388000039B134304931E4A049B93601C4BDB6809
:103890000493039BDB43049A13400493009B5B68EF
:1038A00003F40013002B03D0049A039B13430493E7
:1038B000134A049BD360059B01330593009B1A6850
:1038C000059B22FA03F3002B7FF488AE00BF00BFF4
:1038D00006B0704700380240003801400000024046
:1038E0000004024000080240000C024000100240A8
:1038F0000014024000180240001C02400020024058
:10390000003C014082B001900B46ADF802301346F6
:103910008DF801309DF80130002B04D0BDF8022055
:10392000019B9A6104E0BDF802301A04019B9A6180
:1039300000BF02B0704784B001900B46ADF8023072
:10394000019B5B690393BDF80220039B13401A049B
:10395000039BD943BDF802300B401A43019B9A6187
:1039600000BF04B07047000000B58BB00190019B10
:10397000002B01D1012337E2019B1B6803F00103F7
:10398000002B50D09E4B9B6803F00C03042B0CD0F3
:103990009B4B9B6803F00C03082B12D1984B5B6880
:1039A00003F48003B3F5800F0BD1954B1B6803F430
:1039B0000033002B36D0019B5B68002B32D10123F2
:1039C00012E2019B5A688F4BD2B21A70019B5B685E
:1039D000002B13D0FFF7E6F8089008E0FFF7E2F8B5
:1039E0000246089BD31A642B01D90323FCE1844BC4
:1039F0001B6803F40033002BF0D014E0FFF7D2F87B
:103A0000089008E0FFF7CEF80246089BD31A642B13
:103A100001D90323E8E17A4B1B6803F40033002B40
:103A2000F0D100E000BF019B1B6803F00203002BF4
:103A300077D0734B9B6803F00C03002B0BD0704BBB
:103A40009B6803F00C03082B26D16D4B5B6803F4D5
:103A50008003002B20D16A4B1B6803F00203002B6C
:103A600005D0019BDB68012B01D00123BCE1644B35
:103A70001B6823F0F802019B1B69F8210691069947
:103A800091FAA1F105910599B1FA81F1C9B28B4082
:103A90005B4913430B6044E0019BDB68002B2AD099
:103AA000594B01221A60FFF77DF8089008E0FFF7F4
:103AB00079F80246089BD31A022B01D9032393E11C
:103AC0004F4B1B6803F00203002BF0D04C4B1B68DC
:103AD00023F0F802019B1B69F8210491049991FAE3
:103AE000A1F103910399B1FA81F1C9B28B40444924
:103AF00013430B6015E0444B00221A60FFF752F8A5
:103B0000089008E0FFF74EF80246089BD31A022BF4
:103B100001D9032368E13A4B1B6803F00203002B31
:103B2000F0D1019B1B6803F00803002B30D0019BF0
:103B30005B69002B16D0354B01221A60FFF732F873
:103B4000089008E0FFF72EF80246089BD31A022BD4
:103B500001D9032348E12A4B5B6F03F00203002BDA
:103B6000F0D015E0294B00221A60FFF71BF80890EF
:103B700008E0FFF717F80246089BD31A022B01D979
:103B8000032331E11E4B5B6F03F00203002BF0D1E6
:103B9000019B1B6803F00403002B00F088800023C6
:103BA0008DF82730164B1B6C03F08053002B10D17F
:103BB00000230293124B1B6C114A43F08053136491
:103BC0000F4B1B6C03F080530293029B01238DF873
:103BD00027300F4B1B680E4A43F4807313600C4B65
:103BE0001B6803F48073002B23D1094B1B68084A20
:103BF00043F480731360FEF7D5FF089013E000BF15
:103C0000003802400238024000004742800E47421E
:103C100000700040FEF7C6FF0246089BD31A022B35
:103C200001D90323E0E0724B1B6803F48073002B7F
:103C3000F0D0019B9A686F4BD2B21A70019B9B68BF
:103C4000002B15D0FEF7AEFF08900AE0FEF7AAFFA2
:103C50000246089BD31A41F28832934201D90323CA
:103C6000C2E0654B1B6F03F00203002BEED014E0A3
:103C7000FEF798FF08900AE0FEF794FF0246089BC3
:103C8000D31A41F28832934201D90323ACE05A4B54
:103C90001B6F03F00203002BEED19DF82730012BA0
:103CA00005D1554B1B6C544A23F080531364019B80
:103CB0009B69002B00F097804F4B9B6803F00C032F
:103CC000082B61D0019B9B69022B46D14B4B0022F4
:103CD0001A60FEF767FF089008E0FEF763FF0246F0
:103CE000089BD31A642B01D903237DE0424B1B6848
:103CF00003F00073002BF0D13F4B5A68404B134048
:103D0000019AD169019A126A1143019A526A920189
:103D10001143019AD26A12061143019A926A52081B
:103D2000013A12040A43344913434B60334B0122D6
:103D30001A60FEF737FF089008E0FEF733FF0246EF
:103D4000089BD31A642B01D903234DE02A4B1B682F
:103D500003F00073002BF0D045E0284B00221A60DE
:103D6000FEF720FF089008E0FEF71CFF0246089BC4
:103D7000D31A642B01D9032336E01F4B1B6803F0D1
:103D80000073002BF0D12EE0019B9B69012B01D128
:103D9000012329E0184B5B680793079B03F480021B
:103DA000019BDB699A421CD1079B03F03F02019BF8
:103DB0001B6A9A4215D1079B9B09C3F30802019B1A
:103DC0005B6A9A420DD1079B03F44032019B9B6AC8
:103DD0009A4206D1079B03F07062019BDB6A9A420C
:103DE00001D0012300E0002318460BB05DF804FB6E
:103DF00000700040703802400038024060004742C6
:103E00000080BCF000B587B001900091019B002BB1
:103E100001D10123D2E06B4B1B6803F00F03009A22
:103E20009A420CD9674B009AD2B21A70654B1B6844
:103E300003F00F03009A9A4201D00123BEE0019BD8
:103E40001B6803F00203002B20D0019B1B6803F0CA
:103E50000403002B05D05C4B9B685B4A43F4E053A2
:103E60009360019B1B6803F00803002B05D0564BA1
:103E70009B68554A43F460439360534B9B6823F01F
:103E8000F002019B9B68504913438B60019B1B68A8
:103E900003F00103002B40D0019B5B68012B07D18D
:103EA000494B1B6803F40033002B15D1012385E037
:103EB000019B5B68022B07D1434B1B6803F0007327
:103EC000002B09D1012379E03F4B1B6803F002036B
:103ED000002B01D1012371E03B4B9B6823F00302CF
:103EE000019B5B68384913438B60FEF75BFE0590CE
:103EF0000AE0FEF757FE0246059BD31A41F28832CC
:103F0000934201D9032359E02F4B9B6803F00C0225
:103F1000019B5B689B009A42EBD12A4B1B6803F024
:103F20000F03009A9A420CD2264B009AD2B21A7012
:103F3000244B1B6803F00F03009A9A4201D001231F
:103F40003CE0019B1B6803F00403002B08D01E4BD0
:103F50009B6823F4E052019BDB681B4913438B6091
:103F6000019B1B6803F00803002B09D0164B9B68CC
:103F700023F46042019B1B69DB00134913438B60F0
:103F800000F02AF80146104B9B6803F0F003F02282
:103F90000492049A92FAA2F20392039AB2FA82F27B
:103FA000D2B2D340094AD35C21FA03F3084A136022
:103FB000084B1B681846FEF7B7FD0023184607B0EC
:103FC0005DF804FB003C024000380240A44E0008AB
:103FD000000000200C0000202DE9F04F93B00023DA
:103FE0000F930023119300230E9300231093784B1B
:103FF0009B6803F00C03082B0DD0082B00F2E08027
:10400000002B02D0042B03D0DAE0724B1093DAE0DD
:10401000714B1093D7E06E4B5B6803F03F030F9337
:104020006B4B5B6803F48003002B5ED0684B5B68CE
:104030009B09002200930192009BC3F308030293A3
:1040400000230393DDE9024522462B464FF0000092
:104050004FF00001590141EAD261500102460B467E
:10406000204629460446B2EB040A0C4663EB040BD7
:104070004FF000024FF000034FEA8B1343EA9A63BC
:104080004FEA8A12B2EB0A0663EB0B074FF000020D
:104090004FF00003FB0043EA5673F20016461F463A
:1040A0000346F3180A930B4647EB03030B934FF0B9
:1040B00000024FF00003DDE90A4529464B02204685
:1040C0002946044643EAD45301464A02104619469B
:1040D0000F9B002204930592DDE90423FCF778F896
:1040E00002460B46134611935CE0394B5B689B0913
:1040F000002218461146C0F30803069300230793D5
:10410000DDE9066732463B464FF000004FF0000104
:10411000590141EAD261500102460B463046394608
:104120000646B2EB06080E4663EB06094FF00002A6
:104130004FF000034FEA891343EA98634FEA88126D
:10414000B2EB080463EB09054FF000024FF00003E7
:10415000EB0043EA5473E20014461D460346E3189D
:104160000C930B4645EB03030D934FF000024FF009
:104170000003DDE90C4529468B022046294604460A
:1041800043EA945301468A02104619460F9B0022C7
:1041900008930992DDE90823FCF71AF802460B465A
:1041A000134611930A4B5B681B0C03F003030133A6
:1041B0005B000E93119A0E9BB2FBF3F3109302E097
:1041C000044B109300BF109B184613B0BDE8F08F4E
:1041D000003802400024F40000127A00014B1B68F2
:1041E000184670470000002000B583B0FFF7F6FFC7
:1041F00001460C4B9B6803F4E0534FF4E0520192EC
:10420000019A92FAA2F20092009AB2FA82F2D2B223
:10421000D340054AD35C21FA03F3184603B05DF896
:1042200004FB00BF00380240B44E000800B583B064
:10423000FFF7D4FF01460C4B9B6803F460434FF437
:1042400060420192019A92FAA2F20092009AB2FAA6
:1042500082F2D2B2D340054AD35C21FA03F3184666
:1042600003B05DF804FB00BF00380240B44E000804
:1042700000B583B00190019B002B01D101233FE0E9
:10428000019B93F83D30DBB2002B06D1019B00224D
:1042900083F83C200198FCF7A9FA019B242283F8BB
:1042A0003D20019B1B68DA68019B1B6822F40052C9
:1042B000DA60019800F03AFC019B1B681A69019BC7
:1042C0001B6822F490421A61019B1B685A69019B8A
:1042D0001B6822F02A025A61019B1B68DA68019B65
:1042E0001B6842F40052DA60019B00221A64019BB1
:1042F000202283F83D20019B202283F83E200023CA
:10430000184603B05DF804FB00B587B00390029136
:104310001346ADF80630039B93F83D30DBB2202BFB
:1043200056D1029B002B03D0BDF80630002B01D1E3
:1043300001234EE0039B93F83C30012B01D1022373
:1043400047E0039B012283F83C20029A039B1A62F8
:10435000039BBDF806209A84039BBDF80620DA84EF
:10436000039B00221A64039B212283F83D20039BB8
:104370005B6B1A4ADA63039B5B6B194A1A64039BF3
:104380005B6B184ADA64039B5B6B00221A6502AB15
:104390000593039B586B059B1968039B1B680433AB
:1043A0001A46BDF80630FEF7CDFD039B1B686FF083
:1043B00040021A60039B002283F83C20039B1B6889
:1043C0005A69039B1B6842F080025A61002300E097
:1043D0000223184607B05DF804FB00BF85470008BC
:1043E000D5470008EF47000800B58BB00190019B4E
:1043F0001B681B680993019B1B68DB680893019B82
:104400001B685B6907930023069300230593099BB0
:1044100003F00F030693069B002B0DD1099B03F0BD
:104420002003002B08D0089B03F02003002B03D0AF
:10443000019800F0D3FA83E1069B002B00F0B180D5
:10444000079B03F00103002B05D1089B03F4907335
:10445000002B00F0A680099B03F00103002B0AD07B
:10446000089B03F48073002B05D0019B1B6C43F069
:104470000102019B1A64099B03F00403002B0AD07C
:10448000079B03F00103002B05D0019B1B6C43F03D
:104490000202019B1A64099B03F00203002B0AD05D
:1044A000079B03F00103002B05D0019B1B6C43F01D
:1044B0000402019B1A64099B03F00803002B0FD030
:1044C000089B03F02003002B04D1079B03F001039A
:1044D000002B05D0019B1B6C43F00802019B1A6462
:1044E000019B1B6C002B00F02681099B03F020032D
:1044F000002B07D0089B03F02003002B02D001986B
:1045000000F06CFA019B1B685B6903F04003402BD1
:104510000CBF01230023DBB20593019B1B6C03F04E
:104520000803002B02D1059B002B31D0019800F02D
:10453000B8F9019B1B685B6903F04003402B23D152
:10454000019B1B685A69019B1B6822F040025A615B
:10455000019B9B6B002B13D0019B9B6B7A4A1A65C6
:10456000019B9B6B1846FEF7B6FD0346002B16D049
:10457000019B9B6B1B6D019A926B104698470EE056
:10458000019800F0F2F80AE0019800F0EEF806E079
:10459000019800F0EAF8019B00221A64CBE000BF0A
:1045A000C9E0019B1B6B012B40F0A980099B03F024
:1045B0001003002B00F0A380089B03F01003002BD6
:1045C00000F09D8000230393019B1B681B680393ED
:1045D000019B1B685B680393039B019B1B685B69E2
:1045E00003F04003402B53D1019B9B6B1B685B681E
:1045F000ADF81030BDF81030002B00F09E80019B0C
:104600009B8DBDF810209A4280F09780019BBDF8E9
:104610001020DA85019B9B6BDB69B3F5807F2BD083
:10462000019B1B68DA68019B1B6822F48072DA60C8
:10463000019B1B685A69019B1B6822F001025A61A9
:10464000019B1B685A69019B1B6822F040025A615A
:10465000019B202283F83E20019B00221A63019BCC
:104660001B68DA68019B1B6822F01002DA60019B6C
:104670009B6B1846FEF7C0FC019B9A8D019BDB8D5E
:104680009BB2D31A9BB21946019800F073F854E01C
:10469000019B9A8D019BDB8D9BB2D31AADF8123032
:1046A000019BDB8D9BB2002B49D0BDF81230002B53
:1046B00045D0019B1B68DA68019B1B6822F490724D
:1046C000DA60019B1B685A69019B1B6822F001029A
:1046D0005A61019B202283F83E20019B00221A632D
:1046E000019B1B68DA68019B1B6822F01002DA60EC
:1046F000BDF812301946019800F03CF81FE0099B04
:1047000003F08003002B08D0089B03F08003002BEC
:1047100003D0019800F000F912E0099B03F0400378
:10472000002B0DD0089B03F04003002B08D001980C
:1047300000F03DF904E000BF02E000BF00E000BF70
:104740000BB05DF804FB00BFF348000882B0019095
:1047500000BF02B0704782B0019000BF02B0704746
:1047600082B0019000BF02B0704782B0019000BFDC
:1047700002B0704782B001900B46ADF8023000BF26
:1047800002B0704700B585B00190019B9B6B03930D
:10479000019B1B681B6803F48073002B13D1039BE0
:1047A0000022DA84039B1B685A69039B1B6822F072
:1047B00080025A61039B1B68DA68039B1B6842F006
:1047C0004002DA6002E00398FFF7C0FF00BF05B0C7
:1047D0005DF804FB00B585B00190019B9B6B0393D2
:1047E0000398FFF7B8FF00BF05B05DF804FB00B504
:1047F00085B0019000230393019B9B6B0293029B66
:104800001B685B6903F08003802B0CBF012300232E
:10481000DBB20393029B93F83D30DBB2212B08D12E
:10482000039B002B05D0029B0022DA84029800F043
:1048300027F8029B1B685B6903F04003402B0CBF09
:1048400001230023DBB20393029B93F83E30DBB2DB
:10485000222B08D1039B002B05D0029B0022DA8576
:10486000029800F01EF8029B1B6C43F01002029BA2
:104870001A640298FFF779FF00BF05B05DF804FBEA
:1048800082B00190019B1B68DA68019B1B6822F0D3
:10489000C002DA60019B202283F83D2000BF02B0F5
:1048A000704782B00190019B1B68DA68019B1B680E
:1048B00022F49072DA60019B1B685A69019B1B68A5
:1048C00022F001025A61019B1B6B012B07D1019B56
:1048D0001B68DA68019B1B6822F01002DA60019BFA
:1048E000202283F83E20019B00221A6300BF02B001
:1048F000704700B585B00190019B9B6B0393039BB0
:104900000022DA85039B0022DA840398FFF72DFF4B
:1049100000BF05B05DF804FB84B00190019B93F8E3
:104920003D30DBB2212B3ED1019B9B68B3F5805F0C
:1049300014D1019B1B69002B10D1019B1B6A0393AF
:10494000039B1B881A46019B1B68C2F308025A602E
:10495000019B1B6A9A1C019B1A6208E0019B1B6A5F
:10496000591C019A11621A78019B1B685A60019BBD
:10497000DB8C9BB2013B9BB2019A1946D184002B80
:104980000FD1019B1B68DA68019B1B6822F0800233
:10499000DA60019B1B68DA68019B1B6842F04002E9
:1049A000DA60002300E00223184604B0704700B527
:1049B00083B00190019B1B68DA68019B1B6822F0A1
:1049C0004002DA60019B202283F83D200198FFF726
:1049D000BDFE0023184603B05DF804FB00B587B0A8
:1049E0000190019B93F83E30DBB2222B40F099807E
:1049F000019B9B68B3F5805F17D1019B1B69002B5E
:104A000013D100230593019B9B6A0493019B1B68B0
:104A10005B689BB2C3F308039AB2049B1A80019BA4
:104A20009B6A9A1C019B9A6226E0019B9B6A0593F4
:104A300000230493019B9B68B3F5805F07D0019B23
:104A40009B68002B0AD1019B1B69002B06D1019B9F
:104A50001B685B68DAB2059B1A7008E0019B1B6853
:104A60005B68DBB203F07F03DAB2059B1A70019B2F
:104A70009B6A5A1C019B9A62019BDB8D9BB2013B96
:104A80009BB2019A1946D185002B48D1019B1B6826
:104A9000DA68019B1B6822F02002DA60019B1B6828
:104AA000DA68019B1B6822F48072DA60019B1B6844
:104AB0005A69019B1B6822F001025A61019B202266
:104AC00083F83E20019B1B6B012B23D1019B00220D
:104AD0001A63019B1B68DA68019B1B6822F01002B5
:104AE000DA60019B1B681B6803F01003102B0AD1CE
:104AF00000230393019B1B681B680393019B1B68A6
:104B00005B680393039B019B9B8D19460198FFF7FC
:104B100031FE02E00198FFF723FE002302E00023AC
:104B200000E00223184607B05DF804FB00B585B02D
:104B30000190019B1B681B6923F44051019BDA68BB
:104B4000019B1B680A431A61019B9A68019B1B69C0
:104B50001A43019B5B691A43019BDB691343029370
:104B6000019B1B68DB6823F4164323F00C03019AB6
:104B7000126802990B43D360019B1B685B6923F4A5
:104B80004071019B9A69019B1B680A435A61019B12
:104B90001B68584A934204D0019B1B68564A9342B3
:104BA00003D1FFF743FB039002E0FFF71DFB0390E7
:104BB000019BDB69B3F5004F4CD1039A13469B0070
:104BC00013449A001A44019B5B685B00B2FBF3F349
:104BD0004A4AA2FB03235B091901039A13469B006F
:104BE00013449A001A44019B5B685B00B2FBF3F22A
:104BF000424BA3FB02035B09642000FB03F3D31ABF
:104C0000DB0032333D4AA2FB03235B095B0003F464
:104C1000F8731944039A13469B0013449A001A44EC
:104C2000019B5B685B00B2FBF3F2344BA3FB020316
:104C30005B09642000FB03F3D31ADB0032332F4AF5
:104C4000A2FB03235B0903F00702019B1B680A44D4
:104C50009A604AE0039A13469B0013449A001A4450
:104C6000019B5B689B00B2FBF3F3244AA2FB032386
:104C70005B091901039A13469B0013449A001A44D6
:104C8000019B5B689B00B2FBF3F21C4BA3FB02038E
:104C90005B09642000FB03F3D31A1B013233174A6C
:104CA000A2FB03235B0903F0F0031944039A1346A4
:104CB0009B0013449A001A44019B5B689B00B2FB63
:104CC000F3F20E4BA3FB02035B09642000FB03F32A
:104CD000D31A1B013233094AA2FB03235B0903F0F9
:104CE0000F02019B1B680A449A6000BF05B05DF883
:104CF00004FB00BF00100140001401401F85EB5170
:104D000070B50D4E0D4D761BB61006D0002455F82B
:104D1000043B01349847A642F9D1094E094D00F0F1
:104D200093F8761BB61006D0002455F8043B0134E6
:104D30009847A642F9D170BDCC4E0008CC4E000871
:104D4000D04E0008CC4E0008830730B548D0541E22
:104D5000002A3FD00346CAB201E0013C3AD303F82F
:104D6000012B9D07F9D1032C2DD9CDB245EA05259C
:104D70000F2C45EA054536D9A4F1100222F00F0C9C
:104D800003F1200EE6444FEA121C03F1100242E93F
:104D9000045542E9025510327245F8D10CF1010276
:104DA00014F00C0F03EB021204F00F0C13D0ACF153
:104DB000040323F003030433134442F8045B9342D7
:104DC000FBD10CF003042CB1CAB21C4403F8012B34
:104DD0009C42FBD130BD64461346002CF4D1F9E768
:104DE00003461446BFE71A46A446E0E720F0030155
:104DF00010F00300C0F1000051F8043B00F1040C76
:104E00004FEACC0C6FF000021CBF22FA0CF21343E5
:104E10004FF0010C4CEA0C2C4CEA0C4CA3EB0C02AE
:104E200022EA030212EACC1204BF51F8043B043018
:104E3000F4D0C2F1000102EA0102B2FA82F2C2F138
:104E40001F0200EBD2007047F8B500BFF8BC08BCE9
:104E50009E467047F8B500BFF8BC08BC9E46704738
:104E600048656C6C6F20776F726C642066726F6D32
:104E7000204672656552544F53210D0A0000000010
:104E80004C6564426C696E6B7900000049444C4586
:104E900000000000546D722053766300546D72510F
:104EA00000000000000000000000000001020304F8
:104EB000060708090000000001020304000610169E
:044EC00000061016C2
:084EC4003CB3FF7F0100000078
:044ECC00B501000824
:044ED0009101000844
:104ED4000024F400AAAAAAAA0400000010000000FA
:044EE40001000000C9
:04000005080009B531
:00000001FF
