:020000040800F2
:1000000000000220798E0008538E0008578E0008E9
:100010005B8E00085F8E0008638E00080000000001
:10002000000000000000000000000000518F0008E8
:10003000678E000800000000D19000086B8E000859
:10004000C98E0008C98E0008C98E0008C98E000834
:10005000C98E0008C98E0008C98E0008C98E000824
:10006000C98E0008C98E0008C98E0008C98E000814
:1000700061260008C98E000871260008C98E000894
:10008000C98E0008C98E0008C98E0008C98E0008F4
:10009000C98E0008C98E0008C98E0008C98E0008E4
:1000A000C98E0008C98E0008C98E0008C98E0008D4
:1000B000C98E0008C98E0008C98E0008C98E0008C4
:1000C000C98E0008C98E0008C98E0008C98E0008B4
:1000D000C98E0008C98E0008C98E00088126000854
:1000E00091260008C98E0008C98E0008C98E000834
:1000F000C98E0008C98E0008C98E0008C98E000884
:10010000C98E0008C98E0008C98E0008C98E000873
:10011000C98E0008C98E0008C98E0008C98E000863
:10012000C98E0008C98E0008C98E0008C98E000853
:10013000C98E000839510108C98E0008C98E00080F
:10014000C98E0008C98E0008C98E0008C98E000833
:10015000C98E0008C98E0008C98E0008C98E000823
:10016000C98E0008C98E0008C98E0008C98E000813
:10017000C98E0008C98E0008C98E00080000000062
:04018000C98E00081C
:1001900010B5054C237833B9044B13B10448AFF3C1
:1001A00000800123237010BD600A002000000000C1
:1001B00020F6010808B5034B1BB103490348AFF310
:1001C000008008BD00000000640A002020F601083D
:1001D0004FEA4102B2F1E04324BFB3F5001CDCF169
:1001E000FE5C0DD901F0004C4FEAC0024CEA5070A1
:1001F000B2F1004F40EB830008BF20F001007047D0
:1002000011F0804F21D113F13872BCBF01F00040D2
:10021000704741F480114FEA5252C2F11802C2F104
:10022000200C10FA0CF320FA02F018BF40F0010085
:100230004FEAC1234FEAD32303FA0CFC40EA0C0037
:1002400023FA02F34FEA4303CCE77FEA625307D174
:1002500050EA01331EBF4FF0FE4040F440007047AB
:1002600001F0004040F0FE4040F40000704700BF45
:100270004FF0FF3C06E000BF4FF0010C02E000BF72
:100280004FF0010C4DF804CD4FEA40024FEA410314
:100290007FEA226C18BF7FEA236C11D001B052EACA
:1002A000530C18BF90EA010F58BFB2EB030088BF90
:1002B000C81738BF6FEAE17018BF40F001007047FF
:1002C0007FEA226C02D15FEA402C05D17FEA236CE1
:1002D000E4D15FEA412CE1D05DF8040B704700BF28
:1002E000844608466146FFE70FB5FFF7C9FF0028BF
:1002F00048BF10F1000F0FBD4DF808EDFFF7F4FFF8
:100300000CBF012000205DF808FB00BF4DF808ED90
:10031000FFF7EAFF34BF012000205DF808FB00BFB3
:100320004DF808EDFFF7E0FF94BF012000205DF8D5
:1003300008FB00BF4DF808EDFFF7D2FF94BF012086
:1003400000205DF808FB00BF4DF808EDFFF7C8FF7F
:1003500034BF012000205DF808FB00BF53B94AB943
:10036000002908BF00281CBF4FF0FF314FF0FF30BD
:1003700000F060B9ADF1080C6DE904CE00F006F8AC
:10038000DDF804E0DDE9022304B070472DE9F04F09
:1003900007468C46084615463C461946099E002BE2
:1003A00040F0C6808242B2FA82F746D94FB1C7F117
:1003B000200E24FA0EFE00FA07F3BD404EEA030CAD
:1003C000BC404FEA1548BCFBF8F91FFA85FE08FB54
:1003D00019C309FB0EFA220C42EA03439A4528D9B5
:1003E000EB1809F1FF3004D29A4502D9A9F10200B5
:1003F0002B44A3EB0A03B3FBF8F208FB123302FB16
:100400000EFEA4B244EA0344A64514D92C1902F105
:10041000FF3303D2A64501D9931E2C44A4EB0E044E
:1004200043EA00401EB10023FC4034607360BDE825
:10043000F08F4846DDE71346F0E702B9FFDE87BBE1
:100440000121831A4FEA154EB3FBFEFCAAB20EFB44
:100450001C330CFB02F8200C40EA0343984563D997
:10046000EB180CF1FF3004D2984502D9ACF1020030
:100470002B44A3EB0803B3FBFEFC0EFB1C330CFB6D
:1004800002F2A4B244EA0344A2424FD92C190CF15F
:10049000FF3304D2A24202D9ACF102032C44A41AC5
:1004A000BEE7C7F1200CBD4020FA0CF800FA07F3B4
:1004B00024FA0CFC4FEA154E4CEA0302B8FBFEFC92
:1004C000ABB20EFB1C800CFB03F9110C41EA00409F
:1004D000814504FA07F423D928180CF1FF3104D21E
:1004E000814502D9ACF102012844A0EB0900B0FB20
:1004F000FEFC0EFB1C000CFB03F892B242EA004328
:1005000098450FD9EB180CF1FF3204D2984502D967
:10051000ACF102022B44A3EB080342EA014191E74C
:100520006146E2E76246F6E76046A2E76346B6E761
:10053000834205D90EB1C6E900700021084676E76E
:10054000B3FA83F181B9834201D3BA420AD8BC1A03
:1005500060EB030301209C46002E68D0C6E9004CE6
:10056000002164E70846F7E7C1F1200C8B4022FA2E
:100570000CF41C4320FA0CFB4FEA1449BBFBF9F8BE
:100580001FFA84FE09FB18BB08FB0EFA02FA01F5FC
:1005900000FA01F327FA0CF213431A0C42EA0B4259
:1005A000924507FA01F73ED9A21808F1FF3004D2AC
:1005B000924502D9A8F102002244A2EB0A02B2FB42
:1005C000F9F809FB182208FB0EFE9BB243EA02422F
:1005D00096452AD9A21808F1FF3304D2964502D9CC
:1005E000A8F10203224443EA0040A0FB0593A2EBDA
:1005F0000E029A42CE46984602D306D14F4504D207
:10060000B9EB050E63EB0408013886B1B7EB0E03B6
:1006100062EB080707FA0CFCCB404CEA0303CF401F
:10062000C6E900379CE74046C7E74346DBE731466B
:10063000FDE60000704700BF844641EA000313F066
:10064000030349D1403A23D30B6803604B684360EE
:100650008B688360CB68C3600B6903614B6943613E
:100660008B698361CB69C3610B6A03624B6A436226
:100670008B6A8362CB6AC3620B6B03634B6B43630E
:100680008B6B8363CB6BC36340304031403ADBD22A
:1006900030320BD30B6803604B6843608B68836018
:1006A000CB68C36010301031103AF3D20C3205D34E
:1006B00051F8043B40F8043B043AF9D2043208D024
:1006C000D2071CBF11F8013B00F8013B01D30B8896
:1006D00003806046704700BF082A13D38B07B1D050
:1006E00010F00303AED0C3F10403D21ADB071CBF22
:1006F00011F8013B00F8013BA4D331F8023B20F88C
:10070000023B9FE7043AD9D3013A11F8013B00F8C4
:10071000013BF9D20B7803704B7843708B78837070
:100720006046704780EA010C1CF0030F37D110F0CF
:10073000030C20F0030021F0030150F8042B08BF44
:1007400051F8043B0ED08CF0030C6FF07F434FEA5E
:10075000CC0C23FA0CFC51F8043B42EA0C0243EAAD
:100760000C0300BFA2F1013C9A4201BF2CEA020C2B
:100770001CF0803F50F8042B51F8043BF2D04FEAB4
:1007800002604FEA1222012828BFB0EB036F08BFB6
:100790001B0AF4D003F0FF03000EC01A704710F0DC
:1007A000030F0AD010F8012B11F8013B012A28BFD2
:1007B0009A42F4D0A2EB030070474DF8045D50F864
:1007C000042B01F0030521F0030151F8043B022D35
:1007D00026D04DD822F07F45B5EB132FA2F1013C76
:1007E0002CEA020C0DD11CF0803C08BF51F8043BF0
:1007F0000AD185EA0205B5EB036F0CD150F8042B42
:10080000E8E74FEA13235BE03CF07F4C54D10B78D0
:100810004FEA126554E04FEA126503F0FF034FE020
:100820004FEA0245A2F1013C4FEA15452CEA020CC1
:10083000B5EB134F18D11CF0803C08BF51F8043BB6
:1008400007D185EA0205B5EB034F09D150F8042B17
:10085000E6E75FEA0C4C2FD10B884FEA12452FE0F8
:100860004FEA03434FEA12454FEA134328E000BF23
:1008700002F0FF05B5EB136FA2F1013C2CEA020C6C
:100880000DD11CF0803C08BF51F8043B0AD185EA29
:100890000205B5EB032F0AD150F8042BE8E74FEA25
:1008A00013630DE012F0FF0F06D051F8043B4FEA3E
:1008B000122523F07F4303E04FF0000020BC704777
:1008C00005F0FF0203F0FF00012828BF904204BF9B
:1008D0002D0A1B0AF4D0A2EB000020BC704700BF19
:1008E00081F0004102E000BF83F0004330B54FEAE1
:1008F00041044FEA430594EA050F08BF90EA020F4E
:100900001FBF54EA000C55EA020C7FEA645C7FEAE0
:10091000655C00F0E2804FEA5454D4EB5555B8BF03
:100920006D420CDD2C4480EA020281EA030382EA74
:10093000000083EA010180EA020281EA0303362D06
:1009400088BF30BD11F0004F4FEA01314FF4801CD9
:100950004CEA113102D0404261EB410113F0004FEB
:100960004FEA03334CEA133302D0524263EB4303A2
:1009700094EA050F00F0A780A4F10104D5F1200E40
:100980000DDB02FA0EFC22FA05F2801841F100019B
:1009900003FA0EF2801843FA05F359410EE0A5F16F
:1009A00020050EF1200E012A03FA0EFC28BF4CF0A0
:1009B000020C43FA05F3C01851EBE37101F0004556
:1009C00007D54FF0000EDCF1000C7EEB00006EEB63
:1009D0000101B1F5801F1BD3B1F5001F0CD34908ED
:1009E0005FEA30004FEA3C0C04F101044FEA445244
:1009F00012F5800F80F09A80BCF1004F08BF5FEACB
:100A0000500C50F1000041EB045141EA050130BDAA
:100A10005FEA4C0C404141EB0101013C28BFB1F5BC
:100A2000801FE9D291F0000F04BF01460020B1FA07
:100A300081F308BF2033A3F10B03B3F120020CDADA
:100A40000C3208DD02F1140CC2F10C0201FA0CF0B8
:100A500021FA02F10CE002F11402D8BFC2F1200C1D
:100A600001FA02F120FA0CFCDCBF41EA0C019040D3
:100A7000E41AA2BF01EB0451294330BD6FEA04041C
:100A80001F3C1CDA0C340EDC04F11404C4F1200207
:100A900020FA04F001FA02F340EA030021FA04F319
:100AA00045EA030130BDC4F10C04C4F1200220FA70
:100AB00002F001FA04F340EA0300294630BD21FAAE
:100AC00004F0294630BD94F0000F83F4801306BF74
:100AD00081F480110134013D4EE77FEA645C18BF68
:100AE0007FEA655C29D094EA050F08BF90EA020FFF
:100AF00005D054EA000C04BF1946104630BD91EAF7
:100B0000030F1EBF0021002030BD5FEA545C05D1F9
:100B10004000494128BF41F0004130BD14F5800438
:100B20003CBF01F5801130BD01F0004545F0FE41AC
:100B300041F470014FF0000030BD7FEA645C1ABFE1
:100B4000194610467FEA655C1CBF0B46024650EA18
:100B5000013406BF52EA033591EA030F41F4002144
:100B600030BD00BF90F0000F04BF0021704730B5CA
:100B70004FF4806404F132044FF000054FF000019F
:100B800050E700BF90F0000F04BF0021704730B560
:100B90004FF4806404F1320410F0004548BF404235
:100BA0004FF000013EE700BF42004FEAE2014FEA8A
:100BB00031014FEA02701FBF12F07F4393F07F4F65
:100BC00081F06051704732F07F4208BF704793F068
:100BD0007F4F04BF41F40021704730B54FF460747B
:100BE00001F0004521F000411CE700BF50EA01027E
:100BF00008BF704730B54FF000050AE050EA010227
:100C000008BF704730B511F0004502D5404261EB96
:100C100041014FF4806404F132045FEA915C3FF4D7
:100C2000D8AE4FF003025FEADC0C18BF03325FEA74
:100C3000DC0C18BF033202EBDC02C2F1200300FA25
:100C400003FC20FA02F001FA03FE40EA0E0021FA4A
:100C500002F11444BDE600BF70B54FF0FF0C4CF438
:100C6000E06C1CEA11541DBF1CEA135594EA0C0FEA
:100C700095EA0C0F00F0DEF82C4481EA030621EA25
:100C80004C5123EA4C5350EA013518BF52EA033560
:100C900041F4801143F4801338D0A0FB02CE4FF012
:100CA0000005E1FB02E506F00042E0FB03E54FF042
:100CB0000006E1FB03569CF0000F18BF4EF0010E3A
:100CC000A4F1FF04B6F5007F64F5407404D25FEA36
:100CD0004E0E6D4146EB060642EAC62141EA5551E9
:100CE0004FEAC52040EA5E504FEACE2EB4F1FD0C2B
:100CF00088BFBCF5E06F1ED8BEF1004F08BF5FEAA9
:100D0000500E50F1000041EB045170BD06F000465A
:100D100046EA010140EA020081EA0301B4EB5C0407
:100D2000C2BFD4EB0C0541EA045170BD41F48011FF
:100D30004FF0000E013C00F3AB8014F1360FDEBF24
:100D4000002001F0004170BDC4F10004203C35DA00
:100D50000C341BDC04F11404C4F1200500FA05F383
:100D600020FA04F001FA05F240EA020001F0004224
:100D700021F0004110EBD37021FA04F642EB06019A
:100D80005EEA430E08BF20EAD37070BDC4F10C04C4
:100D9000C4F1200500FA04F320FA05F001FA04F288
:100DA00040EA020001F0004110EBD37041F1000174
:100DB0005EEA430E08BF20EAD37070BDC4F120057F
:100DC00000FA05F24EEA020E20FA04F301FA05F2E7
:100DD00043EA020321FA04F001F0004121FA04F28F
:100DE00020EA020000EBD3705EEA430E08BF20EA5F
:100DF000D37070BD94F0000F0FD101F00046400099
:100E000041EB010111F4801F08BF013CF7D041EA1A
:100E1000060195F0000F18BF704703F0004652001E
:100E200043EB030313F4801F08BF013DF7D043EAEF
:100E30000603704794EA0C0F0CEA135518BF95EAA5
:100E40000C0F0CD050EA410618BF52EA4306D1D12C
:100E500081EA030101F000414FF0000070BD50EA4B
:100E6000410606BF1046194652EA430619D094EAD5
:100E70000C0F02D150EA013613D195EA0C0F05D1BF
:100E800052EA03361CBF104619460AD181EA030113
:100E900001F0004141F0FE4141F470014FF00000CB
:100EA00070BD41F0FE4141F4780170BD70B54FF066
:100EB000FF0C4CF4E06C1CEA11541DBF1CEA1355E6
:100EC00094EA0C0F95EA0C0F00F0A7F8A4EB0504C8
:100ED00081EA030E52EA03354FEA013100F08880BF
:100EE0004FEA03334FF0805545EA131343EA126388
:100EF0004FEA022245EA111545EA10654FEA00263D
:100F00000EF000419D4208BF964244F1FD0404F5F5
:100F1000407402D25B084FEA3202B61A65EB030551
:100F20005B084FEA32024FF480104FF4002CB6EB0E
:100F3000020E75EB030E22BFB61A754640EA0C008E
:100F40005B084FEA3202B6EB020E75EB030E22BFCE
:100F5000B61A754640EA5C005B084FEA3202B6EB0F
:100F6000020E75EB030E22BFB61A754640EA9C00CE
:100F70005B084FEA3202B6EB020E75EB030E22BF9E
:100F8000B61A754640EADC0055EA060E18D04FEA5C
:100F9000051545EA16754FEA06164FEAC30343EAFC
:100FA00052734FEAC2025FEA1C1CC0D111F4801FC9
:100FB0000BD141EA00014FF000004FF0004CB6E7C2
:100FC00011F4801F04BF01430020B4F1FD0C88BF61
:100FD000BCF5E06F3FF6AFAEB5EB030C04BFB6EB6C
:100FE000020C5FEA500C50F1000041EB045170BD5F
:100FF0000EF0004E4EEA113114EB5C04C2BFD4EB8C
:101000000C0541EA045170BD41F480114FF0000E0F
:10101000013C90E645EA060E8DE60CEA135594EA8B
:101020000C0F08BF95EA0C0F3FF43BAF94EA0C0F8E
:101030000AD150EA01347FF434AF95EA0C0F7FF403
:1010400025AF104619462CE795EA0C0F06D152EA57
:1010500003353FF4FDAE1046194622E750EA41063B
:1010600018BF52EA43067FF4C5AE50EA41047FF44C
:101070000DAF52EA43057FF4EBAE12E74FF0FF3CB1
:1010800006E000BF4FF0010C02E000BF4FF0010C82
:101090004DF804CD4FEA410C7FEA6C5C4FEA430CFB
:1010A00018BF7FEA6C5C1BD001B050EA410C0CBF4A
:1010B00052EA430C91EA030F02BF90EA020F0020AC
:1010C000704710F1000F91EA030F58BF994208BF13
:1010D00090422CBFD8176FEAE37040F001007047D0
:1010E0004FEA410C7FEA6C5C02D150EA013C07D127
:1010F0004FEA430C7FEA6C5CD6D152EA033CD3D072
:101100005DF8040B704700BF8446104662468C466B
:101110001946634600E000BF01B5FFF7B7FF00289E
:1011200048BF10F1000F01BD4DF808EDFFF7F4FFC7
:101130000CBF012000205DF808FB00BF4DF808ED52
:10114000FFF7EAFF34BF012000205DF808FB00BF75
:101150004DF808EDFFF7E0FF94BF012000205DF897
:1011600008FB00BF4DF808EDFFF7CEFF94BF01204C
:1011700000205DF808FB00BF4DF808EDFFF7C4FF45
:1011800034BF012000205DF808FB00BF4FEA410C8E
:101190007FEA6C5C02D150EA013C0AD14FEA430C71
:1011A0007FEA6C5C02D152EA033C02D14FF00000AE
:1011B00070474FF0010070474FEA410212F50012EC
:1011C00015D211D56FF47873B3EB625212D94FEA8E
:1011D000C12343F0004343EA505311F0004F23FA78
:1011E00002F018BF404270474FF00000704750EACD
:1011F000013005D111F0004008BF6FF0004070478A
:101200004FF00000704700BF82B001900091009A3B
:10121000019B9342A8BF1346184602B0704782B0A4
:1012200001900091009A019B9342B8BF1346184663
:1012300002B0704784B001900091019B0393009B22
:1012400000221A72009B00225A72009B20229A747C
:10125000009B00221A70009B00225A704CE0039BF6
:101260001B78203B102B4FD801A252F823F000BF6F
:10127000E11200080913000809130008F112000820
:1012800009130008091300080913000809130008CE
:10129000091300080913000809130008D9120008EF
:1012A00009130008B5120008091300080913000803
:1012B000C3120008009B2D221A72009B00225A7252
:1012C0001AE0009B1B7A002B0CBF01230023DBB22A
:1012D0001A46009B5A720FE0009B2B221A700BE0FB
:1012E000009B1B78002B07D1009B20221A7003E083
:1012F000009B23225A7000BF039B01330393039B7F
:101300001B78002BABD100E000BF009B00229A703D
:10131000039B1B782A2B06D1009B02229A70039B09
:10132000013303931DE0009B00225A6011E0009BF3
:1013300001229A70009B5A6813469B0013445B007D
:101340001946039B5A1C03921B78303BCA18009B1A
:101350005A60039B1B782F2B03D9039B1B78392BD7
:10136000E5D9009B0022DA60009B00229A72039B61
:101370001B782E2B33D1039B01330393039B1B78E4
:101380002A2B06D1009B02229A72039B01330393FE
:1013900025E0039B1B782D2B06D1039B0133039380
:1013A000009B00229A7212E0009B01229A720EE0CA
:1013B000009BDA6813469B0013445B001946039BAD
:1013C0005A1C03921B78303BCA18009BDA60039BBF
:1013D0001B782F2B03D9039B1B78392BE8D9009B53
:1013E00000221A74039B5A1C03921B786C2B13D097
:1013F0006C2B19DC4C2B13D0682B15D1009B0122D0
:101400001A74039B1B78682B12D1009B03221A7459
:10141000039B013303930BE0009B04221A7408E042
:10142000009B02221A7404E0039B013B039300E03B
:1014300000BF039B5A1C03921B78253B532B00F2E1
:10144000E88001A252F823F099150008131600084D
:1014500013160008131600081316000813160008C8
:1014600013160008131600081316000813160008B8
:1014700013160008131600081316000813160008A8
:101480001316000813160008131600081316000898
:101490001316000813160008131600081316000888
:1014A0001316000813160008131600081316000878
:1014B0001316000813160008131600081316000868
:1014C000131600081316000813160008E915000883
:1014D0001316000813160008131600081316000848
:1014E0001316000813160008131600081316000838
:1014F0001316000813160008131600081316000828
:101500001316000813160008131600081316000817
:1015100013160008DB150008131600081316000840
:1015200013160008131600081316000813160008F7
:1015300013160008131600081316000813160008E7
:10154000A7150008C315000813160008EF150008BA
:101550001316000813160008C31500081316000818
:1015600013160008131600081316000813160008B7
:10157000CB150008051600081316000813160008FE
:10158000B515000813160008D31500081316000837
:1015900013160008E1150008009B00225A74009BF6
:1015A00000229A7238E0009B01225A74009B0022AC
:1015B0009A7231E0009B02225A74009B00225A72F8
:1015C0002AE0009B03225A7426E0009B04225A74EE
:1015D00022E0009B06225A741EE0009B00229A74AF
:1015E000009B05225A7417E0009B00229A74009B0E
:1015F00008225A74009B9B7A002B0CD1009B062278
:10160000DA6008E0009B07225A74009B00229A725D
:1016100002E0002303E000BF039A019BD31A18469F
:1016200004B0704784B00190009100230393009BA5
:10163000002B01DB012301E04FF0FF330293029BFB
:10164000D8B2009A134B83FB02139910D317C91A0F
:101650000B469B000B445B00D11ACBB200FB03F39B
:10166000DAB2019B591C01913032D2B21A70009B40
:10167000084A82FB03129210DB17D31A0093039BD4
:1016800001330393009B002BD9D1039B184604B070
:10169000704700BF6766666686B00390029101924C
:1016A000009300230593029B019AB3FBF2F2019988
:1016B00001FB02F29B1A0493049B092B04D8049BA0
:1016C000DBB23033DAB207E0009BDAB2049BDBB264
:1016D0001344DBB23733DAB2039B591C03911A70FF
:1016E000029A019BB2FBF3F30293059B013305932E
:1016F000029B002BD7D1059B184606B070472DE9F9
:10170000F00FACB01B901A91199218931BAB249355
:101710001DAB239300232B930AE0249A2B9BD11813
:10172000239A2B9B1A440B7813702B9B01332B931A
:101730002B9B032BF1D91D9BDB0DDBB2963B229338
:10174000229B282B01DD002332E14FF4000321937B
:10175000219B5A1E1D9B13402093209A219B1343CB
:101760001F93229B002B16DD1F9B0022984691465B
:101770002299A1F12003C1F1200209FA01F508FA2A
:1017800003F31D4328FA02F2154308FA01F41A9BE9
:10179000C3E9004524E0229B002B18DA229B13F1B9
:1017A000170F07DA1A994FF000024FF00003C1E952
:1017B000002315E0229B5A421F9BD3400022049332
:1017C00005921A9BDDE90412C3E9001208E01F9B91
:1017D0000022069307921A9BDDE90612C3E9001264
:1017E000229B3C331E931E9B3B2B02DC1E9B002B3B
:1017F00006DA4FF000024FF00003CDE9282320E085
:101800001F9B0022089309921E99A1F12003C1F1A8
:101810002002DDE90845284688400190204600FA6C
:1018200003F3019818430190234623FA02F2019B27
:101830001343019323468B400093DDE90034CDE947
:101840002834DDE928230C9223F070430D93DDE961
:101850000C34CDE92834DDE9284522462B464FF0EB
:1018600000004FF00001990041EA92719000024699
:101870000B46161943EB0507B3190E9347EB070305
:101880000F93DDE90E67CDE92867002327932DE04C
:10189000279B01332793DDE92823109223F070431F
:1018A0001193DDE91034CDE92834DDE928452246DD
:1018B0002B464FF000004FF00001990041EA927171
:1018C000900002460B46111902916B410393DDE92A
:1018D00002120B46DB181293134642EB03031393D9
:1018E000DDE91234CDE90234CDE92834DDE92823DD
:1018F00013430AD0DDE928234FF000004FF0000128
:10190000180F002150EA0103C2D0189B279A1A60D1
:10191000002326930023259339E0269A13469B0043
:1019200013445B002693DDE928014FF000024FF0DD
:1019300000030A0F0023269B13442693DDE9282386
:10194000149223F070431593DDE91434CDE9283463
:10195000DDE9284522462B464FF000004FF00001FC
:10196000990041EA9271900002460B4612EB040A7C
:1019700043EB050B1AEB0A0316934BEB0B03179380
:10198000DDE916ABCDE928AB259B01332593DDE9D5
:101990002823134302D0259B072BBEDD269B002264
:1019A0000A930B92199BDDE90A12C3E90012012385
:1019B00018462CB0BDE8F00F7047000000B593B09A
:1019C00003900291009313468DF8073002AB0C93FD
:1019D0000AAB0B93002311930AE00C9A119B1A4453
:1019E0000B99119B0B4412781A70119B01331193C0
:1019F000119B032BF1D90A9BDB0DDBB2FF2B32D1FC
:101A00000A9BC3F31603002B15D0002310930EE09E
:101A1000544A109B13441978039B5A1C03929DF857
:101A200007200A44D2B21A70109B01331093109B06
:101A3000022BEDDD14E000230F930EE04A4A0F9BCA
:101A400013441978039B5A1C03929DF807200A44FB
:101A5000D2B21A700F9B01330F930F9B022BEDDD57
:101A60006FF0020379E0029805AB06AA08A9FFF718
:101A700046FE0346002B17D100230E930EE03B4A8F
:101A80000E9B13441978039B5A1C03929DF8072060
:101A90000A44D2B21A700E9B01330E930E9B022B96
:101AA000EDDD6FF0020358E0039B0D931AE0DDE9D2
:101AB00006014FF00A024FF00003FEF74FFCD2B2CE
:101AC0000D9B591C0D913032D2B21A70DDE906011E
:101AD0004FF00A024FF00003FEF740FC02460B46AF
:101AE000CDE90623DDE906231343E0D104E00D9B95
:101AF0005A1C0D9230221A70059B5A1E0592002B1B
:101B0000F5DC0D9A039BD21A009B1A600D9B5A1CA0
:101B10000D922E221A70DDE908014FF00A024FF0F3
:101B20000003FEF71BFCD2B20D9B591C0D91303205
:101B3000D2B21A70DDE908014FF00A024FF000033B
:101B4000FEF70CFC02460B46CDE90823DDE908232D
:101B50001343E0D10D9A039BD31A184613B05DF8D6
:101B600004FB00BF38F601083CF6010840F6010806
:101B700084B001900091009B0393039B9A68039BA0
:101B80005B689A420AD2039B1A68039B9B68581CA5
:101B9000039988601344019AD2B21A7000BF04B04E
:101BA000704782B00190009100BF02B0704700B54D
:101BB00085B001900091009B0393039B9B685A1C86
:101BC000039B9A60039B1B68039A52681146019815
:101BD000984700BF05B05DF804FB000010B5A8B041
:101BE0000390029101920093019B2793039B0D9315
:101BF000029B0E9300230F933DE3279B1B78252B1D
:101C000006D110AB19462798FFF714FB034600E0F6
:101C100000231893189B002B0AD1279B5A1C27924C
:101C20001B781A460DAB19461046FFF7C0FF22E39A
:101C3000189B279A134427939DF84230022B10D10A
:101C400001238DF84230009B1A1D00921B681193EE
:101C5000119B002B05DA119B5B42119301238DF838
:101C600048309DF84A30022B0DD100238DF84A30C0
:101C7000009B1A1D00921B681393139B002B02DB21
:101C800001238DF84A3004AB269300238DF897305A
:101C900000232493002323930023229300238DF811
:101CA00087300023209300231F9300230C930023ED
:101CB0001E939DF85130082B00F2A28101A252F828
:101CC00023F000BFE91C0008F71C00080D1D0008E8
:101CD000491D0008F91D0008F91D0008F91D00083C
:101CE000231F00083F1F0008269B25221A70249BF3
:101CF0000133249389E1009B1A1D00921B68DAB21C
:101D0000269B1A70249B013324937EE1009B1A1DAD
:101D100000921B682693269B1D9305E01D9B0133B3
:101D20001D93249B013324931D9B1B78002BF5D11D
:101D30009DF84A30012B40F06581139B2499184689
:101D4000FFF762FA24905DE100231C939DF8503068
:101D5000042B2DD801A252F823F000BF711D0008FA
:101D60007D1D00088B1D0008971D0008A51D00089B
:101D7000009B1A1D00921B681C931AE0009B1A1D01
:101D800000921B681BB21C9313E0009B1A1D00926B
:101D90001B681C930DE0009B1A1D00921B68DBB2B0
:101DA0001C9306E0009B1A1D00921B681C9300E028
:101DB00000BF1C9B002B02DB9DF8403000E02D2370
:101DC0008DF897301C9B002B0CBF01230023DBB246
:101DD0001F931C9B002B09D19DF84A30012B05D184
:101DE000139B002B02D1002324930EE11C9926980B
:101DF000FFF718FC249008E100231B939DF8503056
:101E0000042B2DD801A252F823F000BF211E000898
:101E10002D1E00083B1E0008471E0008551E000826
:101E2000009B1A1D00921B681B931AE0009B1A1D51
:101E300000921B689BB21B9313E0009B1A1D00923B
:101E40001B681B930DE0009B1A1D00921B68DBB200
:101E50001B9306E0009B1A1D00921B681B9300E079
:101E600000BF1B9B002B0CBF01230023DBB21F9381
:101E70001B9B002B11D19DF84A30012B0DD1139BD8
:101E8000002B0AD19DF85130042B1DD19DF8413013
:101E9000002B19D00123139316E09DF85130042B29
:101EA00007D09DF85130052B01D1102302E00A2301
:101EB00000E0082316939DF85230169A1B99269835
:101EC000FFF7EAFB249000E000BF1B9B002B0FD024
:101ED0009DF84130002B0BD09DF85130042B07D1D9
:101EE000249B5A1C24921A46269B134430221A70B3
:101EF0001B9B002B00F088809DF84130002B00F0E8
:101F000083809DF85130052B01D158232393239BC7
:101F1000002B79D09DF852301A46239B134423930B
:101F200072E0009B1A1D00921B68194620231022A4
:101F30002698FFF7B1FB24907823239365E09DF862
:101F40005030022B0FD1009B073323F0070303F11E
:101F500008020092D3E9002310461946FEF738F92B
:101F600003461A930EE0009B073323F0070303F1A7
:101F700008020092D3E9002310461946FEF728F91B
:101F800003461A934FF000011A98FEF7BFF9034673
:101F9000002B01D02D2301E09DF840308DF89730C3
:101FA00001231C464FF000011A98FEF7A5F90346DD
:101FB000002B01D100231C46E3B21F939DF8522051
:101FC0000CAB1A992698FFF7F9FC2490249B002B60
:101FD00005DA249B5B42249301231E9315E00C9A9F
:101FE000139BD31A19460020FFF719F91790179B76
:101FF000269A13442693249A179BD31A249304E019
:1020000000BF02E000BF00E000BF9DF84230012B9E
:1020100024D19DF84930002B1DD09DF85130022B62
:102020001CD09DF85130012B18D09DF85130002B59
:1020300014D09DF84A30012B09D1139B002B06D1F7
:102040001F9B002B03D020238DF8873006E0302320
:102050008DF8873002E020238DF887309DF85130CD
:10206000022B12D01E9B002B0FD19DF85130082B54
:1020700001D10C9B00E0249B1593139A159BD31A56
:1020800019460020FFF7CBF82090119A249BD31A11
:102090009DF89720002A14BF01220022D2B29B1A79
:1020A0002293239B002B02D0229B023B22939DF87C
:1020B0005130082B09D1139B002B06D19DF84130DC
:1020C000002B02D1229B01332293229A209BD31A08
:1020D000229322990020FFF7A2F822909DF8483021
:1020E000002B41D19DF88730002B3DD09DF88730E3
:1020F000302B22D19DF89730002B09D09DF89730D6
:102100000DAA11461846FFF752FD00238DF89730AF
:10211000239B002B11D00DAB19463020FFF747FD54
:102120000DAB19462398FFF742FD06E09DF8873076
:102130000DAA11461846FFF73AFD229B5A1E22921D
:10214000002BF3DC9DF88730302B1BD0239B002B1A
:1021500018D00DAB19463020FFF729FD0DAB1946FD
:102160002398FFF724FD0DE0239B002B0BD00DAB34
:1021700019463020FFF71BFD0DAB19462398FFF7DA
:1021800016FD00E000BF9DF85130022B14D1002352
:1021900019930CE0199B269A13441B781A460DAB31
:1021A00019461046FFF703FD199B01331993199A3D
:1021B000249B9A42EEDB49E09DF89730002B06D035
:1021C0009DF897300DAA11461846FFF7F0FC9DF8D0
:1021D0005130082B0BD004E00DAB19463020FFF72F
:1021E000E6FC209B5A1E2092002BF5DC17E0139B87
:1021F000002B14D19DF84130002B10D1269B0133C8
:102200002693249B013B249309E0249B269A1344A4
:102210001B781A460DAB19461046FFF7C8FC249BE5
:102220005A1E2492002BF0DC9DF85130082B0DD162
:102230001E9B002B0AD104E00DAB19463020FFF79E
:10224000B6FC209B5A1E2092002BF5DC9DF84830EE
:10225000002B10D09DF88730002B0CD006E09DF8A5
:1022600087300DAA11461846FFF7A1FC229B5A1E83
:102270002292002BF3DC279B1B78002B7FF4BDAC54
:102280000F9B184628B010BD00B58BB0039002918B
:1022900001920093039B0593029B069300230793EF
:1022A000039B002B01D00A4B00E00A4B099305A9C0
:1022B000009B019A0998FFF791FC089005AA099BD9
:1022C000114600209847089B18460BB05DF804FBA8
:1022D000711B0008A31B000808B515F01BF800F0DF
:1022E00045F800F0DBF800F07BF800F0FBF800F0B8
:1022F0001FF900BF08BD0FB400B583B005AB019353
:102300000199049800F006F800BF03B05DF804EBF3
:1023100004B0704700B583B0019000910D48009B58
:10232000019AF921FFF7B0FF0B4817F09BFD034618
:102330009AB24FF0FF330849084816F09EFE034654
:10234000002B0CBF01230023DBB2184603B05DF85D
:1023500004FB00BF0100002000000020E40B00206F
:1023600008B515F035F80346184608BD00B593B01A
:1023700006AB30220021184617F060FC01AB0022AA
:102380001A605A609A60DA601A6101230693052385
:10239000079302230C934FF480030D9308230E93AD
:1023A000F0230F93022310930523119306AB1846D5
:1023B00015F04EFE0F230193022302930023039393
:1023C0004FF4A05304934FF48053059301AB0321C2
:1023D000184616F08BF800BF13B05DF804FB000040
:1023E00000B58DB000230193294B1B6B284A43F0A5
:1023F00004031363264B1B6B03F004030193019B3F
:1024000000230093224B1B6B214A43F0020313630A
:102410001F4B1B6B03F002030093009B07AB0022D2
:102420001A605A609A60DA601A6102AB00221A6080
:102430005A609A60DA601A61802307930123089337
:102440000123099303230A9307AB1946114815F09A
:102450002FFC002280210F4815F0C4FD4FF40053DB
:1024600002934FF4881303930023049302AB19469D
:10247000094815F01DFC00220021282015F072F8F3
:10248000282015F08BF800BF0DB05DF804FB00BFED
:1024900000380240000402400008024008B50F4B1B
:1024A0000F4A1A600D4B4FF4E1325A600B4B002279
:1024B0009A600A4B0022DA60084B00221A61074B2F
:1024C0000C225A61054B00229A61044B0022DA610A
:1024D000024816F086FD00BF08BD00BFE40B0020D7
:1024E0000048004000B583B0002301930F4B1B6BE5
:1024F0000E4A43F4001313630C4B1B6B03F40013DD
:102500000193019B002202210C2015F02BF80C20D6
:1025100015F044F8002202210E2015F023F80E20B9
:1025200015F03CF800BF03B05DF804FB0038024032
:1025300008B500F005F800F03FF800BF08BD000046
:1025400000B587B002AB00221A605A609A60DA6068
:102550006B4600221A605A60154B164A1A60144BDB
:1025600000225A60124B00229A60114B4FF0FF324A
:10257000DA600F4B00221A610D4B00229A610C4861
:1025800016F0EAF94FF48053029302AB194608485B
:1025900016F03EFA00230093002301936B46194680
:1025A000034816F099FC00BF07B05DF804FB00BFBC
:1025B000300B0020000C004000B587B002AB0022B9
:1025C0001A605A609A60DA606B4600221A605A609C
:1025D000154B4FF080421A60134B00225A60124B89
:1025E00000229A60104B4FF0FF32DA600E4B00224F
:1025F0001A610D4B00229A610B4816F0ADF94FF4A9
:102600008053029302AB1946074816F001FA0023E3
:102610000093002301936B461946034816F05CFCB7
:1026200000BF07B05DF804FB7C0A002000B583B052
:102630000190034B1B68984700BF03B05DF804FB93
:10264000E80C002000B583B00346ADF80630034B1C
:102650001B68984700BF03B05DF804FBEC0C00203A
:1026600008B5024815F0EEF800BF08BD280C0020A0
:1026700008B5024815F0E6F800BF08BD880C002038
:1026800008B5024816F08EFD00BF08BDE40B00201F
:1026900008B54FF4005015F0BFFC00BF08BD0000A6
:1026A00082B0002301930E4B5B6C0D4A43F48043D0
:1026B00053640B4B5B6C03F480430193019B002339
:1026C0000093074B1B6C064A43F080531364044B82
:1026D0001B6C03F080530093009B00BF02B0704757
:1026E0000038024000B58BB0019005AB00221A60A3
:1026F0005A609A60DA601A61019B1B68464A9342ED
:1027000040F0868000230493444B1B6C434A43F4FF
:1027100080231364414B1B6C03F480230493049BBC
:10272000002303933D4B1B6B3C4A43F008031363A8
:102730003A4B1B6B03F008030393039B4FF4407366
:10274000059302230693002307930323089307238B
:10275000099305AB1946324815F0AAFA314B324AB3
:102760001A60304B4FF000625A602E4B00229A6084
:102770002C4B0022DA602B4B4FF480621A61294BFC
:1027800000225A61274B00229A61264B0022DA610F
:10279000244B00221A62234B00225A62214814F073
:1027A00017FF019B1F4A9A631E4A019B93631F4BAD
:1027B0001F4A1A601D4B4FF000625A601B4B4022AB
:1027C0009A601A4B0022DA60184B4FF480621A614B
:1027D000164B00225A61154B00229A61134B0022BE
:1027E000DA61124B00221A62104B00225A620F4823
:1027F00014F0EEFE019B0D4A5A630C4A019B936351
:1028000000220021272014F0ADFE272014F0C6FE80
:1028100000BF0BB05DF804FB0048004000380240E8
:10282000000C0240280C002028600240880C002088
:102830005860024000B58FB0019009AB00221A60C9
:102840005A609A60DA601A61019B1B68574A93428A
:1028500040F0A88000230893554B1B6B544A43F06B
:1028600000731363524B1B6B03F000730893089BB8
:10287000002307934E4B1B6B4D4A43F08063136359
:102880004B4B1B6B03F080630793079B002306935E
:10289000474B1B6B464A43F000631363444B1B6B6F
:1028A00003F000630693069B00230593404B1B6BCC
:1028B0003F4A43F0040313633D4B1B6B03F00403D7
:1028C0000593059B00230493394B1B6B384A43F057
:1028D00001031363364B1B6B03F001030493049B4A
:1028E00000230393324B1B6B314A43F00203136303
:1028F0002F4B1B6B03F002030393039B00230293F4
:102900002B4B1B6B2A4A43F040031363284B1B6B72
:1029100003F040030293029B3223099302230A939C
:1029200000230B9303230C930B230D9309AB194640
:10293000204815F0BDF98623099302230A9300234A
:102940000B9303230C930B230D9309AB19461A48E1
:1029500015F0AEF94FF40053099302230A930023B4
:102960000B9303230C930B230D9309AB19461348C8
:1029700015F09EF94FF42053099302230A93002384
:102980000B9303230C930B230D9309AB19460C48AF
:1029900015F08EF9002204213D2014F0E3FD3D20C6
:1029A00014F0FCFD00BF0FB05DF804FB0080024096
:1029B00000380240000802400000024000040240CB
:1029C0000018024084B00190019B1B68B3F1804F56
:1029D0000ED100230393114B1B6C104A43F00103EB
:1029E00013640E4B1B6C03F001030393039B12E073
:1029F000019B1B680A4A93420DD100230293074BA7
:102A00001B6C064A43F008031364044B1B6C03F071
:102A100008030293029B00BF04B0704700380240D5
:102A2000000C004000B58DB0039002910192029B12
:102A30000B93019B0A93002309930023089300231F
:102A4000069300238DF81F30039B002B06D15D4BAE
:102A50005D4A40F25E215D4816F0E8FF039B9B6EE5
:102A6000002B06D15A4B584A40F25F21574816F0C6
:102A7000DDFF039B5B6D002B06D1564B524A4FF492
:102A80001871524816F0D2FF0B9B002B06D1524B07
:102A90004D4A40F261214D4816F0C8FF019B0A9350
:102AA000039B9B6E9847089068E0039B5B6D039ABD
:102AB000906D0A9A0B9998470590059B002B13DAA5
:102AC00040F27123454A4649464805F0EDFD059917
:102AD000454805F0E9FD454805F0E6FD059B0993ED
:102AE00001238DF81F3049E0059B002B2ADD039B55
:102AF0009B6E98470890059B0A9A9A4206D23C4BD7
:102B0000314A40F27E21314816F090FF059B0A9A27
:102B1000D31A0A93099A059B13440993059B0B9AB0
:102B200013440B9340F283232C4A2D49314805F07E
:102B3000BBFD0A9A0599304805F0B6FD2B4805F013
:102B4000B3FD1BE0039B9B6E98470346089918460C
:102B500000F058F80690069B092B0FD940F28F23FE
:102B60001E4A1F491F4805F09FFD244805F09CFDA3
:102B70001E4805F099FD01238DF81F300A9B002B9C
:102B800006D09DF81F3083F00103DBB2002B8CD1FF
:102B9000099B002B10DD039B089A1A6740F29923CA
:102BA0000E4A0F49134805F07FFD0899144805F0B7
:102BB0007BFD0E4805F078FD099B18460DB05DF8C9
:102BC00004FB00BF5CF70108E04602085CF6010860
:102BD00070F701088CF70108B8F70108EC46020805
:102BE000C8F70108D8F70108F0F7010818F801083C
:102BF0001CF8010844F801085CF8010880F8010895
:102C0000B4F8010882B001900091019A009BD31A98
:102C1000184602B07047000000B585B003468DF835
:102C2000073000238DF80F309DF80730622B0ED04F
:102C3000622B10DC402B02D0502B04D00BE0002381
:102C40008DF80F3016E001238DF80F3012E00223CB
:102C50008DF80F300EE09DF80730702B06D0084B32
:102C6000084A40F2C121084816F0E0FE03238DF81F
:102C70000F3000BF9DF80F30184605B05DF804FB1B
:102C8000DCF80108F84602085CF6010800B58DB0D2
:102C90000190009100230B93009B0A93002309935A
:102CA0000023089300230693002305930023049335
:102CB00000238DF81F30019B002B06D15B4B5C4A33
:102CC00040F2D6215B4816F0B1FE019B1B6E009AC4
:102CD0009A4206D9584B564A40F2D721554816F029
:102CE000A5FE019B9B6E002B06D1544B504A4FF41E
:102CF0003671504816F09AFE019B1B6D002B06D1D1
:102D00004F4B4B4A40F2D9214A4816F08FFE019BA7
:102D1000DB6D002B06D14B4B454A40F2DA2145488A
:102D200016F084FE019BDB6D0B93019B1B6D0593DD
:102D3000019B9B6E0493049B9847089066E0019B5F
:102D4000986D059B0A9A0B9998470390039B002B5B
:102D500013DA40F2EB233C4A3C493D4805F0A4FC21
:102D600003993C4805F0A0FC3B4805F09DFC039B03
:102D7000099301238DF81F3048E0039B002B2ADDC7
:102D8000049B98470890039B0A9A9A4206D2334BB9
:102D9000274A40F2FA21274816F048FE039B0A9A78
:102DA000D31A0A93099A039B13440993039B0B9A22
:102DB00013440B9340F2FF23234A2449284805F08B
:102DC00073FC099B0A9A0399264805F06DFC22487A
:102DD00005F06AFC1AE0049B9847034608991846D8
:102DE000FFF710FF0690069B092B0FD94FF4437392
:102DF000154A1649164805F057FC1B4805F054FCC7
:102E0000154805F051FC01238DF81F300A9B002B5B
:102E100006D09DF81F3083F00103DBB2002B8ED16A
:102E2000099B18460DB05DF804FB00BF5CF7010874
:102E3000104702085CF6010804F9010870F7010860
:102E400030F901085CF901081C470208C8F70108BD
:102E5000D8F7010884F9010818F80108BCF901083D
:102E600044F80108E4F9010824FA010800B58DB01E
:102E700003900291019204238DF82F3000230793D1
:102E800000230A930023099300230693002305934C
:102E90000023049300238DF82330039B002B06D1DD
:102EA000434B444A40F22231434816F0BFFD039B96
:102EB0009B6E002B06D1414B3E4A40F223313E48E7
:102EC00016F0B4FD039B1B6E0A93039B9B6E049349
:102ED000049B9847069045E0029A099BD31A0A9AE8
:102EE0009A4203D9029A099BD31A0A930A99039822
:102EF000FFF7CCFE07900A9B079A9A4212D040F245
:102F000035332F4A2F49304805F0CEFB0A9A0799EE
:102F10002E4805F0C9FB2E4805F0C6FB01238DF8AD
:102F200023301FE0079B099A13440993049B984799
:102F3000034606991846FFF765FE0590059A019B22
:102F40009A420FD34FF451731D4A1E491E4805F093
:102F5000ABFB204805F0A8FB1D4805F0A5FB0123AD
:102F60008DF82330099A029B9A4206D29DF82330AD
:102F700083F00103DBB2002BAED1099A029B9A4287
:102F800010D14FF453730E4A0E490F4805F08CFBD5
:102F90000999114805F088FB0D4805F085FB0723CA
:102FA0008DF82F309DF82F3018460DB05DF804FBDA
:102FB0005CF70108284702085CF6010870F7010871
:102FC00038470208C8F70108D8F701085CFA010879
:102FD00018F80108A8FA0108D0FA010800B589B06C
:102FE0000390684680E80E0000238DF81F30002310
:102FF000069300230593039B002B06D1314B324AE5
:1030000040F25F31314816F011FD039BDB6D002B60
:1030100006D12F4B2C4A4FF458712C4816F006FD60
:10302000029A039B1B6E9A421AD94FF45973294A8C
:1030300029492A4805F038FB0299039B1B6E1A4662
:10304000274805F031FB274805F02EFB029B0A9A22
:1030500019460398FFF70AFF03468DF81F302BE04F
:10306000029B059305990398FFF710FE0690059BB8
:10307000069A9A420ED140F27533164A16491A48FA
:1030800005F012FB0699194805F00EFB154805F0EE
:103090000BFB11E040F27A330E4A0F490F4805F05E
:1030A00003FB059A0699124805F0FEFA0D4805F053
:1030B000FBFA04238DF81F309DF81F30184609B025
:1030C0005DF804FB5CF70108484702085CF601085C
:1030D0005CF9010858470208C8F70108D8F7010849
:1030E000F0FA010818F8010844F8010864FB010827
:1030F00088FB010884B003468DF8073000238DF863
:103100000F309DF80730023B032B1BD801A252F869
:1031100023F000BF253100082D31000835310008AB
:103120003D31000840238DF80F300CE050238DF81E
:103130000F3008E062238DF80F3004E070238DF823
:103140000F3000E000BF9DF80F30184604B0704704
:1031500000B589B003900B46ADF80A3013468DF8E0
:10316000093000238DF81F3000238DF8153000231F
:10317000069300238DF81730039B002B06D13B4BA1
:103180003B4A4FF46E713B4816F050FC9DF80930F5
:103190001846FFF7AFFF03468DF817309DF817303C
:1031A000002B5DD09DF817301846FFF735FD03461C
:1031B0008DF81630039B5C33BDF80A209DF817107C
:1031C000184603F007FC03468DF81F309DF81F30AA
:1031D000002B07D1039BDB6D042219460398FFF7F0
:1031E00021FC0690069B042B26D1039B012283F829
:1031F00074209DF81620BDF80A100DF115030093F8
:103200000023039804F014FD03468DF81F309DF849
:103210001F30002B24D040F2D633174A17491848E4
:1032200005F042FABDF80A301946164805F03CFA96
:10323000154805F039FA13E04FF477730E4A0F4939
:103240000F4805F031FA9DF817100423069A0F482D
:1032500005F02AFA0C4805F027FA03238DF81F30F1
:103260009DF81F30184609B05DF804FB5CF70108B3
:10327000684702085CF6010878470208C8F70108A9
:10328000D8F70108C8FB010818F80108F0FB01088D
:1032900000B587B0019000238DF817300023049308
:1032A00000230393019B002B06D1264B264A40F2B4
:1032B000EE31264816F0BAFB019B9B6E002B06D11F
:1032C000234B214A40F2EF31204816F0AFFB019B1F
:1032D0009B6E98470490019BB3F876301A464FF4E2
:1032E0007A7302FB03F30393039B002B23D0019B10
:1032F00093F87C30002B0ED0019B9B6F19460498ED
:10330000FFF780FC034641F28832934213D90A2327
:103310008DF817300FE0019B1B6F19460498FFF7DB
:1033200071FC0246039B934205D2019801F024FAF6
:1033300003468DF817309DF81730184607B05DF832
:1033400004FB00BF5CF70108884702085CF601082F
:1033500070F7010810B58EB00390029101238DF82B
:10336000373000238DF835300023ADF8323000239C
:103370008DF83630039B002B06D1704B704A4FF40A
:103380008361704816F052FB029B002B06D16E4BF6
:103390006B4A40F219416B4816F048FB039BDB6E09
:1033A000002B06D1694B664A40F21A41654816F077
:1033B0003DFB07AA0DF132031946029803F058FCB1
:1033C00003468DF8373040F21D43614A6149624837
:1033D00005F06AF99DF83730184601F0E5FB034621
:1033E00019465E4805F060F95D4805F05DF99DF805
:1033F0003730002B77D1BDF832109DF81C200DF12D
:103400003503009313460122039804F06DFB034635
:103410008DF837309DF83730002B14D140F22A4315
:103420004B4A4C494C4805F03FF99DF83530184659
:1034300004F024FD034619464A4805F035F948488A
:1034400005F032F94FE09DF83730092B33D10023D6
:103450008DF8373001238DF836309DF81C30194631
:10346000012004F00DFB03468DF8353040F2524345
:10347000374A38493C4805F017F9BDF8323019464B
:103480003A4805F011F9364805F00EF99DF81E305E
:1034900083F00103DBB2002B25D040F257432C4AC6
:1034A0002C49334805F000F9324805F0FDF82C4866
:1034B00005F0FAF817E040F25C43254A25492C480C
:1034C00005F0F2F8BDF832301C469DF8373018464A
:1034D00001F06AFB03461A462146274805F0E4F846
:1034E0001F4805F0E1F89DF83730002B21D1BDF8D9
:1034F0003230ADF8103007AB05939DF837308DF8BA
:1035000018309DF8363083F00103DBB2002B05D074
:10351000039BDB6E04AA029903989847BDF83230EA
:103520009DF8352019460398FFF712FE03468DF8E3
:1035300037309DF8373018460EB010BD5CF70108E3
:10354000984702085CF601083CFC010854FC01089D
:10355000B0470208C8F7010874FC01088CFC010898
:1035600018F80108CCFC010844F80108F0FC010837
:10357000D8F701082CFD010860FD010810B58AB0DC
:103580000390029105238DF8273000238DF81E301B
:10359000039B002B06D1554B554A40F28A415548B2
:1035A00016F044FA029B002B06D1534B504A40F2CE
:1035B0008B41504816F03AFA039BDB6E002B06D184
:1035C0004E4B4B4A40F28C414A4816F02FFA039B6F
:1035D000DB6E0893029B1B781846FFF71DFB034622
:1035E0008DF81F3007AB00221946029803F0B0FB9C
:1035F00003468DF8273040F29243414A4149424800
:1036000005F052F89DF82730184601F0CDFA034630
:1036100019463E4805F048F83D4805F045F89DF844
:103620002730002B3ED1BDF81C109DF81F200DF156
:103630001E0300930123039804F0FAFA03468DF861
:1036400027309DF82730002B14D140F29F432C4A9D
:103650002C492D4805F028F89DF81E30184604F036
:103660000DFC034619462B4805F01EF8284805F0C6
:103670001BF817E040F2A443214A2249264805F0EE
:1036800013F8BDF81C301C469DF82730184601F091
:103690008BFA03461A462146204805F005F81C48D7
:1036A00005F002F89DF82730002B19D1BDF81C3029
:1036B000ADF810309DF827308DF8183000230593B1
:1036C00004AA089B029903989847BDF81C309DF8FE
:1036D0001E2019460398FFF73BFD03468DF827305F
:1036E0009DF8273018460AB010BD00BF5CF70108EE
:1036F000C84702085CF601083CFC010854FC0108BC
:10370000DC470208C8F7010874FC0108B8FD01088D
:1037100018F80108CCFC0108D8F70108E4FD0108FD
:1037200000B58BB00390029113468DF80730052346
:103730008DF827300023ADF81E3000238DF8263099
:1037400000230893039B002B06D1664B664A40F288
:10375000D141664816F06AF9029B002B06D1644BF2
:10376000614A40F2D241614816F060F9039BDB6E7A
:10377000002B06D15F4B5C4A40F2D3415B4816F008
:1037800055F9039BDB6E089340F2D7435A4A5B49D5
:103790005B4804F089FF029B1B781946594804F0E6
:1037A00083FF594804F080FF029B1B78D02B1DD06B
:1037B000D02B66DCB02B46D0B02B62DC902B42D0F5
:1037C000902B5EDC702B09D0702B5ADC622B05D05D
:1037D000622B56DC402B01D0502B52D1029903981A
:1037E000FFF7CCFE03468DF827305FE00DF11E0396
:1037F00000221946029803F0ABFA03468DF82730F1
:103800009DF82730002B08D19DF8073083F0010385
:10381000DBB2002B01D0012300E000238DF826301D
:103820009DF8263003F001038DF826309DF82730EF
:10383000002B3AD19DF80730002B36D0039B002295
:1038400083F87C2031E00DF11E0300221946029816
:1038500003F07EFA03468DF827309DF82730002BC1
:1038600003D09DF82730062B01D1012300E000236F
:103870008DF826309DF8263003F001038DF82630B0
:1038800014E040F2FA431C4A1C49204804F00CFFA3
:10389000029B1B7819461E4804F006FF1A4804F0E4
:1038A00003FF05238DF8273000E000BF9DF8263088
:1038B000002B11D0BDF81E30ADF810309DF8273028
:1038C0008DF818300023059304AA089B02990398E9
:1038D000984700238DF827309DF8273018460BB005
:1038E0005DF804FB5CF70108F04702085CF601088C
:1038F0003CFC010854FC010804480208C8F7010810
:1039000044F8010828FE010818F80108D8F7010852
:1039100048FE010800B58BB00590049113468DF860
:103920000F3000238DF82730059B002B06D1414B2B
:10393000414A40F21751414816F078F8059BDB6D7B
:10394000002B06D13E4B3C4A4FF4A3613B4816F096
:103950006DF8059B186D059B9B6D06AA194603F033
:10396000CDFA03468DF827309DF82730072B11D16B
:103970009DF80F30002B05D00598FFF789FC034612
:103980008DF827309DF82730002B26D107238DF89E
:10399000273022E09DF82730002B14D04FF4A66387
:1039A000284A2949294804F07FFE9DF82730184607
:1039B00001F0FAF803461946254804F075FE25483B
:1039C00004F072FE09E0049B009306AB0ECB059851
:1039D000FFF704FB03468DF827309DF82730002BB6
:1039E0001BD1059BDB6D07939DF8183003F0F003A6
:1039F000302B08D106AB19460598FFF7ABFC034600
:103A00008DF8273009E09DF80F2006AB1946059880
:103A1000FFF786FE03468DF827309DF82730072BE9
:103A200002D100238DF827309DF8273018460BB0BF
:103A30005DF804FB5CF70108184802085CF6010811
:103A40005CF9010830480208C8F70108D8F70108F6
:103A500080FE010818F8010800B587B003900291B4
:103A60000192ADF8023000238DF81730039B002B34
:103A700002D0029B002B12D140F261531F4A204911
:103A8000204804F011FE029A03991F4804F00CFE2E
:103A90001E4804F009FE01238DF8173027E0019B32
:103AA000002B10D140F26953144A1549154804F00F
:103AB000FBFD174804F0F8FD144804F0F5FD012360
:103AC0008DF8173013E0BDF80230002B0FD140F213
:103AD0006E530A4A0A490B4804F0E6FD0D4804F00B
:103AE000E3FD0A4804F0E0FD01238DF817309DF84E
:103AF0001730184607B05DF804FB00BF48480208BD
:103B0000C8F70108D8F70108B4FE010818F8010841
:103B1000F0FE01080CFF010800B587B00390029188
:103B2000019200238DF8173000230493039B002B90
:103B300006D1534B534A40F28251534815F076FF59
:103B4000029B002B06D1514B4E4A40F283514E4806
:103B500015F06CFF019B002B06D14D4B494A40F2FA
:103B60008451494815F062FF039BDB6D002B06D1A1
:103B7000484B444A40F28551434815F057FF029B99
:103B80001B69002B0AD0029BDB68002B06D1424B3D
:103B90003C4A40F286513C4815F048FF039BDB6DE0
:103BA000019A19460398FEF73DFF0490019B049A81
:103BB0009A4210DA40F28F53384A3949394804F0B2
:103BC00073FD394804F070FD384804F06DFD03239F
:103BD0008DF817304DE040F29453304A3049344864
:103BE00004F062FD0499334804F05EFD2F4804F0B0
:103BF0005BFD029B1B69002B2ED0029BD968029BA8
:103C00001B691A460398FEF70DFF0490029B1B697F
:103C10001A46049B934210DA40F2A1531F4A2049EE
:103C2000204804F041FD244804F03EFD1F4804F004
:103C30003BFD03238DF817301BE040F2A653174AD3
:103C400017491B4804F030FD04991C4804F02CFD72
:103C5000164804F029FD0CE040F2AC530F4A10491D
:103C6000134804F021FD164804F01EFD0F4804F02F
:103C70001BFD9DF81730184607B05DF804FB00BF28
:103C80005CF701086C4802085CF6010834FF010883
:103C90004CFF01085CF901085CFF01087848020844
:103CA000C8F70108D8F70108A8FF010818F80108AB
:103CB00044F80108D4FF0108F8FF010824000208B5
:103CC0004800020800B58DB0059004910293134698
:103CD0008DF80F3000238DF82F3000230893002338
:103CE000079300230A930023069300238DF82730BF
:103CF0000023ADF82430059B002B06D1734B744A8A
:103D000040F2C151734815F091FE029B002B06D181
:103D1000714B6F4A40F2C2516E4815F087FE059B09
:103D20009B6E002B06D16D4B694A40F2C351694826
:103D300015F07CFE059B9B6E0893089B98470790A7
:103D4000059B186D059B9B6D029A194603F0D6F8EA
:103D500003468DF82F30049B002B0FD0089B98470B
:103D6000034607991846FEF74DFF0246049B93420F
:103D700094BF012300238DF827300CE0BDF82430D8
:103D8000042B8CBF012300238DF82730BDF824308D
:103D90000133ADF824309DF82F30072B06D19DF864
:103DA000273083F00103DBB2002BC9D19DF82F30FF
:103DB000002B32D1089B9847034607991846FEF717
:103DC00021FF0690069A049B9A4203D2049A069B0E
:103DD000D31A0A93029B1B78202B0AD1029B0A9AC2
:103DE00000920ECB0598FFF7F9F803468DF82F30B7
:103DF00013E040F205633A4A3A493B4804F054FC68
:103E0000029B1B7820221946384804F04DFC3848A4
:103E100004F04AFC05238DF82F309DF82F30002B3D
:103E20000BD1059BDA6D029B5A600E9A0021029815
:103E300002F08EFF03468DF82F309DF82F30002BB7
:103E400017D19DF80F30002B13D00E9B1B78002B41
:103E50000FD040F21C63224A2249234804F024FC7C
:103E6000244804F021FC224804F01EFC05238DF8B0
:103E70002F309DF82F30002B0DD140F22463184ACB
:103E800018491D4804F010FC1C4804F00DFC1848AB
:103E900004F00AFC13E04FF4C563114A11491248BB
:103EA00004F002FC9DF82F30184600F07DFE03461A
:103EB0001946134804F0F8FB0D4804F0F5FB9DF893
:103EC0002F3018460DB05DF804FB00BF5CF7010809
:103ED000844802085CF601083CFC010870F7010800
:103EE00094480208C8F70108D8F7010880000208C2
:103EF00018F80108C000020844F801083C01020853
:103F00006C01020800B587B001900B468DF80330B4
:103F100000238DF81730002304930023ADF81430EC
:103F200000238DF80F30019B002B06D1234B244A30
:103F300040F23961234815F079FD9DF80330002BDC
:103F400028D00DF10F0204AB1946019803F044FF8D
:103F50000346ADF8143014E09DF80F20BDF814307E
:103F600019460198FFF7F4F803468DF817300DF164
:103F70000F0204AB1946019803F02EFF0346ADF87B
:103F80001430BDF81430002B11D09DF81730002BE1
:103F9000E2D00CE0019B28220021184615F04EFECD
:103FA000019B283328220021184615F047FE9DF872
:103FB0001730184607B05DF804FB00BF5CF7010836
:103FC000A44802085CF6010800B58BB00590049186
:103FD00002931346ADF80E3000238DF827300023EE
:103FE000089300230793059B002B06D12E4B2F4AE5
:103FF00040F261612E4815F019FD049B002B06D19B
:104000002C4B2A4A40F26261294815F00FFD029BB1
:10401000002B06D1284B254A40F26361244815F055
:1040200005FD07AA08AB1946049802F077FB034682
:104030008DF8273040F26963204A2149214804F075
:1040400033FB079B089A19461F4804F02DFB1F48B5
:1040500004F02AFB9DF82730002B1ED1089A059BFF
:1040600003F15C00BDF80E10029B00930346049818
:1040700002F0C8FB03468DF8273040F274630F4A04
:104080000F49104804F010FB029B1B6819461048AA
:1040900004F00AFB0D4804F007FB9DF82730184692
:1040A0000BB05DF804FB00BF5CF70108BC480208D8
:1040B0005CF6010834FF010894010208D0480208A8
:1040C000C8F7010844F80108A801020818F8010817
:1040D000E001020800B587B0039002911346ADF8E5
:1040E000063000238DF81730039B002B02D0029B73
:1040F000002B12D140F28663274A2849284804F051
:10410000D3FA029A0399274804F0CEFA264804F01D
:10411000CBFA01238DF8173038E0029B1B78002B77
:1041200017D0BDF80630002B13D140F28E631A4A27
:104130001A491B4804F0B8FA029B1B7819461B4821
:1041400004F0B2FA184804F0AFFA01238DF81730E2
:104150001CE0029B1B69002B18D0029BDB68002B24
:1041600014D140F294630C4A0C490D4804F09CFAB7
:10417000029B1969029BDB681A460D4804F094FA09
:10418000094804F091FA01238DF817309DF8173093
:10419000184607B05DF804FBE4480208C8F70108B8
:1041A000D8F701080802020818F8010840020208BE
:1041B0006802020800B587B0039002910192009353
:1041C00000238DF81730039B002B05D0029B002B9A
:1041D00002D0089B002B13D14FF4D663444A4549C3
:1041E000454804F061FA089B029A0399434804F099
:1041F0005BFA434804F058FA01238DF8173071E058
:10420000019B002B10D140F2BA63394A39493A4830
:1042100004F04AFA3B4804F047FA394804F044FAFB
:1042200001238DF817305DE0009B002B10D140F288
:10423000BF632F4A2F49304804F036FA324804F061
:1042400033FA2F4804F030FA01238DF8173049E093
:10425000029B1B68002B10D140F2C463244A2549FD
:10426000254804F021FA294804F01EFA244804F0F5
:104270001BFA01238DF8173034E0029B5B68002B9A
:1042800010D140F2C9631A4A1A491B4804F00CFACB
:104290001F4804F009FA1A4804F006FA01238DF8C1
:1042A00017301FE080220021039815F0C7FC039B04
:1042B000002283F86620039B029A503307CA83E8E2
:1042C0000700039B019A9A66039B009ADA66039B98
:1042D000089A5C3392E8030083E80300039B012201
:1042E000A3F864209DF81730184607B05DF804FB6A
:1042F000FC480208C8F70108D8F70108C002020804
:1043000018F80108100302083C03020864030208BD
:104310009C03020800B58FB00590049103920293AC
:1043200000230B9300230A9300238DF8373007AB4B
:1043300000221A605A609A6000238DF81C30059B99
:10434000002B05D0049B002B02D0109B002B12D118
:1043500040F2EE63624A6349634804F0A5F9109B9A
:10436000049A0599614804F09FF9614804F09CF9AA
:1043700001238DF837309DF83730002B18D10AAB68
:104380000BAA0399049801F091FF03468DF837308A
:1043900040F2FD63524A5349564804F085F90A9B9E
:1043A0000B9A1946544804F07FF9514804F07CF9FF
:1043B0009DF83730002B09D10B9A059B5C3303998C
:1043C000049802F037F803468DF837309DF83730FF
:1043D000002B2BD1059BDB6D0A9A19460598FEF739
:1043E00021FB0C900A9B1A460C9B934210DA40F278
:1043F00012733B4A3B493C4804F056F93F4804F0ED
:1044000053F93B4804F050F903238DF837300DE0A1
:1044100040F21773324A3349364804F045F90C9993
:10442000374804F041F9324804F03EF99DF837303E
:10443000002B0CD1049B1A7807A9109B00930B4604
:1044400002990598FFF73EFC03468DF837309DF83A
:104450003730002B08D1109B1B7819460598FFF7C1
:1044600051FD03468DF837309DF83730002B1DD1B4
:1044700040F22E731A4A1B49224804F015F92248CB
:1044800004F012F91A4804F00FF9059B012283F891
:104490006620049B5A88059BA3F87620059B002282
:1044A00083F87C20059B00229A6713E040F2377363
:1044B0000B4A0C490C4804F0F7F89DF837301846C1
:1044C00000F072FB03461946104804F0EDF8084866
:1044D00004F0EAF89DF8373018460FB05DF804FB99
:1044E00008490208C8F70108D8F70108D4030208F0
:1044F00018F8010844F801082004020858040208CA
:104500008404020874FC0108A8040208D804020804
:1045100000B58BB0059004910392ADF80A300023EA
:1045200007930023069300230893BDF80A30039AEB
:1045300004990598FFF790FA03468DF827309DF807
:104540002730002B18D106AB07AA0399049802F074
:1045500001F803468DF8273040F255732A4A2B495B
:104560002B4804F0A1F8069B079A1946294804F045
:104570009BF8294804F098F89DF82730002B0DD1BE
:104580000799059B5C33BDF80A2000930B460399FD
:10459000049802F037F803468DF827309DF827304D
:1045A000002B2BD1059BDB6D069A19460598FEF76B
:1045B00039FA0890069B1A46089B934210DA40F29B
:1045C0006D73114A1149154804F06EF8144804F04F
:1045D0006BF8114804F068F803238DF827300DE0DC
:1045E00040F27273084A0949094804F05DF80899D5
:1045F0000C4804F059F8084804F056F89DF82730A4
:1046000018460BB05DF804FB18490208C8F701080A
:1046100044F801080405020818F80108D8F7010851
:10462000400502086C05020800B58BB005900491A6
:104630001346ADF80E300023089300238DF81F3089
:10464000BDF80E301A4604990598FFF743FD03465E
:104650008DF827309DF82730002B09D108ABBDF825
:104660000E2004990598FFF7AFFC03468DF827301C
:104670009DF82730002B19D1049B1B78002B15D0F7
:10468000049B1A78BDF80E301946059803F0C6F958
:1046900003468DF827309DF82730092B06D1049B5F
:1046A0009B78002B02D000238DF827309DF827300F
:1046B000002B08D1089B1A4604990598FFF72CFA9D
:1046C00003468DF827309DF82730002B2AD1049B14
:1046D0001B78002B26D0049B1A78BDF80E100DF124
:1046E0001F03009313460022059803F0FDF90346CB
:1046F0008DF827309DF82730002B13D040F2B3738C
:10470000174A1849184803F0CFFF9DF8273018467C
:1047100000F04AFA03461946144803F0C5FF14484E
:1047200003F0C2FF9DF82730002B13D040F2BD7379
:104730000B4A0C490C4803F0B7FF9DF82730184688
:1047400000F032FA034619460A4803F0ADFF084864
:1047500003F0AAFF9DF8273018460BB05DF804FB64
:1047600028490208C8F70108D8F70108900502088F
:1047700018F801082C06020800B587B00190002344
:10478000049300238DF8173000230393019B002B23
:104790000FD140F2CE73424A4249434803F084FFAE
:1047A000424803F081FF424803F07EFF01238DF869
:1047B00017309DF81730002B27D103AB184602F0B5
:1047C000BDF903468DF817309DF81730002B0FD137
:1047D00040F2D973324A3349364803F065FF039BF0
:1047E0001946354803F060FF314803F05DFF0CE0E7
:1047F00040F2DE732A4A2B492B4803F055FF2F481D
:1048000003F052FF2A4803F04FFF9DF81730002BAA
:1048100007D1019B5C33184602F0BEF903468DF8C0
:1048200017309DF81730002B33D1019BDB6D039AB5
:1048300019460198FEF7F6F80490039B1A46049B6C
:10484000934210DA40F2F273154A1649164803F003
:104850002BFF1B4803F028FF154803F025FF032317
:104860008DF8173015E0019B1A6F019B9A67019B29
:10487000012283F87C2040F2F973094A09490D4866
:1048800003F012FF04990F4803F00EFF084803F0ED
:104890000BFF9DF81730184607B05DF804FB00BF0A
:1048A00038490208C8F70108D8F70108500602087D
:1048B00018F8010844F8010864060208880602088E
:1048C000B0060208DC06020800B587B0019000912E
:1048D00001238DF8173000230493009B03930023DA
:1048E0000293019B002B0DD140F67F033C4A3D49CA
:1048F0003D4803F0D9FE3D4803F0D6FE3C4803F0A6
:10490000D3FE61E0019B9B6E002B0DD140F683032B
:10491000334A3449344803F0C7FE364803F0C4FE36
:10492000334803F0C1FE4FE0019BDB6D002B0DD13E
:1049300040F687032A4A2B492B4803F0B5FE2E4840
:1049400003F0B2FE2A4803F0AFFE3DE0019B9B6EF0
:1049500098470490019B002283F8742000238DF86F
:10496000173031E0012203990198FEF7D3FF034687
:104970008DF817309DF81730002B14D040F69803AF
:10498000174A1849184803F08FFE9DF8173018464B
:1049900000F00AF903461946184803F085FE14484A
:1049A00003F082FE10E0019B9B6E9847034604993A
:1049B0001846FEF727F90290029A009B9A4208D205
:1049C000009A029BD31A03939DF81730002BC9D08D
:1049D00000E000BF9DF81730184607B05DF804FBF3
:1049E00044490208C8F70108D8F701084C08020832
:1049F00018F8010884080208C4080208100902080F
:104A000084B001900023ADF80E30019B002B18D02C
:104A1000019BB3F86430ADF80E30019BB3F86430FD
:104A20004FF6FF72934204D1019B0122A3F8642048
:104A300007E0019BB3F8643001339AB2019BA3F8FD
:104A40006420BDF80E30184604B0704700B587B03A
:104A500003900291019200238DF81730039B002BE5
:104A600010D140F64D13464A4649474803F01CFE14
:104A7000464803F019FE464803F016FE01238DF860
:104A8000173077E0029B002B10D140F652133C4ABE
:104A90003C493D4803F008FE3E4803F005FE3C4813
:104AA00003F002FE01238DF8173063E0019B002B19
:104AB00010D140F65713324A3249334803F0F4FD1F
:104AC000354803F0F1FD324803F0EEFD01238DF887
:104AD00017304FE0039B1B78902B14D040F65C13EB
:104AE000274A2849284803F0DFFD039B1B781A4614
:104AF00090212A4803F0D8FD254803F0D5FD012375
:104B00008DF8173036E0039B5B68002B10D140F620
:104B100064131B4A1B491C4803F0C6FD204803F0E0
:104B2000C3FD1B4803F0C0FD01238DF8173021E0C1
:104B3000039B9B68022B13D840F66C13104A114953
:104B4000114803F0B1FD039B9B681946154803F01B
:104B5000ABFD0F4803F0A8FD01238DF8173009E0E5
:104B6000039B5B689A1C029B1A60039B9B689A1EBE
:104B7000019B1A609DF81730184607B05DF804FBDA
:104B800058490208C8F70108D8F70108240B0208A1
:104B900018F80108500B02087C0B0208A80B020849
:104BA000040C0208400C020884B003468DF807305C
:104BB000002303939DF807300A2B3AD801A252F83C
:104BC00023F000BFF14B0008F74B0008FD4B000835
:104BD000034C0008094C00080F4C0008154C000855
:104BE0001B4C0008214C0008274C00082D4C0008E5
:104BF000134B039320E0134B03931DE0124B0393DD
:104C00001AE0124B039317E0114B039314E0114B7E
:104C1000039311E0104B03930EE0104B03930BE052
:104C20000F4B039308E00F4B039305E00E4B0393E8
:104C300002E00E4B039300BF039B184604B070477D
:104C4000BC0C0208C80C0208DC0C0208EC0C0208C0
:104C5000FC0C02080C0D02081C0D0208300D0208A5
:104C6000440D0208580D02086C0D0208840D02085C
:104C700000B585B00190019B7F2B02D801230393DF
:104C80000FE0019BB3F5804F02D20223039308E0AB
:104C9000019BB3F5001F02D20323039301E0042319
:104CA000039340F2C913094A09490A4803F0FCFC7E
:104CB000039A0199084803F0F7FC084803F0F4FC54
:104CC000039B184605B05DF804FB00BF7449020859
:104CD000940E0208A40E0208BC0E0208E80E020898
:104CE00000B587B00190009100230493009B0393CB
:104CF000019B002B06D1154B154A40F2D9111548DE
:104D000014F094FE019B0493039BDBB203F07F033A
:104D10008DF81730039BDB090393039B002B05D011
:104D20009DF8173063F07F038DF81730049B9DF8D2
:104D300017201A70049B01330493039B002BE3D1CB
:104D4000049B184607B05DF804FB00BFEC0E020898
:104D500090490208040F020800B587B00390029141
:104D60001346ADF8063000230593029B0493039B82
:104D7000002B06D1174B184A40F2FD11174814F0CA
:104D800055FE039B0593BDF806301B0A9BB2DAB2B1
:104D9000059B1A70059B01330593BDF80630DAB206
:104DA000059B1A70059B01330593049B002B06D0CD
:104DB000BDF806301A4604990598FBF73DFCBDF88E
:104DC0000630059A13440593059B184607B05DF815
:104DD00004FB00BFEC0E0208A8490208040F0208F9
:104DE00000B589B003900291019201238DF81F3024
:104DF0000023069300230593039B002B06D14A4B07
:104E00004A4A40F21E214A4814F010FE029B002B31
:104E100006D1484B454A40F21F21454814F006FE92
:104E2000019B002B06D1444B404A4FF40871404887
:104E300014F0FCFD039B1B891A46069B13440233A6
:104E40000693039B1B78002B02D0069B023306932C
:104E5000069A3A4B9B1A0593039B1B69059A9A4243
:104E600015D240F23623364A3649374803F01CFC47
:104E7000039B19696FF07043059A344803F014FCE2
:104E8000334803F011FC00238DF81F3034E0039BFE
:104E90001B69069A134406930698FFF7E9FE02463B
:104EA000059B9B1A0593039B1B69059A9A4215D291
:104EB00040F24B23224A2349234803F0F5FB039B8E
:104EC00019696FF07043059A204803F0EDFB204804
:104ED00003F0EAFB00238DF81F300DE0029B069AD9
:104EE0001A600698FFF7C4FE03460133069A13447E
:104EF0000693019B069A1A6040F25E23104A1149FC
:104F0000144803F0D1FB029B1968019B1B681A46E9
:104F1000114803F0C9FB0E4803F0C6FB9DF81F3093
:104F2000184609B05DF804FB900F0208B849020862
:104F3000040F0208A80F0208C40F0208FEFFFF0FAB
:104F4000D4490208940E0208D80F0208F00F020894
:104F5000E80E0208A40E02087010020800B589B01D
:104F60000390029100931346ADF806300023079397
:104F70000023059330238DF81B30039B002B06D1B3
:104F8000854B864A40F27221854814F04FFD009B04
:104F9000002B06D1834B814A40F27321804814F0E4
:104FA00045FD009B1B68002B06D17F4B7B4A4FF4CD
:104FB0001D717B4814F03AFD039B1B78002B0AD02F
:104FC000BDF80630002B06D1784B744A40F27621AA
:104FD000734814F02BFD039B9B78002B0AD0039B96
:104FE0001B78002B06D1724B6C4A4FF41E716C4833
:104FF00014F01CFD009B1B680793039B1B78012B7F
:1050000013D140F27F236B4A6B496C4803F04CFB91
:105010006B4803F049FB6B4803F046FB9DF81B30DF
:1050200043F002038DF81B3016E0039B1B78022B24
:1050300012D14FF421735F4A5F49604803F034FB9B
:10504000614803F031FB5F4803F02EFB9DF81B30F5
:1050500043F004038DF81B30039B5B78002B12D0C8
:1050600040F28E23534A5449544803F01DFB5748DD
:1050700003F01AFB534803F017FB9DF81B3043F075
:1050800001038DF81B30039B9B78002B12D04FF44B
:105090002573484A4849494803F006FB4C4803F049
:1050A00003FB484803F000FB9DF81B3043F0080366
:1050B0008DF81B30079B9DF81B201A70079B01334E
:1050C000079302990798FFF70BFE0790039B596817
:1050D000039B1B891A460798FFF73EFE0790039B28
:1050E0001B78002B1CD040F2A623324A32493348A9
:1050F00003F0DAFA374803F0D7FA324803F0D4FA6B
:10510000BDF806301B0A9BB2DAB2079B1A70079BE8
:105110000133BDF80620D2B21A70079B0233079301
:10512000039B1B69002B22D09DF82830002B1ED03A
:105130004FF42D731F4A2049204803F0B5FA039B12
:105140001B691946244803F0AFFA1E4803F0ACFA75
:10515000039BDB680593039B1B691A460599079817
:10516000FBF76AFA039B1B69079A13440793009B9A
:105170001B68079AD31A1A46009B5B689A4206D9A5
:10518000164B064A40F2C121054814F04FFC00BFFF
:1051900009B05DF804FB00BF900F0208F049020857
:1051A000040F0208AC100208C4100208E410020840
:1051B00024110208084A0208940E0208A40E0208EC
:1051C00068110208E80E020890110208B8110208DE
:1051D000DC11020800120208241202085812020808
:1051E00000B589B001900091002307930123069335
:1051F000002305930023049300238DF80B30002334
:105200000393069BB3F5001F03D94FF08053079318
:105210001DE00DF10B01019B0122009898470390BE
:10522000039B012B10D19DF80B3003F07F03069AEE
:1052300002FB03F3079A13440793069BDB010693D3
:10524000059B0133059302E04FF080530793079BC2
:10525000B3F1805F05D09DF80B305BB2002BD0DB43
:1052600000E000BF079BB3F1805F0AD00798FFF70B
:10527000FFFC0490059A049B9A4202D04FF08053A1
:105280000793079B184609B05DF804FB00B585B08D
:1052900003468DF8073000238DF80F309DF8073056
:1052A00003F0F003D02B1DD0D02B29D8B02B19D070
:1052B000B02B25D8902B15D0902B21D8702B11D046
:1052C000702B1DD8602B11D0602B19D8502B09D012
:1052D000502B15D8402B05D0402B11D8202B01D0B6
:1052E000302B0DD101238DF80F301BE09DF80730D6
:1052F00003F00203002B14D001238DF80F3010E0CF
:1053000040F217330A4A0B490B4803F0CDF99DF8D8
:1053100007301946094803F0C7F9094803F0C4F9F2
:1053200000E000BF9DF80F30184605B05DF804FBA3
:10533000204A0208940E0208A0120208B8120208BD
:10534000E80E020800B587B003900B4601928DF875
:105350000B3000238DF817309DF80B30002B15D142
:10536000039A019B9A4229D240F22D33164A1749DB
:10537000174803F099F90199164803F095F9164872
:1053800003F092F905238DF8173017E0019B0233E3
:10539000039A9A4212D240F23A330B4A0B490C4814
:1053A00003F082F9019B023319460C4803F07CF9A3
:1053B000094803F079F905238DF817309DF8173067
:1053C000184607B05DF804FB344A0208940E020840
:1053D000D80F0208E4120208E80E0208201302089F
:1053E00000B585B0034600918DF8073000238DF895
:1053F0000F30009B002B06D1424B434A40F24B3109
:10540000424814F013FB9DF8073003F00403002B0F
:105410001AD09DF8073003F00203002B10D040F2A1
:1054200053333B4A3B493C4803F03EF93B4803F0C9
:105430003BF93B4803F038F905238DF80F3010E0B5
:10544000009B02221A700CE09DF8073003F0020363
:10545000002B03D0009B01221A7002E0009B002267
:105460001A709DF80F30002B46D140F26933284A5C
:1054700028492C4803F018F9009B1B7819462A4844
:1054800003F012F9264803F00FF99DF8073003F0F6
:105490000103002B14BF01230023DAB2009B5A70D2
:1054A00040F26E331A4A1B491E4803F0FDF8009B78
:1054B0005B7819461D4803F0F7F8194803F0F4F833
:1054C0009DF80730DB0803F00103002B14BF012314
:1054D0000023DAB2009B9A7040F273330C4A0D49F4
:1054E000104803F0E1F8009B9B781946104803F040
:1054F000DBF80B4803F0D8F89DF80F30184605B0DC
:105500005DF804FB900F0208504A0208040F0208DD
:10551000644A0208940E0208D80F020864130208B5
:10552000E80E0208A40E0208701302087C13020899
:105530009013020830B589B003468DF80730204B30
:1055400002AC1D460FCD0FC495E8030084E80300AC
:105550009DF80730052B06D91A4B1B4A40F28B31B8
:105560001A4814F063FA9DF80730002B0FD14FF45E
:105570006473174A1749184803F096F8029B1946B6
:10558000164803F091F8164803F08EF814E040F244
:1055900095330F4A0F49134803F086F89DF80730FA
:1055A0009B0008AA134453F8183C19460B4803F013
:1055B0007BF80B4803F078F800BF09B030BD00BF9E
:1055C000B8130208A0130208784A0208040F020860
:1055D0008C4A0208940E0208A40E0208B4130208B2
:1055E000E80E0208D80F020800B585B001900091BE
:1055F00000238DF80F3000230293019B002B06D16E
:10560000594B5A4A40F2A131594814F00FFA009B05
:10561000002B06D1574B554A40F2A231544814F0A2
:1056200005FA019B5B680293019B9B68022B11D0DA
:1056300040F2A933504A5149514803F035F802214C
:10564000504803F031F8504803F02EF805238DF848
:105650000F3057E0029B1B7843F00103DBB2012BB4
:1056600010D040F2B333444A4449454803F01CF893
:10567000464803F019F8444803F016F805238DF85E
:105680000F303FE0029B1B7803F00103002B29D071
:1056900040F2BE33384A39493D4803F005F83D48E9
:1056A00003F002F8384802F0FFFF009B01221A7055
:1056B000029B01331B78002B24D040F2C5332E4AC5
:1056C0002E492F4802F0F0FF029B01331B78194648
:1056D000314802F0E9FF2C4802F0E6FF05238DF87F
:1056E0000F300FE04FF47373234A2449284802F027
:1056F000DBFF2A4802F0D8FF234802F0D5FF009BC9
:1057000000221A709DF80F30002B27D1029B013325
:105710001B78052B14D940F2D633174A174918487D
:1057200002F0C2FF029B01331B7819461C4802F0AD
:10573000BBFF154802F0B8FF05238DF80F300DE0D0
:10574000029B01331B781846FFF7F4FE029B0133DE
:105750001B78002B02D006238DF80F309DF80F30F8
:10576000184605B05DF804FBD0130208A04A0208F1
:10577000040F0208E4130208B44A0208940E020857
:10578000D80F0208FC130208E80E02082C140208C5
:10579000A40E02085014020874140208C41402086B
:1057A000EC14020800B589B00390029101920093B5
:1057B00000238DF81F300023069300230593039BDD
:1057C000002B06D15B4B5C4A40F2F7315B4814F08A
:1057D0002DF9029B002B06D1594B574A4FF47E718D
:1057E000564814F023F9019B002B06D1554B524A21
:1057F00040F2F931514814F019F9009B002B06D101
:10580000514B4D4A40F2FA314C4814F00FF9059BC8
:10581000023305930023069346E0069A13465B0085
:1058200013449B001A46039B13441B891A46059B8D
:105830001344023305939DF82830002B02D1059BB9
:1058400001330593069A13465B0013449B001A46E6
:10585000039B13441B89002B0AD0069A13465B0056
:1058600013449B001A46039B13445B68002B18D11A
:1058700001238DF81F3040F21343344A3449354830
:1058800002F012FF9DF82830002B01D1324B00E0CE
:10589000324B1A460699324802F006FF314802F0B0
:1058A00003FF069B01330693069A029B9A42B4D3E8
:1058B000059BB3F1805F12D340F21F43234A244972
:1058C000244802F0F1FE6FF070420599264802F07C
:1058D000EBFE244802F0E8FE01238DF81F309DF80E
:1058E0001F30002B0DD1019B059A1A600598FFF718
:1058F000BFF903460133059A13440593009B059AAB
:105900001A6040F23343114A1149184802F0CCFEA4
:10591000019B1968009B1B681A46154802F0C4FEDB
:10592000104802F0C1FE9DF81F30184609B05DF81E
:1059300004FB00BF0C150208C84A0208040F020845
:1059400028150208A80F0208C40F0208E84A020836
:10595000940E0208D80F02084015020844150208E8
:1059600048150208E80E020884150208A40E020871
:10597000DC15020800B587B00190009100238DF876
:10598000173000238DF80F3000230493009B002B69
:1059900006D1324B324A40F24341324814F046F8C5
:1059A000002304934EE0009A049B13441B788DF867
:1059B0000F309DF80F30022B02DC002B03DA26E0BB
:1059C000802B12D023E040F25243274A274928482F
:1059D00002F06AFE9DF80F301A460499254802F03D
:1059E00063FE254802F060FE25E040F259431E4A5E
:1059F0001E49224802F058FE0499214802F054FE44
:105A00001D4802F051FE06238DF8173013E040F2D6
:105A10006143154A15491B4802F046FE9DF80F30B8
:105A20001946194802F040FE134802F03DFE0523D6
:105A30008DF8173000BF9DF81730052B07D0049B59
:105A400001330493049A019B9A42ACD300E000BF57
:105A50009DF81730184607B05DF804FB1C160208C5
:105A6000084B0208040F02081C4B0208940E02089F
:105A7000A40E020834160208E80E0208A01202085A
:105A80005C160208D80F02087816020800B587B025
:105A90000190009100238DF8173000230493019B9F
:105AA000002B06D1304B314A40F27C41304813F094
:105AB000BDFF009B002B06D12E4B2C4A40F27D41AE
:105AC0002B4813F0B3FF019B9B680393019B5B681A
:105AD0000493039B022B10D840F28643264A2749A1
