:020000040800F2
:1000000000000220811F0008591F00085D1F000822
:10001000611F0008651F0008691F0008000000003C
:100020000000000000000000000000006120000847
:100030006D1F000800000000E1210008711F00088A
:10004000D11F0008D11F0008D11F0008D11F0008D0
:10005000D11F0008D11F0008D11F0008D11F0008C0
:10006000D11F0008D11F0008D11F0008D11F0008B0
:10007000311B0008D11F0008411B0008D11F0008D8
:10008000D11F0008D11F0008D11F0008D11F000890
:10009000D11F0008D11F0008D11F0008D11F000880
:1000A000D11F0008D11F0008D11F0008D11F000870
:1000B000611B0008D11F0008D11F0008D11F0008D4
:1000C000D11F0008D11F0008D11F0008D11F000850
:1000D000D11F0008D11F0008D11F0008511B0008C4
:1000E000D11F0008D11F0008D11F0008D11F000830
:1000F000D11F0008D11F0008D11F0008D11F000820
:10010000D11F0008D11F0008D11F0008D11F00080F
:10011000D11F0008D11F0008D11F0008D11F0008FF
:10012000D11F0008D11F0008D11F0008D11F0008EF
:10013000D11F000819470008D11F0008D11F00086F
:10014000D11F0008D11F0008D11F0008D11F0008CF
:10015000D11F0008D11F0008D11F0008D11F0008BF
:10016000D11F0008D11F0008D11F0008D11F0008AF
:10017000D11F0008D11F0008D11F00080000000097
:04018000D11F000883
:1001900010B5054C237833B9044B13B10448AFF3C1
:1001A00000800123237010BD140200200000000015
:1001B0000C74000808B5034B1BB103490348AFF3A7
:1001C000008008BD00000000180200200C74000828
:1001D0004FEA4102B2F1E04324BFB3F5001CDCF169
:1001E000FE5C0DD901F0004C4FEAC0024CEA5070A1
:1001F000B2F1004F40EB830008BF20F001007047D0
:1002000011F0804F21D113F13872BCBF01F00040D2
:10021000704741F480114FEA5252C2F11802C2F104
:10022000200C10FA0CF320FA02F018BF40F0010085
:100230004FEAC1234FEAD32303FA0CFC40EA0C0037
:1002400023FA02F34FEA4303CCE77FEA625307D174
:1002500050EA01331EBF4FF0FE4040F440007047AB
:1002600001F0004040F0FE4040F40000704700BF45
:100270004FF0FF3C06E000BF4FF0010C02E000BF72
:100280004FF0010C4DF804CD4FEA40024FEA410314
:100290007FEA226C18BF7FEA236C11D001B052EACA
:1002A000530C18BF90EA010F58BFB2EB030088BF90
:1002B000C81738BF6FEAE17018BF40F001007047FF
:1002C0007FEA226C02D15FEA402C05D17FEA236CE1
:1002D000E4D15FEA412CE1D05DF8040B704700BF28
:1002E000844608466146FFE70FB5FFF7C9FF0028BF
:1002F00048BF10F1000F0FBD4DF808EDFFF7F4FFF8
:100300000CBF012000205DF808FB00BF4DF808ED90
:10031000FFF7EAFF34BF012000205DF808FB00BFB3
:100320004DF808EDFFF7E0FF94BF012000205DF8D5
:1003300008FB00BF4DF808EDFFF7D2FF94BF012086
:1003400000205DF808FB00BF4DF808EDFFF7C8FF7F
:1003500034BF012000205DF808FB00BF53B94AB943
:10036000002908BF00281CBF4FF0FF314FF0FF30BD
:1003700000F060B9ADF1080C6DE904CE00F006F8AC
:10038000DDF804E0DDE9022304B070472DE9F04F09
:1003900007468C46084615463C461946099E002BE2
:1003A00040F0C6808242B2FA82F746D94FB1C7F117
:1003B000200E24FA0EFE00FA07F3BD404EEA030CAD
:1003C000BC404FEA1548BCFBF8F91FFA85FE08FB54
:1003D00019C309FB0EFA220C42EA03439A4528D9B5
:1003E000EB1809F1FF3004D29A4502D9A9F10200B5
:1003F0002B44A3EB0A03B3FBF8F208FB123302FB16
:100400000EFEA4B244EA0344A64514D92C1902F105
:10041000FF3303D2A64501D9931E2C44A4EB0E044E
:1004200043EA00401EB10023FC4034607360BDE825
:10043000F08F4846DDE71346F0E702B9FFDE87BBE1
:100440000121831A4FEA154EB3FBFEFCAAB20EFB44
:100450001C330CFB02F8200C40EA0343984563D997
:10046000EB180CF1FF3004D2984502D9ACF1020030
:100470002B44A3EB0803B3FBFEFC0EFB1C330CFB6D
:1004800002F2A4B244EA0344A2424FD92C190CF15F
:10049000FF3304D2A24202D9ACF102032C44A41AC5
:1004A000BEE7C7F1200CBD4020FA0CF800FA07F3B4
:1004B00024FA0CFC4FEA154E4CEA0302B8FBFEFC92
:1004C000ABB20EFB1C800CFB03F9110C41EA00409F
:1004D000814504FA07F423D928180CF1FF3104D21E
:1004E000814502D9ACF102012844A0EB0900B0FB20
:1004F000FEFC0EFB1C000CFB03F892B242EA004328
:1005000098450FD9EB180CF1FF3204D2984502D967
:10051000ACF102022B44A3EB080342EA014191E74C
:100520006146E2E76246F6E76046A2E76346B6E761
:10053000834205D90EB1C6E900700021084676E76E
:10054000B3FA83F181B9834201D3BA420AD8BC1A03
:1005500060EB030301209C46002E68D0C6E9004CE6
:10056000002164E70846F7E7C1F1200C8B4022FA2E
:100570000CF41C4320FA0CFB4FEA1449BBFBF9F8BE
:100580001FFA84FE09FB18BB08FB0EFA02FA01F5FC
:1005900000FA01F327FA0CF213431A0C42EA0B4259
:1005A000924507FA01F73ED9A21808F1FF3004D2AC
:1005B000924502D9A8F102002244A2EB0A02B2FB42
:1005C000F9F809FB182208FB0EFE9BB243EA02422F
:1005D00096452AD9A21808F1FF3304D2964502D9CC
:1005E000A8F10203224443EA0040A0FB0593A2EBDA
:1005F0000E029A42CE46984602D306D14F4504D207
:10060000B9EB050E63EB0408013886B1B7EB0E03B6
:1006100062EB080707FA0CFCCB404CEA0303CF401F
:10062000C6E900379CE74046C7E74346DBE731466B
:10063000FDE60000704700BF844641EA000313F066
:10064000030349D1403A23D30B6803604B684360EE
:100650008B688360CB68C3600B6903614B6943613E
:100660008B698361CB69C3610B6A03624B6A436226
:100670008B6A8362CB6AC3620B6B03634B6B43630E
:100680008B6B8363CB6BC36340304031403ADBD22A
:1006900030320BD30B6803604B6843608B68836018
:1006A000CB68C36010301031103AF3D20C3205D34E
:1006B00051F8043B40F8043B043AF9D2043208D024
:1006C000D2071CBF11F8013B00F8013B01D30B8896
:1006D00003806046704700BF082A13D38B07B1D050
:1006E00010F00303AED0C3F10403D21ADB071CBF22
:1006F00011F8013B00F8013BA4D331F8023B20F88C
:10070000023B9FE7043AD9D3013A11F8013B00F8C4
:10071000013BF9D20B7803704B7843708B78837070
:100720006046704782B001900091009A019B93420D
:10073000A8BF1346184602B0704782B001900091DE
:10074000009A019B9342B8BF1346184602B0704707
:1007500084B001900091019B0393009B00221A72C8
:10076000009B00225A72009B20229A74009B002258
:100770001A70009B00225A704CE0039B1B78203BB0
:10078000102B4FD801A252F823F000BFFD0700083C
:1007900025080008250800080D080008250800089D
:1007A0002508000825080008250800082508000875
:1007B0002508000825080008F50700082508000896
:1007C000D10700082508000825080008DF070008F1
:1007D000009B2D221A72009B00225A721AE0009B85
:1007E0001B7A002B0CBF01230023DBB21A46009BAF
:1007F0005A720FE0009B2B221A700BE0009B1B78B3
:10080000002B07D1009B20221A7003E0009B2322BB
:100810005A7000BF039B01330393039B1B78002B8B
:10082000ABD100E000BF009B00229A70039B1B78B5
:100830002A2B06D1009B02229A70039B013303935B
:100840001DE0009B00225A6011E0009B01229A707B
:10085000009B5A6813469B0013445B001946039B98
:100860005A1C03921B78303BCA18009B5A60039BAA
:100870001B782F2B03D9039B1B78392BE5D9009BC1
:100880000022DA60009B00229A72039B1B782E2BB9
:1008900033D1039B01330393039B1B782A2B06D18F
:1008A000009B02229A72039B0133039325E0039B72
:1008B0001B782D2B06D1039B01330393009B002251
:1008C0009A7212E0009B01229A720EE0009BDA6895
:1008D00013469B0013445B001946039B5A1C03926A
:1008E0001B78303BCA18009BDA60039B1B782F2BC8
:1008F00003D9039B1B78392BE8D9009B00221A747B
:10090000039B5A1C03921B786C2B13D06C2B19DCA5
:100910004C2B13D0682B15D1009B01221A74039B1A
:100920001B78682B12D1009B03221A74039B01339E
:1009300003930BE0009B04221A7408E0009B022240
:100940001A7404E0039B013B039300E000BF039B88
:100950005A1C03921B78253B532B00F2E88001A21E
:1009600052F823F0B50A00082F0B00082F0B0008DF
:100970002F0B00082F0B00082F0B00082F0B00086F
:100980002F0B00082F0B00082F0B00082F0B00085F
:100990002F0B00082F0B00082F0B00082F0B00084F
:1009A0002F0B00082F0B00082F0B00082F0B00083F
:1009B0002F0B00082F0B00082F0B00082F0B00082F
:1009C0002F0B00082F0B00082F0B00082F0B00081F
:1009D0002F0B00082F0B00082F0B00082F0B00080F
:1009E0002F0B00082F0B0008050B00082F0B000829
:1009F0002F0B00082F0B00082F0B00082F0B0008EF
:100A00002F0B00082F0B00082F0B00082F0B0008DE
:100A10002F0B00082F0B00082F0B00082F0B0008CE
:100A20002F0B00082F0B00082F0B00082F0B0008BE
:100A3000F70A00082F0B00082F0B00082F0B0008E7
:100A40002F0B00082F0B00082F0B00082F0B00089E
:100A50002F0B00082F0B00082F0B0008C30A0008FB
:100A6000DF0A00082F0B00080B0B00082F0B0008F3
:100A70002F0B0008DF0A00082F0B00082F0B0008BF
:100A80002F0B00082F0B00082F0B0008E70A0008A7
:100A9000210B00082F0B00082F0B0008D10A0008BB
:100AA0002F0B0008EF0A00082F0B00082F0B00087F
:100AB000FD0A0008009B00225A74009B00229A72D3
:100AC00038E0009B01225A74009B00229A7231E0A8
:100AD000009B02225A74009B00225A722AE0009B5B
:100AE00003225A7426E0009B04225A7422E0009BE1
:100AF00006225A741EE0009B00229A74009B052275
:100B00005A7417E0009B00229A74009B08225A74C2
:100B1000009B9B7A002B0CD1009B0622DA6008E038
:100B2000009B07225A74009B00229A7202E0002365
:100B300003E000BF039A019BD31A184604B0704724
:100B400084B00190009100230393009B002B01DBF4
:100B5000012301E04FF0FF330293029BD8B2009AC9
:100B6000134B83FB02139910D317C91A0B469B0032
:100B70000B445B00D11ACBB200FB03F3DAB2019B4A
:100B8000591C01913032D2B21A70009B084A82FB84
:100B900003129210DB17D31A0093039B01330393C4
:100BA000009B002BD9D1039B184604B0704700BFAF
:100BB0006766666686B003900291019200930023F7
:100BC0000593029B019AB3FBF2F2019901FB02F239
:100BD0009B1A0493049B092B04D8049BDBB230338B
:100BE000DAB207E0009BDAB2049BDBB21344DBB25B
:100BF0003733DAB2039B591C03911A70029A019B96
:100C0000B2FBF3F30293059B01330593029B002B88
:100C1000D7D1059B184606B070472DE9F00FACB050
:100C20001B901A91199218931BAB24931DAB23931D
:100C300000232B930AE0249A2B9BD118239A2B9BF9
:100C40001A440B7813702B9B01332B932B9B032B94
:100C5000F1D91D9BDB0DDBB2963B2293229B282B07
:100C600001DD002332E14FF400032193219B5A1E42
:100C70001D9B13402093209A219B13431F93229B7B
:100C8000002B16DD1F9B0022984691462299A1F168
:100C90002003C1F1200209FA01F508FA03F31D430C
:100CA00028FA02F2154308FA01F41A9BC3E9004539
:100CB00024E0229B002B18DA229B13F1170F07DA8E
:100CC0001A994FF000024FF00003C1E9002315E02C
:100CD000229B5A421F9BD3400022049305921A9BE9
:100CE000DDE90412C3E9001208E01F9B002206930D
:100CF00007921A9BDDE90612C3E90012229B3C33DE
:100D00001E931E9B3B2B02DC1E9B002B06DA4FF032
:100D100000024FF00003CDE9282320E01F9B0022B2
:100D2000089309921E99A1F12003C1F12002DDE987
:100D30000845284688400190204600FA03F30198B0
:100D400018430190234623FA02F2019B13430193B7
:100D500023468B400093DDE90034CDE92834DDE9FA
:100D600028230C9223F070430D93DDE90C34CDE978
:100D70002834DDE9284522462B464FF000004FF08D
:100D80000001990041EA9271900002460B46161943
:100D900043EB0507B3190E9347EB07030F93DDE908
:100DA0000E67CDE92867002327932DE0279B0133A9
:100DB0002793DDE92823109223F070431193DDE996
:100DC0001034CDE92834DDE9284522462B464FF082
:100DD00000004FF00001990041EA92719000024634
:100DE0000B46111902916B410393DDE902120B4688
:100DF000DB181293134642EB03031393DDE912341D
:100E0000CDE90234CDE92834DDE9282313430AD0A3
:100E1000DDE928234FF000004FF00001180F0021FA
:100E200050EA0103C2D0189B279A1A600023269328
:100E30000023259339E0269A13469B0013445B0058
:100E40002693DDE928014FF000024FF000030A0F5E
:100E50000023269B13442693DDE92823149223F0D4
:100E600070431593DDE91434CDE92834DDE92845D4
:100E700022462B464FF000004FF00001990041EA56
:100E80009271900002460B4612EB040A43EB050BED
:100E90001AEB0A0316934BEB0B031793DDE916AB22
:100EA000CDE928AB259B01332593DDE928231343A6
:100EB00002D0259B072BBEDD269B00220A930B92B6
:100EC000199BDDE90A12C3E90012012318462CB070
:100ED000BDE8F00F7047000000B593B00390029199
:100EE000009313468DF8073002AB0C930AAB0B93BB
:100EF000002311930AE00C9A119B1A440B99119B41
:100F00000B4412781A70119B01331193119B032B20
:100F1000F1D90A9BDB0DDBB2FF2B32D10A9BC3F365
:100F20001603002B15D0002310930EE0544A109B9B
:100F300013441978039B5A1C03929DF807200A4416
:100F4000D2B21A70109B01331093109B022BEDDD6F
:100F500014E000230F930EE04A4A0F9B13441978C4
:100F6000039B5A1C03929DF807200A44D2B21A70C0
:100F70000F9B01330F930F9B022BEDDD6FF00203EC
:100F800079E0029805AB06AA08A9FFF746FE0346DA
:100F9000002B17D100230E930EE03B4A0E9B134407
:100FA0001978039B5A1C03929DF807200A44D2B279
:100FB0001A700E9B01330E930E9B022BEDDD6FF02A
:100FC000020358E0039B0D931AE0DDE906014FF0A0
:100FD0000A024FF00003FFF7C1F9D2B20D9B591C72
:100FE0000D913032D2B21A70DDE906014FF00A02DB
:100FF0004FF00003FFF7B2F902460B46CDE9062396
:10100000DDE906231343E0D104E00D9B5A1C0D9249
:1010100030221A70059B5A1E0592002BF5DC0D9AA2
:10102000039BD21A009B1A600D9B5A1C0D922E2214
:101030001A70DDE908014FF00A024FF00003FFF7D4
:101040008DF9D2B20D9B591C0D913032D2B21A706B
:10105000DDE908014FF00A024FF00003FFF77EF9C7
:1010600002460B46CDE90823DDE908231343E0D10E
:101070000D9A039BD31A184613B05DF804FB00BF0A
:1010800024740008287400082C74000884B00190AF
:101090000091009B0393039B9A68039B5B689A42B1
:1010A0000AD2039B1A68039B9B68581C03998860AB
:1010B0001344019AD2B21A7000BF04B0704782B0D4
:1010C0000190009100BF02B0704700B585B001905B
:1010D0000091009B0393039B9B685A1C039B9A609F
:1010E000039B1B68039A526811460198984700BFFA
:1010F00005B05DF804FB000010B5A8B003900291A4
:1011000001920093019B2793039B0D93029B0E93E7
:1011100000230F933DE3279B1B78252B06D110ABB3
:1011200019462798FFF714FB034600E000231893A5
:10113000189B002B0AD1279B5A1C27921B781A4612
:101140000DAB19461046FFF7C0FF22E3189B279A04
:10115000134427939DF84230022B10D101238DF8C0
:101160004230009B1A1D00921B681193119B002BAB
:1011700005DA119B5B42119301238DF848309DF8ED
:101180004A30022B0DD100238DF84A30009B1A1DE6
:1011900000921B681393139B002B02DB01238DF835
:1011A0004A3004AB269300238DF897300023249314
:1011B000002323930023229300238DF887300023FC
:1011C000209300231F9300230C9300231E939DF86C
:1011D0005130082B00F2A28101A252F823F000BF87
:1011E00005120008131200082912000865120008F1
:1011F0001513000815130008151300083F14000804
:101200005B140008269B25221A70249B013324932B
:1012100089E1009B1A1D00921B68DAB2269B1A70A6
:10122000249B013324937EE1009B1A1D00921B68CE
:101230002693269B1D9305E01D9B01331D93249B44
:10124000013324931D9B1B78002BF5D19DF84A3068
:10125000012B40F06581139B24991846FFF762FA31
:1012600024905DE100231C939DF85030042B2DD871
:1012700001A252F823F000BF8D1200089912000855
:10128000A7120008B3120008C1120008009B1A1D23
:1012900000921B681C931AE0009B1A1D00921B68A9
:1012A0001BB21C9313E0009B1A1D00921B681C9339
:1012B0000DE0009B1A1D00921B68DBB21C9306E038
:1012C000009B1A1D00921B681C9300E000BF1C9B32
:1012D000002B02DB9DF8403000E02D238DF8973085
:1012E0001C9B002B0CBF01230023DBB21F931C9B14
:1012F000002B09D19DF84A30012B05D1139B002BFF
:1013000002D1002324930EE11C992698FFF718FCC4
:10131000249008E100231B939DF85030042B2DD816
:1013200001A252F823F000BF3D1300084913000842
:10133000571300086313000871130008009B1A1D5F
:1013400000921B681B931AE0009B1A1D00921B68F9
:101350009BB21B9313E0009B1A1D00921B681B930A
:101360000DE0009B1A1D00921B68DBB21B9306E088
:10137000009B1A1D00921B681B9300E000BF1B9B83
:10138000002B0CBF01230023DBB21F931B9B002B00
:1013900011D19DF84A30012B0DD1139B002B0AD19E
:1013A0009DF85130042B1DD19DF84130002B19D0F0
:1013B0000123139316E09DF85130042B07D09DF8BC
:1013C0005130052B01D1102302E00A2300E008234D
:1013D00016939DF85230169A1B992698FFF7EAFB50
:1013E000249000E000BF1B9B002B0FD09DF84130E4
:1013F000002B0BD09DF85130042B07D1249B5A1C95
:1014000024921A46269B134430221A701B9B002BF1
:1014100000F088809DF84130002B00F083809DF81B
:101420005130052B01D158232393239B002B79D0D6
:101430009DF852301A46239B1344239372E0009B7D
:101440001A1D00921B681946202310222698FFF7C8
:10145000B1FB24907823239365E09DF85030022B54
:101460000FD1009B073323F0070303F1080200921A
:10147000D3E9002310461946FEF7AAFE03461A9345
:101480000EE0009B073323F0070303F108020092EC
:10149000D3E9002310461946FEF79AFE03461A9335
:1014A0004FF000011A98FEF731FF0346002B01D0E0
:1014B0002D2301E09DF840308DF8973001231C4624
:1014C0004FF000011A98FEF717FF0346002B01D1D9
:1014D00000231C46E3B21F939DF852200CAB1A99CF
:1014E0002698FFF7F9FC2490249B002B05DA249B17
:1014F0005B42249301231E9315E00C9A139BD31A8D
:1015000019460020FFF719F91790179B269A1344E4
:101510002693249A179BD31A249304E000BF02E079
:1015200000BF00E000BF9DF84230012B24D19DF8A0
:101530004930002B1DD09DF85130022B1CD09DF856
:101540005130012B18D09DF85130002B14D09DF84C
:101550004A30012B09D1139B002B06D11F9B002B76
:1015600003D020238DF8873006E030238DF88730B4
:1015700002E020238DF887309DF85130022B12D0E5
:101580001E9B002B0FD19DF85130082B01D10C9BD5
:1015900000E0249B1593139A159BD31A194600203B
:1015A000FFF7CBF82090119A249BD31A9DF897202F
:1015B000002A14BF01220022D2B29B1A2293239B3D
:1015C000002B02D0229B023B22939DF85130082B26
:1015D00009D1139B002B06D19DF84130002B02D17D
:1015E000229B01332293229A209BD31A2293229981
:1015F0000020FFF7A2F822909DF84830002B41D13F
:101600009DF88730002B3DD09DF88730302B22D1BC
:101610009DF89730002B09D09DF897300DAA114600
:101620001846FFF752FD00238DF89730239B002BBF
:1016300011D00DAB19463020FFF747FD0DAB194611
:101640002398FFF742FD06E09DF887300DAA11466A
:101650001846FFF73AFD229B5A1E2292002BF3DC1C
:101660009DF88730302B1BD0239B002B18D00DAB5F
:1016700019463020FFF729FD0DAB19462398FFF7D7
:1016800024FD0DE0239B002B0BD00DAB1946302021
:10169000FFF71BFD0DAB19462398FFF716FD00E081
:1016A00000BF9DF85130022B14D1002319930CE098
:1016B000199B269A13441B781A460DAB19461046FF
:1016C000FFF703FD199B01331993199A249B9A4242
:1016D000EEDB49E09DF89730002B06D09DF897305F
:1016E0000DAA11461846FFF7F0FC9DF85130082B63
:1016F0000BD004E00DAB19463020FFF7E6FC209B31
:101700005A1E2092002BF5DC17E0139B002B14D1FE
:101710009DF84130002B10D1269B01332693249B4A
:10172000013B249309E0249B269A13441B781A4614
:101730000DAB19461046FFF7C8FC249B5A1E249295
:10174000002BF0DC9DF85130082B0DD11E9B002B97
:101750000AD104E00DAB19463020FFF7B6FC209B00
:101760005A1E2092002BF5DC9DF84830002B10D03B
:101770009DF88730002B0CD006E09DF887300DAA2D
:1017800011461846FFF7A1FC229B5A1E2292002BFD
:10179000F3DC279B1B78002B7FF4BDAC0F9B184616
:1017A00028B010BD00B58BB0039002910192009358
:1017B000039B0593029B069300230793039B002B37
:1017C00001D00A4B00E00A4B099305A9009B019A3E
:1017D0000998FFF791FC089005AA099B1146002083
:1017E0009847089B18460BB05DF804FB8D10000865
:1017F000BF10000808B503F049F800F05BF800F0EE
:1018000093F800F0E5F800F0BFF800F007F900BF2A
:1018100008BD0FB400B583B005AB019301990498DE
:1018200000F006F800BF03B05DF804EB04B07047A9
:1018300000B583B0019000910D48009B019AF921F9
:10184000FFF7B0FF0B4805F0B3FD03469AB24FF027
:10185000FF330849084805F05CF80346002B0CBF2D
:1018600001230023DBB2184603B05DF804FB00BF80
:1018700001000020000000209803002008B5044B60
:101880001B6800225A62024804F062FB00BF08BDD8
:10189000E402002008B5024804F0BCFB00BF08BD0C
:1018A000E4020020024B1B685B6A1846704700BFC9
:1018B000E402002000B593B006AB302200211846A8
:1018C00005F024FD01AB00221A605A609A60DA60CC
:1018D0001A61012306930523079302230C934FF407
:1018E00080030D9308230E93F0230F93022310938C
:1018F0000523119306AB184603F04AFE0F2301930C
:1019000002230293002303934FF4A05304934FF454
:101910008053059301AB0321184604F087F800BFFC
:1019200013B05DF804FB000000B583B00023019301
:10193000124B1B6B114A43F0020313630F4B1B6BDB
:1019400003F002030193019B0D4B80221A600C4BA4
:1019500001225A600A4B01229A60094B0322DA6085
:101960000749084803F060FC00228021054803F085
:10197000F5FD00BF03B05DF804FB00BF0038024076
:101980009C0400200004024008B50F4B0F4A1A6067
:101990000D4B4FF4E1325A600B4B00229A600A4B18
:1019A0000022DA60084B00221A61074B0C225A61B0
:1019B000054B00229A61044B0022DA61024804F0D0
:1019C0005CFF00BF08BD00BF980300200048004036
:1019D00000B583B0002301930F4B1B6B0E4A43F4F9
:1019E000001313630C4B1B6B03F400130193019B57
:1019F000002202210C2003F071F80C2003F08AF879
:101A0000002202210E2003F069F80E2003F082F874
:101A100000BF03B05DF804FB0038024008B500F0D9
:101A200005F800F03FF800BF08BD000000B587B022
:101A300002AB00221A605A609A60DA606B4600229C
:101A40001A605A60154B164A1A60144B00225A60ED
:101A5000124B00229A60114B4FF0FF32DA600F4BAD
:101A600000221A610D4B00229A610C4804F014FA0E
:101A70004FF48053029302AB1946084804F013FC5C
:101A800000230093002301936B461946034804F09A
:101A90006FFE00BF07B05DF804FB00BFE40200204A
:101AA000000C004000B587B002AB00221A605A60FB
:101AB0009A60DA606B4600221A605A60154B4FF04C
:101AC00080421A60134B4FF47A725A60114B002215
:101AD0009A60104B3C22DA600E4B00221A610D4BCB
:101AE00080229A610B4804F0D7F94FF48053029397
:101AF00002AB1946074804F0D6FB002300930023ED
:101B000001936B461946034804F032FE00BF07B04C
:101B10005DF804FB3002002000B583B00190034B58
:101B20001B68984700BF03B05DF804FBB0040020B9
:101B300008B5024803F042F900BF08BDDC030020ED
:101B400008B5024803F03AF900BF08BD3C04002084
:101B500008B5024804F072FF00BF08BD98030020DA
:101B600008B5024804F078FA00BF08BD3002002032
:101B700082B0002301930E4B5B6C0D4A43F480430B
:101B800053640B4B5B6C03F480430193019B002374
:101B90000093074B1B6C064A43F080531364044BBD
:101BA0001B6C03F080530093009B00BF02B0704792
:101BB0000038024000B58BB0019005AB00221A60DE
:101BC0005A609A60DA601A61019B1B68464A934228
:101BD00040F0868000230493444B1B6C434A43F43B
:101BE00080231364414B1B6C03F480230493049BF8
:101BF000002303933D4B1B6B3C4A43F008031363E4
:101C00003A4B1B6B03F008030393039B4FF44073A1
:101C100005930223069300230793032308930723C6
:101C2000099305AB1946324803F0FEFA314B324AAC
:101C30001A60304B4FF000625A602E4B00229A60BF
:101C40002C4B0022DA602B4B4FF480621A61294B37
:101C500000225A61274B00229A61264B0022DA614A
:101C6000244B00221A62234B00225A62214802F0C0
:101C70006BFF019B1F4A9A631E4A019B93631F4B94
:101C80001F4A1A601D4B4FF000625A601B4B4022E6
:101C90009A601A4B0022DA60184B4FF480621A6186
:101CA000164B00225A61154B00229A61134B0022F9
:101CB000DA61124B00221A62104B00225A620F485E
:101CC00002F042FF019B0D4A5A630C4A019B936349
:101CD00000220021272002F001FF272002F01AFF36
:101CE00000BF0BB05DF804FB004800400038024024
:101CF000000C0240DC030020286002403C0400206D
:101D00005860024000B585B00190019B1B68B3F19B
:101D1000804F16D100230393154B1B6C144A43F0DC
:101D200001031364124B1B6C03F001030393039B29
:101D3000002200211C2002F0D1FE1C2002F0EAFE4D
:101D400012E0019B1B680B4A93420DD100230293C2
:101D5000074B1B6C064A43F008031364044B1B6CCF
:101D600003F008030293029B00BF05B05DF804FB7B
:101D700000380240000C004008B500F0B7F80346F8
:101D8000002B03D10448FFF744FD04E0002203497F
:101D9000034800F06DF808BD307400085474000862
:101DA000C11D000808B5044B1B6819460348FFF71E
:101DB00030FD00BF08BD00BFF401002070740008B2
:101DC00080B584B000AF786000220C490C4800F068
:101DD0004FF80023FB600DE000F09AF80346002B5B
:101DE00005D000F077F800F0A5F800F073F8FB6874
:101DF0000133FB60FB68002BEEDDFEE79874000802
:101E0000051E000880B584B000AF78600023FB6039
:101E100017E0FFF733FD00F07BF80346002B0DD0F1
:101E2000FFF740FD02460A4B1B681344084A136043
:101E3000FFF730FD00F07EF800F04CF8FB6801334E
:101E4000FB60FB68002BE4DDFFF7ACFFFEE700BFA3
:101E5000F401002008B5FFF7CDFC0448FFF7D9FCDA
:101E6000FFF78AFF01F0D0F9FEE700BFB474000865
:101E700000B587B0059004910392134B1B78012B9A
:101E800002D0022B0BD01BE0104B0193039B00935D
:101E9000002382220499059801F069F80AE00C4BAE
:101EA0000193039B0093002382220499059801F07B
:101EB0005EF800BF044B1B780133DAB2024B1A7094
:101EC00007B05DF804FB00BFFC010020B404002053
:101ED000B8040020044B4FF080521A60BFF34F8FBC
:101EE000BFF36F8F00BF704704ED00E008B501201D
:101EF00000F05FFC0346054A1360044B1B68002B8F
:101F000014BF01230023DBB2184608BDBC04002027
:101F100008B5074B1B684FF0FF31184600F0C8FDAD
:101F20000346012B0CBF01230023DBB2184608BD7A
:101F3000BC04002008B5074B1868002300220021CC
:101F400000F050FC0346012B0CBF01230023DBB241
:101F5000184608BDBC04002000BF704700BF704792
:101F600000BF704700BF704700BF704700BF704799
:101F700008B502F0DBFC00F057F900BF08BD000017
:101F8000DFF834D00D480E490E4A002302E0D45841
:101F9000C4500433C4188C42F9D30B4A0B4C0023B1
:101FA00001E013600432A242FBD300F012F805F006
:101FB00089F9FFF74FFF7047000002200000002062
:101FC000140200200875000814020020B832012015
:101FD000FEE700BF7047000084B0039002910192B9
:101FE000039B043B0393039B4FF080721A60039B97
:101FF000043B0393029B23F00102039B1A60039BA3
:10200000043B0393074A039B1A60039B143B03930F
:10201000019A039B1A60039B203B0393039B184682
:1020200004B070472920000882B0002300934FF0CD
:10203000500383F31188BFF36F8FBFF34F8F01936A
:1020400000BF00BF009B002BFCD000BF00BF02B050
:1020500070470000000000000000000000000000C9
:10206000074B19680868B0E8F00F80F30988BFF3E0
:102070006F8F4FF0000080F311884EF00D0E704707
:102080002431012000BF00BF06480068006880F3CB
:10209000088862B661B6BFF34F8FBFF36F8F00DF62
:1020A00000BF000008ED00E000BF00BF00B585B034
:1020B0002B4B0393039B1B78DBB20293039BFF2202
:1020C0001A70039B1B78DBB28DF807309DF8073040
:1020D000DBB203F05003DAB2224B1A70224B072214
:1020E0001A600BE0204B1B68013B1F4A13609DF8F0
:1020F0000730DBB25B00DBB28DF807309DF80730AC
:10210000DBB203F08003802BECD0174B1B681B0263
:10211000154A1360144B1B6803F4E063124A136002
:10212000029BDAB2039B1A70104B1B680F4A43F4F0
:10213000700313600D4B1B680C4A43F0704313602F
:1021400000F094F80A4B00221A60FFF79DFF01F09F
:1021500097FAFFF769FF0023184605B05DF804FB06
:1021600000E400E0C0040020C404002020ED00E0F2
:102170000402002082B04FF0500383F31188BFF3B4
:102180006F8FBFF34F8F019300BF074B1B68013365
:10219000054A1360044B1B68012B01D1034B1B68DC
:1021A00000BF02B0704700BF0402002004ED00E051
:1021B00082B0094B1B68013B074A1360064B1B6842
:1021C000002B05D100230193019B83F3118800BFED
:1021D00000BF02B0704700BF0402002000000000F2
:1021E000EFF30980BFF36F8F0D4B1A6820E9F00FF2
:1021F00010602DE908404FF0500080F3118801F085
:102200003FFA4FF0000080F31188BDE808401968DC
:102210000868B0E8F00F80F30988BFF36F8F70474C
:102220002431012000BF00BF00B583B04FF0500340
:1022300083F31188BFF36F8FBFF34F8F019300BFFC
:1022400001F024F90346002B03D0074B4FF08052D6
:102250001A6000230093009B83F3118800BF00BF26
:1022600003B05DF804FB00BF04ED00E0094B002261
:102270001A60094B00221A60084B1B68084AA2FB2F
:1022800003239B09074A013B1360024B07221A6094
:1022900000BF704710E000E018E000E000020020FE
:1022A000D34D621014E000E082B0EFF30583019398
:1022B000019B0F2B05D9054A019B13441B788DF810
:1022C0000330034B1B6800BF02B07047F0E300E02F
:1022D0000CED00E000B589B001900023059300F0FB
:1022E000D3FF434B1B68002B01D100F0C7F8019BC3
:1022F000002B12D00822019B03F00703D31A0833E6
:102300000493049BDB43019A9A4204D8019A049BEC
:102310001344019301E000230193019B002B60DB38
:10232000019B002B5DD0334B1B68019A9A4258D811
:10233000314B0693304B1B68079304E0079B0693D1
:10234000079B1B680793079B5B68019A9A4203D916
:10235000079B1B68002BF1D1254B1B68079A9A42FB
:102360003FD0069B1B68082213440593079B1A68FD
:10237000069B1A60079B5A68019BD21A08235B00D0
:102380009A420FD9079A019B13440393079B5A68FB
:10239000019BD21A039B5A60079B019A5A600398CB
:1023A00000F0C4F8134B1A68079B5B68D31A114AF4
:1023B0001360104B1A68114B1B689A4203D20D4BE5
:1023C0001B680E4A1360079B5B6843F00042079B43
:1023D0005A60079B00221A60094B1B680133084AA8
:1023E000136000F05BFF059B184609B05DF804FB25
:1023F000D0300120D4300120C8300120D830012055
:10240000DC30012000B585B00190019B0393019B56
:10241000002B2BD008235B42039A13440393039BA6
:102420000293029B5B68DB0F03F00103DBB2002B1E
:102430001CD0029B1B68002B18D1029B5B6823F009
:102440000042029B5A6000F01FFF029B5A68094B32
:102450001B681344074A1360029800F067F8064BA4
:102460001B680133044A136000F018FF00BF05B079
:102470005DF804FBD4300120E030012084B04FF43B
:1024800096330293244B0393039B03F00703002B23
:102490000CD0039B07330393039B23F007030393A1
:1024A000029A039BD31A1C4A13440293039B019381
:1024B0001A4A019B1360194B00225A60019B029A31
:1024C000134403930822039B9B1A0393039B23F05B
:1024D00007030393039B124A1360114B1B680022EE
:1024E0005A600F4B1B6800221A60019B0093009BEF
:1024F000039AD21A009B5A60094B1A68009B1A6013
:10250000009B5B68074A1360009B5B68064A136088
:1025100000BF04B0704700BFC8040020C8300120CD
:10252000D0300120D8300120D430012084B0019077
:10253000264B039302E0039B1B680393039B1B68DA
:10254000019A9A42F7D8039B0293039B5B68029A15
:102550001344019A9A4208D1039B5A68019B5B6815
:102560001A44039B5A60039B0193019B0293019BB6
:102570005B68029A1A44039B1B689A4218D1039B1A
:102580001A68134B1B689A420DD0019B5A68039B33
:102590001B685B681A44019B5A60039B1B681A689E
:1025A000019B1A6008E00A4B1A68019B1A6003E05D
:1025B000039B1A68019B1A60039A019B9A4202D0FE
:1025C000039B019A1A6000BF04B07047C830012015
:1025D000D030012000B585B0019000910123039314
:1025E000019B0293029B002B5DD0029BDB6B002BB7
:1025F00059D0029B1A6C029BDB6B0021A3FB0223C8
:10260000002B00D001210B46002B4CD1FFF7B2FD6F
:10261000029B1A68029BDB6B0299096C01FB03F3B6
:102620001A44029B9A60029B00229A63029B1A68DA
:10263000029B5A60029B1A68029BDB6B013B02996A
:10264000096C01FB03F31A44029BDA60029BFF2230
:1026500083F84420029BFF2283F84520009B002B37
:1026600014D1029B1B69002B1AD0029B1033184611
:1026700001F09EF80346002B12D00E4B4FF0805213
:102680001A60BFF34F8FBFF36F8F09E0029B1033C7
:10269000184602F049F8029B2433184602F044F829
:1026A000FFF786FD01E000230393039B184605B066
:1026B0005DF804FB04ED00E000B58BB005900491DB
:1026C00013468DF80F3000230993059B002B2ED065
:1026D0000021049A059BA3FB0223002B00D00121BB
:1026E0000B46002B23D1059B049A02FB03F313F145
:1026F000510F1CD8059B049A02FB03F30893089B17
:1027000050331846FFF7E6FD0990099B002B0ED0C9
:10271000099B0793079B503307939DF80F20099B54
:1027200000931346079A0499059800F005F8099B51
:1027300018460BB05DF804FB00B585B0039002911C
:1027400001928DF80330029B002B03D1069B069A61
:102750001A6002E0069B019A1A60069B039ADA63EC
:10276000069B029A1A6401210698FFF733FF069B25
:102770009DF8032083F84C2000BF05B05DF804FBF2
:1027800000B583B00190019B002B0ED0019B00226D
:102790009A60019B00221A60019B0022DA600023EC
:1027A00000220021019800F01DF800BF03B05DF881
:1027B00004FB00B587B003468DF80730012305936D
:1027C000002304939DF807301A4604990598FFF7F3
:1027D00073FF03900398FFF7D3FF039B184607B0DE
:1027E0005DF804FB00B58BB0039002910192009359
:1027F00000230993039B0893029B002B02D1089BA3
:102800001B6C002B009B022B02D1089BDB6B012B66
:1028100001F09AF90346002B01D1019B002BFFF731
:10282000A9FC089B9A6B089BDB6B9A4202D3009B26
:10283000022B29D1009A0299089800F018FA079003
:10284000089B5B6A002B10D0089B2433184600F0CD
:10285000AFFF0346002B13D03E4B4FF080521A605F
:10286000BFF34F8FBFF36F8F0AE0079B002B07D09A
:10287000384B4FF080521A60BFF34F8FBFF36F8F0A
:10288000FFF796FC012361E0019B002B03D1FFF7CA
:102890008FFC00235AE0099B002B05D105AB18469D
:1028A00001F04AF801230993FFF782FC00F0ECFCE9
:1028B000FFF760FC089B93F844305BB2B3F1FF3F35
:1028C00003D1089B002283F84420089B93F84530ED
:1028D0005BB2B3F1FF3F03D1089B002283F8452090
:1028E000FFF766FC01AA05AB1146184601F036F861
:1028F0000346002B24D1089800F0B3FA0346002BBE
:1029000018D0089B1033019A1146184600F004FFB6
:10291000089800F03AFA00F0C1FC0346002B7FF45F
:102920007EAF0C4B4FF080521A60BFF34F8FBFF356
:102930006F8F74E7089800F028FA00F0AFFC6EE79C
:10294000089800F022FA00F0A9FC002318460BB00A
:102950005DF804FB04ED00E000B58BB0039002913C
:10296000019200230993039B0893029B002B02D141
:10297000089B1B6C002B01F0E7F80346002B01D1EC
:10298000019B002BFFF7F6FB089B9B6B0793079BB4
:10299000002B1FD00299089800F0D2F9079B5A1E0D
:1029A000089B9A63089B1B69002B0FD0089B103370
:1029B000184600F0FDFE0346002B07D03B4B4FF0BE
:1029C00080521A60BFF34F8FBFF36F8FFFF7F0FB9A
:1029D000012367E0019B002B03D1FFF7E9FB0023F4
:1029E00060E0099B002B05D105AB184600F0A4FF61
:1029F00001230993FFF7DCFB00F046FCFFF7BAFB6D
:102A0000089B93F844305BB2B3F1FF3F03D1089BBE
:102A1000002283F84420089B93F845305BB2B3F161
:102A2000FF3F03D1089B002283F84520FFF7C0FB3E
:102A300001AA05AB1146184600F090FF0346002B93
:102A400023D1089800F0F8F90346002B17D0089B13
:102A50002433019A1146184600F05EFE089800F0F3
:102A600094F900F01BFC0346002B8BD10F4B4FF069
:102A700080521A60BFF34F8FBFF36F8F82E70898C1
:102A800000F083F900F00AFC7CE7089800F07DF97B
:102A900000F004FC089800F0CFF90346002B3FF447
:102AA00071AF002318460BB05DF804FB04ED00E0A5
:102AB00000B58BB00190009100230993019B07930F
:102AC0000023089301F040F80346002B01D1009B3E
:102AD000002BFFF74FFB079B9B6B0693069B002B7E
:102AE00024D0069B5A1E079B9A63079B1B68002BEA
:102AF00004D101F0FFF90246079B9A60079B1B690E
:102B0000002B0FD0079B1033184600F051FE0346F0
:102B1000002B07D04B4B4FF080521A60BFF34F8F02
:102B2000BFF36F8FFFF744FB012387E0009B002B6F
:102B300003D1FFF73DFB002380E0099B002B05D16B
:102B400003AB184600F0F8FE01230993FFF730FBB2
:102B500000F09AFBFFF70EFB079B93F844305BB243
:102B6000B3F1FF3F03D1079B002283F84420079B6A
:102B700093F845305BB2B3F1FF3F03D1079B0022CE
:102B800083F84520FFF714FB6A4603AB114618464D
:102B900000F0E4FE0346002B32D1079800F04CF918
:102BA0000346002B26D0079B1B68002B09D1FFF79B
:102BB000E1FA079B9B68184600F0E0FF0890FFF7DA
:102BC000F7FA079B2433009A1146184600F0A4FD3B
:102BD000079800F0DAF800F061FB0346002B7FF461
:102BE00078AF184B4FF080521A60BFF34F8FBFF38E
:102BF0006F8F6EE7079800F0C8F800F04FFB68E7AA
:102C0000079800F0C2F800F049FB079800F014F9AB
:102C10000346002B3FF45DAF089B002B0DD0FFF760
:102C2000A9FA079800F010F80590079B9B68059992
:102C3000184601F0C5F8FFF7BBFA002318460BB0A1
:102C40005DF804FB04ED00E084B00190019B5B6A39
:102C5000002B06D0019B1B6B1B68C3F1050303937C
:102C600001E000230393039B184604B0704700B5AE
:102C700087B003900291019200230593039B9B6B05
:102C80000493039B1B6C002B0DD1039B1B68002B33
:102C90004DD1039B9B68184601F00EF80590039BED
:102CA00000229A6043E0019B002B19D1039B5868D6
:102CB000039B1B6C1A460299FDF7BEFC039B5A68E6
:102CC000039B1B6C1A44039B5A60039B5A68039B2B
:102CD0009B689A422BD3039B1A68039B5A6026E099
:102CE000039BD868039B1B6C1A460299FDF7A4FC52
:102CF000039BDA68039B1B6C5B421A44039BDA60FC
:102D0000039BDA68039B1B689A4207D2039B9A686D
:102D1000039B1B6C5B421A44039BDA60019B022BF2
:102D200005D1049B002B02D0049B013B0493049B20
:102D30005A1C039B9A63059B184607B05DF804FB79
:102D400000B583B001900091019B1B6C002B18D043
:102D5000019BDA68019B1B6C1A44019BDA60019BA2
:102D6000DA68019B9B689A4203D3019B1A68019B16
:102D7000DA60019BD968019B1B6C1A460098FDF72D
:102D80005BFC00BF03B05DF804FB00B585B00190AB
:102D9000FFF7F0F9019B93F845308DF80F3013E001
:102DA000019B5B6A002B14D0019B2433184600F072
:102DB000FFFC0346002B01D000F018FE9DF80F30F9
:102DC000013BDBB28DF80F309DF90F30002BE7DCB3
:102DD00000E000BF019BFF2283F84520FFF7E8F9E0
:102DE000FFF7C8F9019B93F844308DF80E3013E0DB
:102DF000019B1B69002B14D0019B1033184600F077
:102E0000D7FC0346002B01D000F0F0FD9DF80E30FA
:102E1000013BDBB28DF80E309DF90E30002BE7DC64
:102E200000E000BF019BFF2283F84420FFF7C0F9B8
:102E300000BF05B05DF804FB00B585B00190FFF759
:102E400099F9019B9B6B002B02D10123039301E0B5
:102E500000230393FFF7ACF9039B184605B05DF818
:102E600004FB00B585B00190FFF784F9019B9A6BD4
:102E7000019BDB6B9A4202D10123039301E0002303
:102E80000393FFF795F9039B184605B05DF804FB23
:102E900084B00190009100230293009B002B24D06A
:102EA000002303931EE0174A039BDB0013445B6877
:102EB000019A9A4205D1039BDB00124A1344029304
:102EC00013E0029B002B0AD10E4A039B52F83330C9
:102ED000002B04D1039BDB000A4A13440293039B9B
:102EE00001330393039B072BDDD9029B002B05D0F5
:102EF000029B009A1A60029B019A5A6000BF04B0BC
:102F0000704700BFE430012000B587B00390029104
:102F10000192039B0593FFF72DF9059B93F844302D
:102F20005BB2B3F1FF3F03D1059B002283F844203D
:102F3000059B93F845305BB2B3F1FF3F03D1059B8E
:102F4000002283F84520FFF733F9059B9B6B002B8C
:102F500006D1059B2433019A0299184600F0F2FB32
:102F60000598FFF712FF00BF07B05DF804FB00B53E
:102F70008DB00790069104931346ADF81630BDF856
:102F800016309B001846FFF7A5F90990099B002B06
:102F900013D05820FFF79EF90B900B9B002B08D005
:102FA000582200210B9804F0B1F90B9B099A1A637F
:102FB00005E00998FFF726FA01E000230B930B9B2D
:102FC000002B14D0BDF81620002303930B9B029313
:102FD0000F9B01930E9B0093049B0699079800F0AA
:102FE0000EF80B9800F07AF801230A9302E04FF0F4
:102FF000FF330A930A9B18460DB05DF804FB00B539
:1030000087B003900291019200930A9B186B019B79
:103010009B001A46A52104F079F90A9B1A6B019BC3
:1030200003F18043013B9B0013440493049B23F072
:1030300007030493029B002B1ED00023059312E08C
:10304000029A059B134419780A9A059B134434335A
:103050000A461A70029A059B13441B78002B06D06F
:10306000059B01330593059B092BE9D900E000BFBF
:103070000A9B002283F83D20089B042B01D90423DE
:1030800008930A9B089ADA620A9B089A9A640A9B38
:103090000433184601F063FB0A9B1833184601F00D
:1030A0005EFB0A9B0A9A1A61089BC3F105020A9B00
:1030B0009A610A9B0A9A5A62009A03990498FEF749
:1030C0008BFF02460A9B1A60099B002B02D0099BCA
:1030D0000A9A1A6000BF07B05DF804FB00B585B01E
:1030E0000190FFF747F8414B1B6801333F4A1360DB
:1030F0003F4B1B68002B09D13D4A019B13603B4BA2
:103100001B68012B10D100F08FFC0DE0394B1B68C0
:10311000002B09D1364B1B68DA6A019BDB6A9A42A5
:1031200002D8334A019B1360334B1B680133324A88
:103130001360314B1A68019B1A64019BDB6A012200
:103140009A402E4B1B6813432C4A1360019BDA6A8A
:103150002B4913469B0013449B000B4404331B680C
:103160000393019B039A9A60039B9A68019BDA6020
:10317000039B9B68019A04325A60019B1A1D039BB2
:103180009A60019BDA6A13469B0013449B001C4A19
:103190001A44019B5A61019BDA6A194913469B0044
:1031A00013449B000B441B68591C154813469B0095
:1031B00013449B0003441960FEF7FAFF0D4B1B6894
:1031C000002B0ED00A4B1B68DA6A019BDB6A9A421D
:1031D00007D20C4B4FF080521A60BFF34F8FBFF3F2
:1031E0006F8F00BF05B05DF804FB00BFFC3101200C
:1031F000243101200832012018320120043201203C
:103200002831012004ED00E000B585B0174B019393
:10321000002300930023822215491648FFF7A7FEDA
:103220000390039B012B02D100F0CCFF0390039B82
:10323000012B15D14FF0500383F31188BFF36F8F2B
:10324000BFF34F8F029300BF0B4B4FF0FF321A605A
:103250000A4B01221A600A4B00221A60FEF726FF71
:10326000084B1B6800BF05B05DF804FB203201204D
:10327000C0740008FD3900081C320120083201200A
:103280000032012008020020034B1B680133024A70
:10329000136000BF704700BF2432012000B587B023
:1032A00000230593002304936A4B1B68FEF762FF1B
:1032B000684B1B68013B674A1360664B1B68002B19
:1032C00040F0C080644B1B68002B00F0BB808AE09C
:1032D000624BDB68DB680593059B9B6A0293059B49
:1032E000DB69059A126A9A60059B1B6A059AD26986
:1032F0005A60029B5A68059B18339A4203D1059B7A
:103300001A6A029B5A60059B00229A62029B1B6804
:103310005A1E029B1A60059B5B690193059B9B6883
:10332000059AD2689A60059BDB68059A92685A6094
:10333000019B5A68059B04339A4203D1059BDA68C6
:10334000019B5A60059B00225A61019B1B685A1E13
:10335000019B1A60059BDB6A01229A40404B1B6867
:1033600013433F4A1360059BDA6A3E4913469B00AC
:1033700013449B000B4404331B680093059B009A85
:103380009A60009B9A68059BDA60009B9B68059A8F
:1033900004325A60059B1A1D009B9A60059BDA6AED
:1033A00013469B0013449B002E4A1A44059B5A6106
:1033B000059BDA6A2B4913469B0013449B000B4480
:1033C0001B68591C274813469B0013449B00034469
:1033D0001960059BDA6A244B1B68DB6A9A4202D3A8
:1033E000224B01221A601D4B1B68002B7FF470AF2B
:1033F000059B002B01D000F091FB1D4B1B68039334
:10340000039B002B10D000F041F80346002B02D0A4
:10341000164B01221A60039B013B0393039B002B75
:10342000F1D1134B00221A60104B1B68002B09D0FE
:10343000012304930F4B4FF080521A60BFF34F8F5C
:10344000BFF36F8FFEF7B4FE049B184607B05DF81C
:1034500004FB00BF24320120FC310120BC310120DB
:1034600004320120283101202431012010320120B2
:103470000C32012004ED00E082B0034B1B68019385
:10348000019B184602B070470032012000B589B098
:10349000002307936F4B1B68002B40F0D1806E4BCD
:1034A0001B68013306936C4A069B1360069B002B36
:1034B00013D16A4B1B681B68684B1B680593684BEC
:1034C0001B68664A1360664A059B1360654B1B6860
:1034D0000133644A136000F021FB634B1B68069ABA
:1034E0009A42C0F0A6805D4B1B681B68002B04D17C
:1034F0005D4B4FF0FF321A609BE0584B1B68DB6856
:10350000DB680493049B5B680393069A039B9A42CF
:1035100003D2554A039B13608BE0049B5B690293C3
:10352000049B9B68049AD2689A60049BDB68049AA7
:1035300092685A60029B5A68049B04339A4203D1F2
:10354000049BDA68029B5A60049B00225A61029B2A
:103550001B685A1E029B1A60049B9B6A002B1ED09C
:10356000049B9B6A0193049BDB69049A126A9A602C
:10357000049B1B6A049AD2695A60019B5A68049B97
:1035800018339A4203D1049B1A6A019B5A60049B28
:1035900000229A62019B1B685A1E019B1A60049BC1
:1035A000DB6A01229A40314B1B6813432F4A136098
:1035B000049BDA6A2E4913469B0013449B000B447C
:1035C00004331B680093049B009A9A60009B9A68DE
:1035D000049BDA60009B9B68049A04325A60049B47
:1035E0001A1D009B9A60049BDA6A13469B001344E1
:1035F0009B001F4A1A44049B5A61049BDA6A1C49C7
:1036000013469B0013449B000B441B68591C18482D
:1036100013469B0013449B0003441960049BDA6A21
:10362000144B1B68DB6A9A42FFF45DAF01230793DA
:1036300059E7114B1B68002B07D00123079304E0C7
:103640000E4B1B6801330D4A1360079B184609B0E7
:103650005DF804FB2432012000320120B431012046
:10366000B8310120143201201C3201200432012023
:103670002831012024310120103201200C32012098
:1036800084B0204B1B68002B03D01F4B01221A6013
:1036900034E01D4B00221A601C4B1B680193019BF8
:1036A000B3FA83F38DF803309DF80330C3F11F03A1
:1036B00003931749039A13469B0013449B000B4442
:1036C0001B68039A13469B0013449B00104A134443
:1036D0000293029B5B685A68029B5A60029B5A687D
:1036E000029B08339A4204D1029B5B685A68029B92
:1036F0005A60029B5B68DB68064A136000BF04B037
:10370000704700BF24320120103201200432012012
:10371000283101202431012000B583B001900091AF
:10372000074B1B6818331946019801F020F8012156
:10373000009800F0C9FC00BF03B05DF804FB00BFB7
:103740002431012000B587B0039002910192039BC0
:103750005B680593154B1B68059ADA61134B1B6870
:10376000059A92681A62114B1A68059B9B68183279
:103770005A600E4B1B6803F11802059B9A600B4BB5
:103780001B68039A9A62039B1B685A1C039B1A606E
:10379000019B002B02D04FF0FF3302930199029856
:1037A00000F092FC00BF07B05DF804FB243101205B
:1037B00088B00190019BDB68DB680693069B9B6ADF
:1037C0000593069BDB69069A126A9A60069B1B6A40
:1037D000069AD2695A60059B5A68069B18339A422A
:1037E00003D1069B1A6A059B5A60069B00229A62C7
:1037F000059B1B685A1E059B1A60494B1B68002BD2
:103800005ED1069B5B690393069B9B68069AD26810
:103810009A60069BDB68069A92685A60039B5A6816
:10382000069B04339A4203D1069BDA68039B5A60D5
:10383000069B00225A61039B1B685A1E039B1A6059
:10384000069BDB6A01229A40364B1B681343354ABC
:103850001360069BDA6A344913469B0013449B00AD
:103860000B4404331B680293069B029A9A60029BE6
:103870009A68069BDA60029B9B68069A04325A603B
:10388000069B1A1D029B9A60069BDA6A13469B00F0
:1038900013449B00244A1A44069B5A61069BDA6A29
:1038A000214913469B0013449B000B441B68591C81
:1038B0001D4813469B0013449B00034419601BE002
:1038C0001A4B5B680493069B049ADA61049B9A681E
:1038D000069B1A62049B9B68069A18325A60069BE4
:1038E00003F11802049B9A60069B104A9A620F4BE0
:1038F0001B6801330D4A1360069BDA6A0C4B1B6888
:10390000DB6A9A4205D9012307930A4B01221A6008
:1039100001E000230793079B184608B0704700BFDB
:10392000243201200432012028310120BC31012041
:10393000243101201032012082B00190054B1A6819
:10394000019B1A60044B1A68019B5A6000BF02B0C9
:10395000704700BF143201200032012000B587B04B
:1039600001900091FEF706FC1E4B1B680493019B1F
:103970005B68049AD31A0393009B1B68B3F1FF3F63
:1039800002D10023059326E0019B1A68164B1B68A1
:103990009A420AD0019B5B68049A9A4205D301239C
:1039A0000593009B00221A6015E0009B1B68039A98
:1039B0009A420BD2009B1A68039BD21A009B1A6092
:1039C0000198FFF7B9FF0023059304E0009B002254
:1039D0001A6001230593FEF7EBFB059B184607B021
:1039E0005DF804FB0032012014320120024B012259
:1039F0001A6000BF704700BF1032012000B583B0CD
:103A0000019000F04FF8064B1B68012BF9D9054BCC
:103A10004FF080521A60BFF34F8FBFF36F8FF0E704
:103A20002831012004ED00E000B583B000230193AC
:103A30000CE0019A13469B0013449B00114A134467
:103A4000184600F071FE019B01330193019B042B8A
:103A5000EFD90D4800F068FE0C4800F065FE0C48F8
:103A600000F062FE0B4800F05FFE0B4800F05CFEC9
:103A70000A4B054A1A600A4B044A1A6000BF03B099
:103A80005DF804FB283101208C310120A031012098
:103A9000BC310120D0310120E8310120B4310120B6
:103AA000B831012000B583B019E0FEF763FB104B7D
:103AB000DB68DB680193019B0433184600F08BFE42
:103AC0000C4B1B68013B0B4A13600B4B1B68013B03
:103AD000094A1360FEF76CFB019800F00FF8064BE3
:103AE0001B68002BE1D100BF00BF03B05DF804FBF1
:103AF000D0310120FC310120E431012000B583B038
:103B00000190019B1B6B1846FEF77CFC0198FEF7A9
:103B100079FC00BF03B05DF804FB0000084B1B6894
:103B20001B68002B04D1074B4FF0FF321A6005E0F1
:103B3000034B1B68DB681B68024A136000BF7047B9
:103B4000B43101201C32012082B00A4B1B68002BCB
:103B500002D10123019308E0074B1B68002B02D11F
:103B60000223019301E000230193019B184602B058
:103B7000704700BF083201202432012000B587B011
:103B80000190019B049300230593019B002B00F0FF
:103B90008780049BDA6A454B1B68DB6A9A4276D2BF
:103BA000049B9B69002B06DB404B1B68DB6AC3F15F
:103BB0000502049B9A61049B5969049BDA6A1346C7
:103BC0009B0013449B003A4A1344994257D1049BEB
:103BD0000433184600F0FFFD0346002B0AD1049B76
:103BE000DB6A012202FA03F3DA43324B1B6813400B
:103BF000304A13602D4B1B68DA6A049BDA62049B1F
:103C0000DB6A01229A402B4B1B681343294A13603D
:103C1000049BDA6A264913469B0013449B000B441D
:103C200004331B680393049B039A9A60039B9A686E
:103C3000049BDA60039B9B68049A04325A60049BDD
:103C40001A1D039B9A60049BDA6A13469B00134477
:103C50009B00174A1A44049B5A61049BDA6A144970
:103C600013469B0013449B000B441B68591C1048CF
:103C700013469B0013449B000344196004E00B4B64
:103C80001B68DA6A049BDA620123059308E0049B4F
:103C90009A6C064B1B68DB6A9A4201D2012305939A
:103CA000059B184607B05DF804FB00BF24310120D6
:103CB000283101200432012000B587B00190019B1A
:103CC000049300230593019B002B6ED0394B1B6896
:103CD000049BDB6C5A1E049BDA64049BDA6A049B27
:103CE0009B6C9A4261D0049BDB6C002B5DD1049BE2
:103CF0000433184600F06FFD0346002B0AD1049BE5
:103D0000DB6A012202FA03F3DA432B4B1B681340F0
:103D1000294A1360049B9A6C049BDA62049BDB6A59
:103D2000C3F10502049B9A61049BDB6A01229A405D
:103D3000214B1B681343204A1360049BDA6A1F4916
:103D400013469B0013449B000B4404331B680393EE
:103D5000049B039A9A60039B9A68049BDA60039B16
:103D60009B68049A04325A60049B1A1D039B9A6054
:103D7000049BDA6A13469B0013449B000F4A1A44C3
:103D8000049B5A61049BDA6A0C4913469B00134456
:103D90009B000B441B68591C084813469B001344A6
:103DA0009B000344196001230593059B184607B047
:103DB0005DF804FB24310120043201202831012068
:103DC00000B589B001900091019B069301230593F2
:103DD000019B002B00F08380069B9B6C009A9A420B
:103DE00002D9009B079302E0069B9B6C0793069BFE
:103DF000DB6A079A9A4272D0069BDB6C059A9A425C
:103E00006DD1394B1B68069BDB6A0493069B079AAE
:103E1000DA62069B9B69002B04DB079BC3F105025A
:103E2000069B9A61069B5969049A13469B001344AA
:103E30009B002E4A1344994251D1069B04331846E5
:103E400000F0C9FC0346002B0AD1069BDB6A012265
:103E500002FA03F3DA43264B1B681340244A13602B
:103E6000069BDB6A01229A40214B1B681343204AC0
:103E70001360069BDA6A1D4913469B0013449B009E
:103E80000B4404331B680393069B039A9A60039BBD
:103E90009A68069BDA60039B9B68069A04325A6014
:103EA000069B1A1D039B9A60069BDA6A13469B00C9
:103EB00013449B000D4A1A44069B5A61069BDA6A1A
:103EC0000A4913469B0013449B000B441B68591C72
:103ED000064813469B0013449B000344196000BF2F
:103EE00009B05DF804FB00BF243101202831012016
:103EF00004320120064B1B68002B04D0044B1B68C6
:103F0000DA6C0132DA64024B1B681846704700BF56
:103F10002431012000B58FB0039002910192FEF789
:103F2000C3F9039B0D93EFF311824FF0500383F31A
:103F30001188BFF36F8FBFF34F8F07920693079BD4
:103F40000C930D9A029B134454331B788DF82F3039
:103F50000D9A029B1344543302221A700D9B029A4D
:103F6000143253F82230591C0D9B029A143243F834
:103F700022109DF82F30012B40F08F804C4B1B6896
:103F8000002B5ED10D9B5B6909930D9B9B680D9A7D
:103F9000D2689A600D9BDB680D9A92685A60099B03
:103FA0005A680D9B04339A4203D10D9BDA68099B32
:103FB0005A600D9B00225A61099B1B685A1E099B7F
:103FC0001A600D9BDB6A01229A403A4B1B6813432F
:103FD000384A13600D9BDA6A374913469B00134435
:103FE0009B000B4404331B6808930D9B089A9A604E
:103FF000089B9A680D9BDA60089B9B680D9A0432B7
:104000005A600D9B1A1D089B9A600D9BDA6A134635
:104010009B0013449B00284A1A440D9B5A610D9B38
:10402000DA6A254913469B0013449B000B441B6826
:10403000591C214813469B0013449B0003441960FC
:104040001BE01E4B5B680A930D9B0A9ADA610A9B80
:104050009A680D9B1A620A9B9B680D9A18325A60E7
:104060000D9B03F118020A9B9A600D9B134A9A62FA
:10407000124B1B680133114A13600D9BDA6A104B17
:104080001B68DB6A9A4208D9019B002B02D0019B76
:1040900001221A600B4B01221A600C9B0593059BB1
:1040A00083F3118800BF00BF0FB05DF804FB00BFB1
:1040B000243201200432012028310120BC310120AA
:1040C000243101201032012000B587B00190009109
:1040D000354B1B680593354B1B680433184600F0BD
:1040E0007AFB0346002B0BD1304B1B68DB6A0122A5
:1040F00002FA03F3DA432E4B1B6813402C4A136079
:10410000019BB3F1FF3F24D1009B002B21D0294B11
:104110005B680493254B1B68049A9A60234B1B68C9
:10412000049A9268DA60214B1A68049B9B680432F7
:104130005A601E4B1B681A1D049B9A601B4B1B6820
:104140001C4A5A611B4B1B6801331A4A136000BF9B
:1041500026E0059A019B13440393144B1B68039AB2
:104160005A60039A059B9A4209D2134B1A680F4B67
:104170001B6804331946104600F0F9FA10E00F4BA3
:104180001A680A4B1B6804331946104600F0EFFA10
:104190000B4B1B68039A9A4202D2094A039B136095
:1041A00000BF07B05DF804FB00320120243101207C
:1041B00004320120E8310120B8310120B43101205E
:1041C0001C32012000B585B00023039300F016FADD
:1041D0000A4B1B68002B0BD0094B01930223009361
:1041E00000234FF4827207490748FEF7C0FE039090
:1041F000039B184605B05DF804FB00BF5832012050
:104200005C320120C8740008A942000800B585B0DE
:1042100003900291019208E0039B9B69029A134468
:104220000293039B1B6A03989847039B9A69029B1E
:10423000D118029B019A039800F0CEF80346002B98
:10424000EAD100BF00BF05B05DF804FB00B585B042
:1042500001900091134B1B68DB68DB680393039BA1
:104260000433184600F0B7FA039B93F8283003F0A4
:104270000403002B05D0009A01990398FFF7C6FFAD
:1042800008E0039B93F8283023F00103DAB2039B84
:1042900083F82820039B1B6A0398984700BF05B04A
:1042A0005DF804FB5032012000B585B0019002ABEF
:1042B000184600F055F80390029B1946039800F049
:1042C00003F800F0CBF8F2E700B585B0019000915B
:1042D000FEF7DAFF02AB184600F060F80390029B8D
:1042E000002B30D1009B002B0AD1019A039B9A42EC
:1042F00006D8FEF7D3FF03990198FFF7A7FF24E044
:10430000009B002B08D0134B1B681B68002B01D1AE
:10431000012300E0002300930F4B1868019A039BD0
:10432000D31A009A1946FEF7EFFDFEF7B7FF0346D2
:10433000002B0AD1094B4FF080521A60BFF34F8F08
:10434000BFF36F8F01E0FEF7A9FF00BF05B05DF876
:1043500004FB00BF543201205832012004ED00E07C
:1043600084B001900C4B1B681B68002B01D101220B
:1043700000E00022019B1A60019B1B68002B05D105
:10438000054B1B68DB681B68039301E00023039364
:10439000039B184604B070475032012000B585B029
:1043A0000190FFF769F803900A4B1B68039A9A4241
:1043B00005D200F0FFF8019B01221A6002E0019B88
:1043C00000221A60034A039B1360039B184605B042
:1043D0005DF804FB6032012000B587B003900291C4
:1043E0000192009300230593039B029A5A60039B5A
:1043F000039A1A61029A019B9A4212D8019A009B71
:10440000D21A039B9B699A4202D3012305931BE0B6
:10441000104B1A68039B04331946104600F0A7F9A5
:1044200012E0019A009B9A4206D2029A009B9A429D
:1044300002D30123059307E0074B1A68039B04335B
:104440001946104600F093F9059B184607B05DF831
:1044500004FB00BF543201205032012000B587B068
:1044600096E0019B002BC0F29280039B0593059B75
:104470005B69002B04D0059B0433184600F0ABF9B0
:104480006B461846FFF78AFF0490019B013B082BFF
:104490007ED801A252F823F0BD440008BD440008B4
:1044A000254500083945000865450008BD44000859
:1044B000BD4400082545000839450008059B93F8D0
:1044C000283043F00103DAB2059B83F82820029AD2
:1044D000059B9B69D118029B049A0598FFF77CFF06
:1044E0000346002B54D0059B93F8283003F00403B7
:1044F000002B09D0029A059B9B691344049A194624
:104500000598FFF783FE08E0059B93F8283023F019
:104510000103DAB2059B83F82820059B1B6A0598E6
:10452000984735E0059B93F8283023F00103DAB271
:10453000059B83F828202BE0059B93F8283043F057
:104540000103DAB2059B83F82820029A059B9A6141
:10455000059B9A69049BD118049B049A0598FFF760
:104560003BFF15E0059B93F8283003F00203002B76
:1045700003D10598FDF746FF0AE0059B93F8283024
:1045800023F00103DAB2059B83F8282000E000BF86
:10459000074B1B6801A900221846FEF7DDF9034608
:1045A000002B7FF45EAF00BF00BF07B05DF804FBD7
:1045B0005832012000B583B009E00E4B1B68DB6860
:1045C0001B6800934FF0FF310098FFF73FFE094B47
:1045D0001B681B68002BF0D1064B1B680193064B30
:1045E0001B68044A1360044A019B136000BF03B0B8
:1045F0005DF804FB503201205432012008B5FDF76C
:10460000B9FD134B1B68002B1DD1124800F08CF82C
:10461000114800F089F8114B0E4A1A60104B0E4AEF
:104620001A6000220C210A20FEF746F80346084AC9
:104630001360074B1B68002B05D0054B1B6809490D
:104640001846FEF725FCFDF7B3FD00BF08BD00BF0F
:1046500058320120283201203C3201205032012002
:1046600054320120D074000800B585B001900023B9
:104670000393104B1B6843F001030E4A13600E4B6B
:104680001B68002B11D00C4B1B6803AA0021184695
:10469000FFF740FC039B002B07D0084B4FF08052E4
:1046A0001A60BFF34F8FBFF36F8F00BF05B05DF887
:1046B00004FB00BF64320120B032012004ED00E0B1
:1046C00000B585B0019000230393104B1B6843F0A5
:1046D00002030E4A13600E4B1B68002B11D00C4BCB
:1046E0001B6803AA00211846FFF714FC039B002B4C
:1046F00007D0084B4FF080521A60BFF34F8FBFF3C3
:104700006F8F00BF05B05DF804FB00BF643201206D
:10471000B032012004ED00E008B5024800F080F856
:1047200000BF08BD6832012082B00190019B03F1F7
:104730000802019B5A60019B4FF0FF329A60019B77
:1047400003F10802019BDA60019B03F10802019B5F
:104750001A61019B00221A6000BF02B0704782B04C
:104760000190019B00221A6100BF02B0704784B023
:1047700001900091009B1B680293029BB3F1FF3FE5
:1047800003D1019B1B6903930CE0019B0833039346
:1047900002E0039B5B680393039B5B681B68029AC0
:1047A0009A42F6D2039B5A68009B5A60009B5B6852
:1047B000009A9A60009B039A9A60039B009A5A6041
:1047C000009B019A1A61019B1B685A1C019B1A608D
:1047D00000BF04B0704784B00190019B1B69039334
:1047E000019B5B68019A92689A60019B9B68019AA1
:1047F00052685A60039B5B68019A9A4203D1019BFD
:104800009A68039B5A60019B00221A61039B1B68F4
:104810005A1E039B1A60039B1B68184604B070471E
:1048200000B585B00190019B1B6803F580535A6960
:10483000124B13400393019B1B6803F580531A46E8
:10484000039B5361039B03F0C003002B02D001982C
:10485000FFF70AFF039B03F00103002B02D001982E
:10486000FFF72EFF039B03F40043002B02D00198B7
:1048700000F006F800BF05B05DF804FBFBE7013867
:1048800082B0019000BF02B07047000008B50E4B27
:104890001B680D4A43F4007313600B4B1B680A4AF4
:1048A00043F480631360084B1B68074A43F480732A
:1048B0001360032000F008F90F2000F007F8FDF75F
:1048C00057F90023184608BD003C024000B583B0EC
:1048D0000190134B1A68134B1B7819464FF47A73E7
:1048E000B3FBF1F3B2FBF3F3184600F021F90346F2
:1048F000002B01D001230EE0019B0F2B0AD80022D0
:1049000001994FF0FF3000F0E9F8074A019B13606E
:10491000002300E00123184603B05DF804FB00BF4C
:1049200000020020100200200C020020044B1B7823
:104930001A46044B1B681344024A136000BF7047B9
:1049400010020020B4320120014B1B68184670474A
:10495000B432012084B00190019B03F0070303935C
:104960000B4BDB680293029A4FF6FF03134002934E
:10497000039B1A02029B134343F0BF6343F40033CB
:104980000293034A029BD36000BF04B0704700BF8C
:1049900000ED00E0034BDB681B0A03F00703184639
:1049A000704700BF00ED00E082B003468DF807308D
:1049B0009DF90730002B0CDB9DF8073003F01F0238
:1049C00005499DF907305B09012000FA02F241F820
:1049D000232000BF02B0704700E100E082B0034630
:1049E00000918DF807309DF90730002B0ADB009B02
:1049F000DAB20C499DF907301201D2B20B4483F8A8
:104A000000230BE0009BDAB207499DF8073003F062
:104A10000F03043B1201D2B20B441A7600BF02B05E
:104A2000704700BF00E100E000ED00E088B00390B7
:104A300002910192039B03F007030793079BC3F1C5
:104A40000703042B28BF04230693079B0433062B7C
:104A500002D9079B033B00E0002305934FF0FF3290
:104A6000069B02FA03F3DA43029B1A40059B9A4025
:104A70004FF0FF31059B01FA03F3D943019B0B4033
:104A80001343184608B0704700B583B00190019BEE
:104A9000013BB3F1807F01D301230FE0094A019B61
:104AA000013B53600F214FF0FF30FFF797FF054B9D
:104AB00000229A60034B07221A600023184603B0B5
:104AC0005DF804FB10E000E000B583B001900198B0
:104AD000FFF740FF00BF03B05DF804FB00B587B0EF
:104AE0000346029101928DF80F3000230593FFF7E2
:104AF00051FF0590019A02990598FFF797FF02462A
:104B00009DF90F3011461846FFF768FF00BF07B048
:104B10005DF804FB00B583B003468DF807309DF9BE
:104B200007301846FFF740FF00BF03B05DF804FBF5
:104B300000B583B001900198FFF7A6FF0346184621
:104B400003B05DF804FB000000B587B001900023BE
:104B50000593FFF7F9FE0490019B002B01D101237F
:104B600099E0019B022283F83520019B002283F803
:104B70003420019B1B681A68019B1B6822F001020C
:104B80001A600FE0FFF7E0FE0246049BD31A052BE4
:104B900008D9019B20225A65019B032283F8352006
:104BA000032378E0019B1B681B6803F00103002BC3
:104BB000E8D1019B1B681B680593059A384B13408D
:104BC0000593019B5A68019B9B681A43019BDB6814
:104BD0001A43019B1B691A43019B5B691A43019BA2
:104BE0009B691A43019BDB691A43019B1B6A1343B0
:104BF000059A13430593019B5B6A042B07D1019B24
:104C0000DA6A019B1B6B1343059A13430593019BBF
:104C10001B68059A1A60019B1B685B690593059BDD
:104C200023F007030593019B5B6A059A13430593E1
:104C3000019B5B6A042B17D1019B9B6A059A134366
:104C40000593019BDB6A002B0ED0019800F06EFAF1
:104C50000346002B08D0019B40225A65019B01228C
:104C600083F83520012316E0019B1B68059A5A61E1
:104C7000019800F02BFA03460393019BDB6D3F2262
:104C80009A40039B9A60019B00225A65019B012276
:104C900083F835200023184607B05DF804FB00BFF9
:104CA0003F8010F000B585B00190019B9B6D039390
:104CB000FFF74AFE0290019B93F83530DBB2022BDE
:104CC00008D0019B80225A65019B002283F8342082
:104CD000012352E0019B1B681A68019B1B6822F0AC
:104CE00016021A60019B1B685A69019B1B6822F01F
:104CF00080025A61019B1B6C002B03D1019B9B6CB2
:104D0000002B07D0019B1B681A68019B1B6822F0CF
:104D100008021A60019B1B681A68019B1B6822F03D
:104D200001021A6013E0FFF70FFE0246029BD31A3E
:104D3000052B0CD9019B20225A65019B032283F885
:104D40003520019B002283F83420032315E0019BCA
:104D50001B681B6803F00103002BE4D1019BDB6D92
:104D60003F229A40039B9A60019B012283F83520E1
:104D7000019B002283F834200023184605B05DF81B
:104D800004FB82B00190019B93F83530DBB2022B1B
:104D900004D0019B80225A6501230CE0019B05226F
:104DA00083F83520019B1B681A68019B1B6822F061
:104DB00001021A600023184602B0704700B587B0A0
:104DC0000190002302938E4B1B688E4AA2FB0323A3
:104DD0009B0A0593019B9B6D0493049B1B680393A3
:104DE000019BDB6D08229A40039B1340002B1AD0D5
:104DF000019B1B681B6803F00403002B13D0019B6D
:104E00001B681A68019B1B6822F004021A60019B50
:104E1000DB6D08229A40049B9A60019B5B6D43F016
:104E20000102019B5A65019BDB6D01229A40039BA5
:104E30001340002B12D0019B1B685B6903F08003B9
:104E4000002B0BD0019BDB6D01229A40049B9A60E2
:104E5000019B5B6D43F00202019B5A65019BDB6D78
:104E600004229A40039B1340002B12D0019B1B6825
:104E70001B6803F00203002B0BD0019BDB6D0422A7
:104E80009A40049B9A60019B5B6D43F00402019B76
:104E90005A65019BDB6D10229A40039B1340002B47
:104EA00043D0019B1B681B6803F00803002B3CD018
:104EB000019BDB6D10229A40049B9A60019B1B684A
:104EC0001B6803F48023002B18D0019B1B681B6810
:104ED00003F40023002B08D1019B1B6C002B24D072
:104EE000019B1B6C019898471FE0019B9B6C002B5A
:104EF0001BD0019B9B6C0198984716E0019B1B6897
:104F00001B6803F48073002B07D1019B1B681A6890
:104F1000019B1B6822F008021A60019B1B6C002B8E
:104F200003D0019B1B6C01989847019BDB6D2022ED
:104F30009A40039B1340002B00F08E80019B1B685E
:104F40001B6803F01003002B00F08680019BDB6DD3
:104F500020229A40049B9A60019B93F83530DBB283
:104F6000052B36D1019B1B681A68019B1B6822F038
:104F700016021A60019B1B685A69019B1B6822F08C
:104F800080025A61019B1B6C002B03D1019B9B6C1F
:104F9000002B07D0019B1B681A68019B1B6822F03D
:104FA00008021A60019BDB6D3F229A40049B9A60C5
:104FB000019B012283F83520019B002283F83420D5
:104FC000019B1B6D002B7DD0019B1B6D01989847A9
:104FD00078E0019B1B681B6803F48023002B1CD026
:104FE000019B1B681B6803F40023002B0CD1019B61
:104FF0005B6C002B30D0019B5B6C019898472BE0D9
:1050000000020020B5814E1B019BDB6B002B23D0DF
:10501000019BDB6B019898471EE0019B1B681B6896
:1050200003F48073002B0FD1019B1B681A68019B4E
:105030001B6822F010021A60019B012283F83520C0
:10504000019B002283F83420019BDB6B002B03D0F3
:10505000019BDB6B01989847019B5B6D002B32D065
:10506000019B5B6D03F00103002B22D0019B052205
:1050700083F83520019B1B681A68019B1B6822F08E
:1050800001021A60029B01330293059A9A4207D3E8
:10509000019B1B681B6803F00103002BF2D100E0A9
:1050A00000BF019B012283F83520019B002283F879
:1050B0003420019BDB6C002B05D0019BDB6C01983D
:1050C000984700E000BF07B05DF804FB84B0019092
:1050D000019B1B68DBB2103B124AA2FB03231B0996
:1050E0000393114A039B13441B781A46019BDA650C
:1050F000039B032B09D9019B1B6823F47F7323F0C7
:1051000003031A1D019B9A6507E0019B1B6823F4AA
:105110007F7323F00303019A9365019B9B6D1846EF
:1051200004B07047ABAAAAAAF074000884B001903A
:1051300000238DF80F30019B9B6A0293019B9B69B2
:10514000002B20D1029B032B5CD801A252F823F044
:1051500061510008755100086151000805520008AE
:10516000019BDB6A03F08073002B4DD001238DF887
:105170000F3049E0019BDB6AB3F1C07F46D10123C8
:105180008DF80F3042E0019B9B69B3F5005F24D19D
:10519000029B032B3CD801A252F823F0AD5100082A
:1051A000B5510008AD510008C951000801238DF820
:1051B0000F3034E0019BDB6A03F08073002B29D0B1
:1051C00001238DF80F3025E0019BDB6AB3F1C07F2E
:1051D00022D101238DF80F301EE0029B022B03D950
:1051E000029B032B04D01AE001238DF80F3016E048
:1051F000019BDB6A03F08073002B0FD001238DF835
:105200000F300BE000BF0AE000BF08E000BF06E07F
:1052100000BF04E000BF02E000BF00E000BF9DF857
:105220000F30184604B0704786B0019000910023FB
:1052300005936FE1009B1A680121059B01FA03F3B6
:1052400013400393039B002B00F06181009B5B687C
:1052500003F00303012B05D0009B5B6803F00303FD
:10526000022B30D1019B9B680493059B5B000322BA
:1052700002FA03F3DB43049A13400493009BDA68B9
:10528000059B5B0002FA03F3049A13430493019B0A
:10529000049A9A60019B5B6804930122059B02FAC1
:1052A00003F3DB43049A13400493009B5B681B09E0
:1052B00003F00102059B02FA03F3049A13430493DB
:1052C000019B049A5A60009B5B6803F00303032B65
:1052D00017D0019BDB680493059B5B00032202FA55
:1052E00003F3DB43049A13400493009B9A68059BE5
:1052F0005B0002FA03F3049A13430493019B049A9C
:10530000DA60009B5B6803F00303022B23D1059B4B
:10531000DA08019B083253F822300493059B03F00E
:1053200007039B000F2202FA03F3DB43049A1340A6
:105330000493009B1A69059B03F007039B0002FA84
:1053400003F3049A13430493059BDA08019B083284
:10535000049943F82210019B1B680493059B5B0092
:10536000032202FA03F3DB43049A13400493009BE5
:105370005B6803F00302059B5B0002FA03F3049AE7
:1053800013430493019B049A1A60009B5B6803F427
:105390004033002B00F0BB8000230293634B5B6C17
:1053A000624A43F480435364604B5B6C03F4804374
:1053B0000293029B5E4A059B9B08023352F82330FE
:1053C0000493059B03F003039B000F2202FA03F3EF
:1053D000DB43049A13400493019B564A934231D015
:1053E000019B554A93422BD0019B544A934225D0AE
:1053F000019B534A93421FD0019B524A934219D0BA
:10540000019B514A934213D0019B504A93420DD0C5
:10541000019B4F4A934207D0019B4E4A934201D1D0
:10542000082310E009230EE007230CE006230AE01E
:10543000052308E0042306E0032304E0022302E03E
:10544000012300E00023059A02F00302920093403A
:105450001A46049B134304933549059B9B0802336A
:10546000049A41F823203C4B1B680493039BDB43C5
:10547000049A13400493009B5B6803F48033002B71
:1054800003D0049A039B13430493334A049B136091
:10549000314B5B680493039BDB43049A13400493F2
:1054A000009B5B6803F40033002B03D0049A039B3A
:1054B00013430493284A049B5360274B9B6804932F
:1054C000039BDB43049A13400493009B5B6803F443
:1054D0008013002B03D0049A039B134304931E4AAA
:1054E000049B93601C4BDB680493039BDB43049A8F
:1054F00013400493009B5B6803F40013002B03D05C
:10550000049A039B13430493134A049BD360059BA3
:1055100001330593009B1A68059B22FA03F3002BC5
:105520007FF488AE00BF00BF06B07047003802406D
:105530000038014000000240000402400008024020
:10554000000C02400010024000140240001802400B
:10555000001C024000200240003C014082B001904B
:105560000B46ADF8023013468DF801309DF801303E
:10557000002B04D0BDF80220019B9A6104E0BDF825
:1055800002301A04019B9A6100BF02B0704700000C
:1055900000B58BB00190019B002B01D1012337E2B4
:1055A000019B1B6803F00103002B50D09E4B9B68AE
:1055B00003F00C03042B0CD09B4B9B6803F00C03F3
:1055C000082B12D1984B5B6803F48003B3F5800F6E
:1055D0000BD1954B1B6803F40033002B36D0019B95
:1055E0005B68002B32D1012312E2019B5A688F4B7A
:1055F000D2B21A70019B5B68002B13D0FFF7A4F99D
:10560000089008E0FFF7A0F90246089BD31A642B24
:1056100001D90323FCE1844B1B6803F40033002B06
:10562000F0D014E0FFF790F9089008E0FFF78CF94C
:105630000246089BD31A642B01D90323E8E17A4B75
:105640001B6803F40033002BF0D100E000BF019B86
:105650001B6803F00203002B77D0734B9B6803F0A9
:105660000C03002B0BD0704B9B6803F00C03082B32
:1056700026D16D4B5B6803F48003002B20D16A4B6D
:105680001B6803F00203002B05D0019BDB68012B94
:1056900001D00123BCE1644B1B6823F0F802019B9D
:1056A0001B69F8210691069991FAA1F105910599D6
:1056B000B1FA81F1C9B28B405B4913430B6044E0FE
:1056C000019BDB68002B2AD0594B01221A60FFF79F
:1056D0003BF9089008E0FFF737F90246089BD31A18
:1056E000022B01D9032393E14F4B1B6803F0020304
:1056F000002BF0D04C4B1B6823F0F802019B1B6978
:10570000F8210491049991FAA1F103910399B1FA56
:1057100081F1C9B28B40444913430B6015E0444BFF
:1057200000221A60FFF710F9089008E0FFF70CF963
:105730000246089BD31A022B01D9032368E13A4B96
:105740001B6803F00203002BF0D1019B1B6803F0E0
:105750000803002B30D0019B5B69002B16D0354B22
:1057600001221A60FFF7F0F8089008E0FFF7ECF864
:105770000246089BD31A022B01D9032348E12A4B86
:105780005B6F03F00203002BF0D015E0294B0022E1
:105790001A60FFF7D9F8089008E0FFF7D5F802463D
:1057A000089BD31A022B01D9032331E11E4B5B6FF7
:1057B00003F00203002BF0D1019B1B6803F00403EC
:1057C000002B00F0888000238DF82730164B1B6CCF
:1057D00003F08053002B10D100230293124B1B6C5B
:1057E000114A43F0805313640F4B1B6C03F080533A
:1057F0000293029B01238DF827300F4B1B680E4A42
:1058000043F4807313600C4B1B6803F48073002B0C
:1058100023D1094B1B68084A43F480731360FFF7D8
:1058200093F8089013E000BF0038024002380240AD
:1058300000004742800E474200700040FFF784F8A6
:105840000246089BD31A022B01D90323E0E0724BD6
:105850001B6803F48073002BF0D0019B9A686F4B98
:10586000D2B21A70019B9B68002B15D0FFF76CF821
:1058700008900AE0FFF768F80246089BD31A41F245
:105880008832934201D90323C2E0654B1B6F03F0BA
:105890000203002BEED014E0FFF756F808900AE060
:1058A000FFF752F80246089BD31A41F2883293421E
:1058B00001D90323ACE05A4B1B6F03F00203002B0A
:1058C000EED19DF82730012B05D1554B1B6C544A66
:1058D00023F080531364019B9B69002B00F0978099
:1058E0004F4B9B6803F00C03082B61D0019B9B6915
:1058F000022B46D14B4B00221A60FFF725F8089087
:1059000008E0FFF721F80246089BD31A642B01D95F
:1059100003237DE0424B1B6803F00073002BF0D1A2
:105920003F4B5A68404B1340019AD169019A126A61
:105930001143019A526A92011143019AD26A1206E6
:105940001143019A926A5208013A12040A433449F7
:1059500013434B60334B01221A60FEF7F5FF0890AA
:1059600008E0FEF7F1FF0246089BD31A642B01D929
:1059700003234DE02A4B1B6803F00073002BF0D08B
:1059800045E0284B00221A60FEF7DEFF089008E091
:10599000FEF7DAFF0246089BD31A642B01D90323D2
:1059A00036E01F4B1B6803F00073002BF0D12EE094
:1059B000019B9B69012B01D1012329E0184B5B68F6
:1059C0000793079B03F48002019BDB699A421CD179
:1059D000079B03F03F02019B1B6A9A4215D1079B6C
:1059E0009B09C3F30802019B5B6A9A420DD1079B96
:1059F00003F44032019B9B6A9A4206D1079B03F055
:105A00007062019BDB6A9A4201D0012300E000230F
:105A100018460BB05DF804FB00700040703802407F
:105A200000380240600047420080BCF000B587B0FB
:105A300001900091019B002B01D10123D2E06B4B1F
:105A40001B6803F00F03009A9A420CD9674B009A27
:105A5000D2B21A70654B1B6803F00F03009A9A428A
:105A600001D00123BEE0019B1B6803F00203002B61
:105A700020D0019B1B6803F00403002B05D05C4B76
:105A80009B685B4A43F4E0539360019B1B6803F0FF
:105A90000803002B05D0564B9B68554A43F46043DE
:105AA0009360534B9B6823F0F002019B9B68504925
:105AB00013438B60019B1B6803F00103002B40D054
:105AC000019B5B68012B07D1494B1B6803F4003332
:105AD000002B15D1012385E0019B5B68022B07D1C8
